{
  "_format": "hh-sol-artifact-1",
  "contractName": "VotingSystem",
  "sourceName": "contracts/vote.sol",
  "abi": [
    {
      "anonymous": false,
      "inputs": [
        {
          "indexed": true,
          "internalType": "uint256",
          "name": "voteId",
          "type": "uint256"
        },
        {
          "indexed": true,
          "internalType": "address",
          "name": "voter",
          "type": "address"
        },
        {
          "indexed": false,
          "internalType": "uint256",
          "name": "optionId",
          "type": "uint256"
        }
      ],
      "name": "VoteCast",
      "type": "event"
    },
    {
      "anonymous": false,
      "inputs": [
        {
          "indexed": true,
          "internalType": "uint256",
          "name": "voteId",
          "type": "uint256"
        },
        {
          "indexed": false,
          "internalType": "string",
          "name": "title",
          "type": "string"
        },
        {
          "indexed": false,
          "internalType": "address",
          "name": "creator",
          "type": "address"
        }
      ],
      "name": "VoteCreated",
      "type": "event"
    },
    {
      "anonymous": false,
      "inputs": [
        {
          "indexed": true,
          "internalType": "uint256",
          "name": "voteId",
          "type": "uint256"
        }
      ],
      "name": "VoteEnded",
      "type": "event"
    },
    {
      "inputs": [
        {
          "internalType": "uint256",
          "name": "_voteId",
          "type": "uint256"
        },
        {
          "internalType": "uint256",
          "name": "_optionId",
          "type": "uint256"
        }
      ],
      "name": "castVote",
      "outputs": [],
      "stateMutability": "nonpayable",
      "type": "function"
    },
    {
      "inputs": [
        {
          "internalType": "string",
          "name": "_title",
          "type": "string"
        },
        {
          "internalType": "string",
          "name": "_description",
          "type": "string"
        },
        {
          "internalType": "string[]",
          "name": "_optionNames",
          "type": "string[]"
        },
        {
          "internalType": "uint256",
          "name": "_startTime",
          "type": "uint256"
        },
        {
          "internalType": "uint256",
          "name": "_endTime",
          "type": "uint256"
        },
        {
          "internalType": "uint256",
          "name": "_maxParticipants",
          "type": "uint256"
        },
        {
          "internalType": "string",
          "name": "_roomName",
          "type": "string"
        },
        {
          "internalType": "string",
          "name": "_accessCode",
          "type": "string"
        }
      ],
      "name": "createVote",
      "outputs": [
        {
          "internalType": "uint256",
          "name": "",
          "type": "uint256"
        }
      ],
      "stateMutability": "nonpayable",
      "type": "function"
    },
    {
      "inputs": [
        {
          "internalType": "uint256",
          "name": "_voteId",
          "type": "uint256"
        }
      ],
      "name": "endVote",
      "outputs": [],
      "stateMutability": "nonpayable",
      "type": "function"
    },
    {
      "inputs": [],
      "name": "getAllVoteOptions",
      "outputs": [
        {
          "internalType": "string[][]",
          "name": "",
          "type": "string[][]"
        }
      ],
      "stateMutability": "view",
      "type": "function"
    },
    {
      "inputs": [],
      "name": "getAllVotesPart1",
      "outputs": [
        {
          "internalType": "uint256[]",
          "name": "voteIds",
          "type": "uint256[]"
        },
        {
          "internalType": "string[]",
          "name": "titles",
          "type": "string[]"
        },
        {
          "internalType": "string[]",
          "name": "descriptions",
          "type": "string[]"
        },
        {
          "internalType": "uint256[]",
          "name": "startTimes",
          "type": "uint256[]"
        }
      ],
      "stateMutability": "view",
      "type": "function"
    },
    {
      "inputs": [],
      "name": "getAllVotesPart2",
      "outputs": [
        {
          "internalType": "uint256[]",
          "name": "endTimes",
          "type": "uint256[]"
        },
        {
          "internalType": "bool[]",
          "name": "isActives",
          "type": "bool[]"
        },
        {
          "internalType": "address[]",
          "name": "creators",
          "type": "address[]"
        },
        {
          "internalType": "uint256[]",
          "name": "maxParticipants",
          "type": "uint256[]"
        }
      ],
      "stateMutability": "view",
      "type": "function"
    },
    {
      "inputs": [],
      "name": "getAllVotesPart3",
      "outputs": [
        {
          "internalType": "uint256[]",
          "name": "currentParticipants",
          "type": "uint256[]"
        },
        {
          "internalType": "string[]",
          "name": "roomNames",
          "type": "string[]"
        },
        {
          "internalType": "string[]",
          "name": "accessCodes",
          "type": "string[]"
        },
        {
          "internalType": "string[]",
          "name": "statuses",
          "type": "string[]"
        }
      ],
      "stateMutability": "view",
      "type": "function"
    },
    {
      "inputs": [],
      "name": "getTotalVotes",
      "outputs": [
        {
          "internalType": "uint256",
          "name": "",
          "type": "uint256"
        }
      ],
      "stateMutability": "view",
      "type": "function"
    },
    {
      "inputs": [
        {
          "internalType": "uint256",
          "name": "_voteId",
          "type": "uint256"
        }
      ],
      "name": "getVoteDetails",
      "outputs": [
        {
          "internalType": "string",
          "name": "title",
          "type": "string"
        },
        {
          "internalType": "string",
          "name": "description",
          "type": "string"
        },
        {
          "internalType": "uint256",
          "name": "startTime",
          "type": "uint256"
        },
        {
          "internalType": "uint256",
          "name": "endTime",
          "type": "uint256"
        },
        {
          "internalType": "bool",
          "name": "isActive",
          "type": "bool"
        },
        {
          "internalType": "address",
          "name": "creator",
          "type": "address"
        },
        {
          "internalType": "uint256",
          "name": "maxParticipants",
          "type": "uint256"
        },
        {
          "internalType": "uint256",
          "name": "currentParticipants",
          "type": "uint256"
        },
        {
          "internalType": "string",
          "name": "roomName",
          "type": "string"
        },
        {
          "internalType": "string",
          "name": "accessCode",
          "type": "string"
        },
        {
          "internalType": "string",
          "name": "status",
          "type": "string"
        }
      ],
      "stateMutability": "view",
      "type": "function"
    },
    {
      "inputs": [
        {
          "internalType": "uint256",
          "name": "voteId",
          "type": "uint256"
        }
      ],
      "name": "getVoteOptions",
      "outputs": [
        {
          "internalType": "string[]",
          "name": "",
          "type": "string[]"
        }
      ],
      "stateMutability": "view",
      "type": "function"
    },
    {
      "inputs": [
        {
          "internalType": "uint256",
          "name": "_voteId",
          "type": "uint256"
        }
      ],
      "name": "getVoteResults",
      "outputs": [
        {
          "internalType": "string[]",
          "name": "names",
          "type": "string[]"
        },
        {
          "internalType": "uint256[]",
          "name": "counts",
          "type": "uint256[]"
        }
      ],
      "stateMutability": "view",
      "type": "function"
    },
    {
      "inputs": [
        {
          "internalType": "uint256",
          "name": "_voteId",
          "type": "uint256"
        },
        {
          "internalType": "address",
          "name": "_voter",
          "type": "address"
        }
      ],
      "name": "hasUserVoted",
      "outputs": [
        {
          "internalType": "bool",
          "name": "",
          "type": "bool"
        }
      ],
      "stateMutability": "view",
      "type": "function"
    },
    {
      "inputs": [
        {
          "internalType": "uint256",
          "name": "",
          "type": "uint256"
        }
      ],
      "name": "optionCounts",
      "outputs": [
        {
          "internalType": "uint256",
          "name": "",
          "type": "uint256"
        }
      ],
      "stateMutability": "view",
      "type": "function"
    },
    {
      "inputs": [
        {
          "internalType": "uint256",
          "name": "",
          "type": "uint256"
        },
        {
          "internalType": "uint256",
          "name": "",
          "type": "uint256"
        }
      ],
      "name": "voteOptions",
      "outputs": [
        {
          "internalType": "uint256",
          "name": "id",
          "type": "uint256"
        },
        {
          "internalType": "string",
          "name": "name",
          "type": "string"
        },
        {
          "internalType": "uint256",
          "name": "voteCount",
          "type": "uint256"
        }
      ],
      "stateMutability": "view",
      "type": "function"
    },
    {
      "inputs": [
        {
          "internalType": "uint256",
          "name": "",
          "type": "uint256"
        },
        {
          "internalType": "address",
          "name": "",
          "type": "address"
        }
      ],
      "name": "voters",
      "outputs": [
        {
          "internalType": "bool",
          "name": "hasVoted",
          "type": "bool"
        },
        {
          "internalType": "uint256",
          "name": "votedOptionId",
          "type": "uint256"
        }
      ],
      "stateMutability": "view",
      "type": "function"
    },
    {
      "inputs": [
        {
          "internalType": "uint256",
          "name": "",
          "type": "uint256"
        }
      ],
      "name": "votes",
      "outputs": [
        {
          "internalType": "uint256",
          "name": "id",
          "type": "uint256"
        },
        {
          "internalType": "string",
          "name": "title",
          "type": "string"
        },
        {
          "internalType": "string",
          "name": "description",
          "type": "string"
        },
        {
          "internalType": "uint256",
          "name": "startTime",
          "type": "uint256"
        },
        {
          "internalType": "uint256",
          "name": "endTime",
          "type": "uint256"
        },
        {
          "internalType": "bool",
          "name": "isActive",
          "type": "bool"
        },
        {
          "internalType": "address",
          "name": "creator",
          "type": "address"
        },
        {
          "internalType": "uint256",
          "name": "maxParticipants",
          "type": "uint256"
        },
        {
          "internalType": "uint256",
          "name": "currentParticipants",
          "type": "uint256"
        },
        {
          "internalType": "string",
          "name": "roomName",
          "type": "string"
        },
        {
          "internalType": "string",
          "name": "accessCode",
          "type": "string"
        },
        {
          "internalType": "string",
          "name": "status",
          "type": "string"
        }
      ],
      "stateMutability": "view",
      "type": "function"
    }
  ],
  "bytecode": "0x608060405234801561001057600080fd5b50614f1c806100206000396000f3fe608060405234801561001057600080fd5b50600436106101005760003560e01c80639a0e7d6611610097578063dc296ae111610066578063dc296ae114610303578063e71e89de14610333578063f1e6bb1c14610354578063f71d1c271461038457610100565b80639a0e7d66146102535780639e31906314610271578063a88922b3146102a2578063b0d26168146102d357610100565b806354a1b431116100d357806354a1b431146101925780635df81330146101cc578063865df0ad146102075780638c1bdbae1461022357610100565b80630d5b9854146101055780632c0a3f89146101265780633c4f55001461014257806350cf306314610174575b600080fd5b61010d6103a5565b60405161011d9493929190613487565b60405180910390f35b610140600480360381019061013b9190613528565b61098a565b005b61015c60048036038101906101579190613528565b610dab565b60405161016b93929190613607565b60405180910390f35b61017c610e6a565b6040516101899190613813565b60405180910390f35b6101ac60048036038101906101a79190613835565b6110ab565b6040516101c39b9a99989796959493929190613880565b60405180910390f35b6101e660048036038101906101e19190613835565b611515565b6040516101fe9c9b9a9998979695949392919061394e565b60405180910390f35b610221600480360381019061021c9190613835565b61184a565b005b61023d60048036038101906102389190613c46565b611a60565b60405161024a9190613d88565b60405180910390f35b61025b6120b4565b6040516102689190613d88565b60405180910390f35b61028b60048036038101906102869190613dcf565b6120be565b604051610299929190613e0f565b60405180910390f35b6102bc60048036038101906102b79190613835565b6120fc565b6040516102ca929190613ebe565b60405180910390f35b6102ed60048036038101906102e89190613835565b61234b565b6040516102fa9190613d88565b60405180910390f35b61031d60048036038101906103189190613dcf565b612363565b60405161032a9190613ef5565b60405180910390f35b61033b6123ce565b60405161034b9493929190613f10565b60405180910390f35b61036e60048036038101906103699190613835565b61298f565b60405161037b9190613f71565b60405180910390f35b61038c612aec565b60405161039c9493929190613f93565b60405180910390f35b606080606080600060045490508067ffffffffffffffff8111156103cc576103cb613a35565b5b6040519080825280602002602001820160405280156103fa5781602001602082028036833780820191505090505b5094508067ffffffffffffffff81111561041757610416613a35565b5b6040519080825280602002602001820160405280156104455781602001602082028036833780820191505090505b5093508067ffffffffffffffff81111561046257610461613a35565b5b6040519080825280602002602001820160405280156104905781602001602082028036833780820191505090505b5092508067ffffffffffffffff8111156104ad576104ac613a35565b5b6040519080825280602002602001820160405280156104db5781602001602082028036833780820191505090505b5091506000600190505b818111610982576000806000838152602001908152602001600020604051806101800160405290816000820154815260200160018201805461052690614023565b80601f016020809104026020016040519081016040528092919081815260200182805461055290614023565b801561059f5780601f106105745761010080835404028352916020019161059f565b820191906000526020600020905b81548152906001019060200180831161058257829003601f168201915b505050505081526020016002820180546105b890614023565b80601f01602080910402602001604051908101604052809291908181526020018280546105e490614023565b80156106315780601f1061060657610100808354040283529160200191610631565b820191906000526020600020905b81548152906001019060200180831161061457829003601f168201915b5050505050815260200160038201548152602001600482015481526020016005820160009054906101000a900460ff161515151581526020016005820160019054906101000a900473ffffffffffffffffffffffffffffffffffffffff1673ffffffffffffffffffffffffffffffffffffffff1673ffffffffffffffffffffffffffffffffffffffff16815260200160068201548152602001600782015481526020016008820180546106e390614023565b80601f016020809104026020016040519081016040528092919081815260200182805461070f90614023565b801561075c5780601f106107315761010080835404028352916020019161075c565b820191906000526020600020905b81548152906001019060200180831161073f57829003601f168201915b5050505050815260200160098201805461077590614023565b80601f01602080910402602001604051908101604052809291908181526020018280546107a190614023565b80156107ee5780601f106107c3576101008083540402835291602001916107ee565b820191906000526020600020905b8154815290600101906020018083116107d157829003601f168201915b50505050508152602001600a8201805461080790614023565b80601f016020809104026020016040519081016040528092919081815260200182805461083390614023565b80156108805780601f1061085557610100808354040283529160200191610880565b820191906000526020600020905b81548152906001019060200180831161086357829003601f168201915b5050505050815250509050600081600001511461096e5760006001836108a69190614083565b905081608001518882815181106108c0576108bf6140b7565b5b6020026020010181815250508160a001518782815181106108e4576108e36140b7565b5b6020026020010190151590811515815250508160c0015186828151811061090e5761090d6140b7565b5b602002602001019073ffffffffffffffffffffffffffffffffffffffff16908173ffffffffffffffffffffffffffffffffffffffff16815250508160e001518582815181106109605761095f6140b7565b5b602002602001018181525050505b50808061097a906140e6565b9150506104e5565b505090919293565b818060008083815260200190815260200160002060000154146109e2576040517f08c379a00000000000000000000000000000000000000000000000000000000081526004016109d99061417a565b60405180910390fd5b8260008082815260200190815260200160002060050160009054906101000a900460ff16610a45576040517f08c379a0000000000000000000000000000000000000000000000000000000008152600401610a3c906141e6565b60405180910390fd5b60008082815260200190815260200160002060030154421015610a9d576040517f08c379a0000000000000000000000000000000000000000000000000000000008152600401610a9490614252565b60405180910390fd5b60008082815260200190815260200160002060040154421115610af5576040517f08c379a0000000000000000000000000000000000000000000000000000000008152600401610aec906142be565b60405180910390fd5b836002600082815260200190815260200160002060003373ffffffffffffffffffffffffffffffffffffffff1673ffffffffffffffffffffffffffffffffffffffff16815260200190815260200160002060000160009054906101000a900460ff1615610b97576040517f08c379a0000000000000000000000000000000000000000000000000000000008152600401610b8e9061432a565b60405180910390fd5b60036000868152602001908152602001600020548410610bec576040517f08c379a0000000000000000000000000000000000000000000000000000000008152600401610be390614396565b60405180910390fd5b600080868152602001908152602001600020600601546000808781526020019081526020016000206007015410610c58576040517f08c379a0000000000000000000000000000000000000000000000000000000008152600401610c4f90614402565b60405180910390fd5b6040518060400160405280600115158152602001858152506002600087815260200190815260200160002060003373ffffffffffffffffffffffffffffffffffffffff1673ffffffffffffffffffffffffffffffffffffffff16815260200190815260200160002060008201518160000160006101000a81548160ff021916908315150217905550602082015181600101559050506001600086815260200190815260200160002060008581526020019081526020016000206002016000815480929190610d25906140e6565b91905055506000808681526020019081526020016000206007016000815480929190610d50906140e6565b91905055503373ffffffffffffffffffffffffffffffffffffffff16857f2acce567deca3aabf56327adbb4524bd5318936eaefa69e3a5208ffda0cfec0986604051610d9c9190613d88565b60405180910390a35050505050565b600160205281600052604060002060205280600052604060002060009150915050806000015490806001018054610de190614023565b80601f0160208091040260200160405190810160405280929190818152602001828054610e0d90614023565b8015610e5a5780601f10610e2f57610100808354040283529160200191610e5a565b820191906000526020600020905b815481529060010190602001808311610e3d57829003601f168201915b5050505050908060020154905083565b60606000600454905060008167ffffffffffffffff811115610e8f57610e8e613a35565b5b604051908082528060200260200182016040528015610ec257816020015b6060815260200190600190039081610ead5790505b5090506000600190505b8281116110a2576000806000838152602001908152602001600020600001541461108f576000600360008381526020019081526020016000205490508067ffffffffffffffff811115610f2257610f21613a35565b5b604051908082528060200260200182016040528015610f5557816020015b6060815260200190600190039081610f405790505b5083600184610f649190614083565b81518110610f7557610f746140b7565b5b602002602001018190525060005b8181101561108c576001600084815260200190815260200160002060008281526020019081526020016000206001018054610fbd90614023565b80601f0160208091040260200160405190810160405280929190818152602001828054610fe990614023565b80156110365780601f1061100b57610100808354040283529160200191611036565b820191906000526020600020905b81548152906001019060200180831161101957829003601f168201915b5050505050846001856110499190614083565b8151811061105a576110596140b7565b5b60200260200101518281518110611074576110736140b7565b5b60200260200101819052508080600101915050610f83565b50505b808061109a906140e6565b915050610ecc565b50809250505090565b60608060008060008060008060608060608b806000808381526020019081526020016000206000015414611114576040517f08c379a000000000000000000000000000000000000000000000000000000000815260040161110b9061417a565b60405180910390fd5b60008060008f8152602001908152602001600020604051806101800160405290816000820154815260200160018201805461114e90614023565b80601f016020809104026020016040519081016040528092919081815260200182805461117a90614023565b80156111c75780601f1061119c576101008083540402835291602001916111c7565b820191906000526020600020905b8154815290600101906020018083116111aa57829003601f168201915b505050505081526020016002820180546111e090614023565b80601f016020809104026020016040519081016040528092919081815260200182805461120c90614023565b80156112595780601f1061122e57610100808354040283529160200191611259565b820191906000526020600020905b81548152906001019060200180831161123c57829003601f168201915b5050505050815260200160038201548152602001600482015481526020016005820160009054906101000a900460ff161515151581526020016005820160019054906101000a900473ffffffffffffffffffffffffffffffffffffffff1673ffffffffffffffffffffffffffffffffffffffff1673ffffffffffffffffffffffffffffffffffffffff168152602001600682015481526020016007820154815260200160088201805461130b90614023565b80601f016020809104026020016040519081016040528092919081815260200182805461133790614023565b80156113845780601f1061135957610100808354040283529160200191611384565b820191906000526020600020905b81548152906001019060200180831161136757829003601f168201915b5050505050815260200160098201805461139d90614023565b80601f01602080910402602001604051908101604052809291908181526020018280546113c990614023565b80156114165780601f106113eb57610100808354040283529160200191611416565b820191906000526020600020905b8154815290600101906020018083116113f957829003601f168201915b50505050508152602001600a8201805461142f90614023565b80601f016020809104026020016040519081016040528092919081815260200182805461145b90614023565b80156114a85780601f1061147d576101008083540402835291602001916114a8565b820191906000526020600020905b81548152906001019060200180831161148b57829003601f168201915b505050505081525050905080602001518160400151826060015183608001518460a001518560c001518660e001518761010001518861012001518961014001518a61016001519c509c509c509c509c509c509c509c509c509c509c50505091939597999b90929496989a50565b600060205280600052604060002060009150905080600001549080600101805461153e90614023565b80601f016020809104026020016040519081016040528092919081815260200182805461156a90614023565b80156115b75780601f1061158c576101008083540402835291602001916115b7565b820191906000526020600020905b81548152906001019060200180831161159a57829003601f168201915b5050505050908060020180546115cc90614023565b80601f01602080910402602001604051908101604052809291908181526020018280546115f890614023565b80156116455780601f1061161a57610100808354040283529160200191611645565b820191906000526020600020905b81548152906001019060200180831161162857829003601f168201915b5050505050908060030154908060040154908060050160009054906101000a900460ff16908060050160019054906101000a900473ffffffffffffffffffffffffffffffffffffffff16908060060154908060070154908060080180546116ab90614023565b80601f01602080910402602001604051908101604052809291908181526020018280546116d790614023565b80156117245780601f106116f957610100808354040283529160200191611724565b820191906000526020600020905b81548152906001019060200180831161170757829003601f168201915b50505050509080600901805461173990614023565b80601f016020809104026020016040519081016040528092919081815260200182805461176590614023565b80156117b25780601f10611787576101008083540402835291602001916117b2565b820191906000526020600020905b81548152906001019060200180831161179557829003601f168201915b50505050509080600a0180546117c790614023565b80601f01602080910402602001604051908101604052809291908181526020018280546117f390614023565b80156118405780601f1061181557610100808354040283529160200191611840565b820191906000526020600020905b81548152906001019060200180831161182357829003601f168201915b505050505090508c565b808060008083815260200190815260200160002060000154146118a2576040517f08c379a00000000000000000000000000000000000000000000000000000000081526004016118999061417a565b60405180910390fd5b813373ffffffffffffffffffffffffffffffffffffffff1660008083815260200190815260200160002060050160019054906101000a900473ffffffffffffffffffffffffffffffffffffffff1673ffffffffffffffffffffffffffffffffffffffff1614611946576040517f08c379a000000000000000000000000000000000000000000000000000000000815260040161193d90614494565b60405180910390fd5b60008084815260200190815260200160002060050160009054906101000a900460ff166119a8576040517f08c379a000000000000000000000000000000000000000000000000000000000815260040161199f90614500565b60405180910390fd5b600080600085815260200190815260200160002060050160006101000a81548160ff0219169083151502179055506040518060400160405280600581526020017f656e646564000000000000000000000000000000000000000000000000000000815250600080858152602001908152602001600020600a019081611a2d91906146cc565b50827fe12e0241ed3b6bb5b8b9e5b0c487661a72158d47e347fa539ef01a1fafcb3a3d60405160405180910390a2505050565b600080895111611aa5576040517f08c379a0000000000000000000000000000000000000000000000000000000008152600401611a9c906147ea565b60405180910390fd5b6000885111611ae9576040517f08c379a0000000000000000000000000000000000000000000000000000000008152600401611ae090614856565b60405180910390fd5b6000835111611b2d576040517f08c379a0000000000000000000000000000000000000000000000000000000008152600401611b24906148c2565b60405180910390fd5b6000825111611b71576040517f08c379a0000000000000000000000000000000000000000000000000000000008152600401611b689061492e565b60405180910390fd5b42861015611b7e876130a5565b611b87426130a5565b604051602001611b98929190614a48565b60405160208183030381529060405290611be8576040517f08c379a0000000000000000000000000000000000000000000000000000000008152600401611bdf9190614a82565b60405180910390fd5b50858511611bf5876130a5565b611bfe876130a5565b604051602001611c0f929190614b62565b60405160208183030381529060405290611c5f576040517f08c379a0000000000000000000000000000000000000000000000000000000008152600401611c569190614a82565b60405180910390fd5b50600287511015611ca5576040517f08c379a0000000000000000000000000000000000000000000000000000000008152600401611c9c90614be8565b60405180910390fd5b60008411611ce8576040517f08c379a0000000000000000000000000000000000000000000000000000000008152600401611cdf90614c7a565b60405180910390fd5b6103e8841115611d2d576040517f08c379a0000000000000000000000000000000000000000000000000000000008152600401611d2490614d0c565b60405180910390fd5b60005b8751811015611dcf576000888281518110611d4e57611d4d6140b7565b5b60200260200101515111611d61826130a5565b604051602001611d719190614dc4565b60405160208183030381529060405290611dc1576040517f08c379a0000000000000000000000000000000000000000000000000000000008152600401611db89190614a82565b60405180910390fd5b508080600101915050611d30565b5060046000815480929190611de3906140e6565b9190505550600060045490506040518061018001604052808281526020018b81526020018a81526020018881526020018781526020016001151581526020013373ffffffffffffffffffffffffffffffffffffffff168152602001868152602001600081526020018581526020018481526020016040518060400160405280600381526020017f6e65770000000000000000000000000000000000000000000000000000000000815250815250600080838152602001908152602001600020600082015181600001556020820151816001019081611ec191906146cc565b506040820151816002019081611ed791906146cc565b50606082015181600301556080820151816004015560a08201518160050160006101000a81548160ff02191690831515021790555060c08201518160050160016101000a81548173ffffffffffffffffffffffffffffffffffffffff021916908373ffffffffffffffffffffffffffffffffffffffff16021790555060e082015181600601556101008201518160070155610120820151816008019081611f7e91906146cc565b50610140820151816009019081611f9591906146cc565b5061016082015181600a019081611fac91906146cc565b5090505060005b88518110156120505760405180606001604052808281526020018a8381518110611fe057611fdf6140b7565b5b60200260200101518152602001600081525060016000848152602001908152602001600020600083815260200190815260200160002060008201518160000155602082015181600101908161203591906146cc565b50604082015181600201559050508080600101915050611fb3565b5087516003600083815260200190815260200160002081905550807f0b0eb434b18eb3f0d02f9b4b01d92bf397c2fde355b0b3fad98aa2a5ffd63c2c8b3360405161209c929190614df1565b60405180910390a28091505098975050505050505050565b6000600454905090565b6002602052816000526040600020602052806000526040600020600091509150508060000160009054906101000a900460ff16908060010154905082565b60608082806000808381526020019081526020016000206000015414612157576040517f08c379a000000000000000000000000000000000000000000000000000000000815260040161214e9061417a565b60405180910390fd5b6000600360008681526020019081526020016000205490508067ffffffffffffffff81111561218957612188613a35565b5b6040519080825280602002602001820160405280156121bc57816020015b60608152602001906001900390816121a75790505b5093508067ffffffffffffffff8111156121d9576121d8613a35565b5b6040519080825280602002602001820160405280156122075781602001602082028036833780820191505090505b50925060005b818110156123435760006001600088815260200190815260200160002060008381526020019081526020016000206040518060600160405290816000820154815260200160018201805461226090614023565b80601f016020809104026020016040519081016040528092919081815260200182805461228c90614023565b80156122d95780601f106122ae576101008083540402835291602001916122d9565b820191906000526020600020905b8154815290600101906020018083116122bc57829003601f168201915b5050505050815260200160028201548152505090508060200151868381518110612306576123056140b7565b5b60200260200101819052508060400151858381518110612329576123286140b7565b5b60200260200101818152505050808060010191505061220d565b505050915091565b60036020528060005260406000206000915090505481565b60006002600084815260200190815260200160002060008373ffffffffffffffffffffffffffffffffffffffff1673ffffffffffffffffffffffffffffffffffffffff16815260200190815260200160002060000160009054906101000a900460ff16905092915050565b606080606080600060045490508067ffffffffffffffff8111156123f5576123f4613a35565b5b6040519080825280602002602001820160405280156124235781602001602082028036833780820191505090505b5094508067ffffffffffffffff8111156124405761243f613a35565b5b60405190808252806020026020018201604052801561247357816020015b606081526020019060019003908161245e5790505b5093508067ffffffffffffffff8111156124905761248f613a35565b5b6040519080825280602002602001820160405280156124c357816020015b60608152602001906001900390816124ae5790505b5092508067ffffffffffffffff8111156124e0576124df613a35565b5b60405190808252806020026020018201604052801561251357816020015b60608152602001906001900390816124fe5790505b5091506000600190505b818111612987576000806000838152602001908152602001600020604051806101800160405290816000820154815260200160018201805461255e90614023565b80601f016020809104026020016040519081016040528092919081815260200182805461258a90614023565b80156125d75780601f106125ac576101008083540402835291602001916125d7565b820191906000526020600020905b8154815290600101906020018083116125ba57829003601f168201915b505050505081526020016002820180546125f090614023565b80601f016020809104026020016040519081016040528092919081815260200182805461261c90614023565b80156126695780601f1061263e57610100808354040283529160200191612669565b820191906000526020600020905b81548152906001019060200180831161264c57829003601f168201915b5050505050815260200160038201548152602001600482015481526020016005820160009054906101000a900460ff161515151581526020016005820160019054906101000a900473ffffffffffffffffffffffffffffffffffffffff1673ffffffffffffffffffffffffffffffffffffffff1673ffffffffffffffffffffffffffffffffffffffff168152602001600682015481526020016007820154815260200160088201805461271b90614023565b80601f016020809104026020016040519081016040528092919081815260200182805461274790614023565b80156127945780601f1061276957610100808354040283529160200191612794565b820191906000526020600020905b81548152906001019060200180831161277757829003601f168201915b505050505081526020016009820180546127ad90614023565b80601f01602080910402602001604051908101604052809291908181526020018280546127d990614023565b80156128265780601f106127fb57610100808354040283529160200191612826565b820191906000526020600020905b81548152906001019060200180831161280957829003601f168201915b50505050508152602001600a8201805461283f90614023565b80601f016020809104026020016040519081016040528092919081815260200182805461286b90614023565b80156128b85780601f1061288d576101008083540402835291602001916128b8565b820191906000526020600020905b81548152906001019060200180831161289b57829003601f168201915b505050505081525050905060008160000151146129735760006001836128de9190614083565b90508161010001518882815181106128f9576128f86140b7565b5b60200260200101818152505081610120015187828151811061291e5761291d6140b7565b5b6020026020010181905250816101400151868281518110612942576129416140b7565b5b6020026020010181905250816101600151858281518110612966576129656140b7565b5b6020026020010181905250505b50808061297f906140e6565b91505061251d565b505090919293565b606060006003600084815260200190815260200160002054905060008167ffffffffffffffff8111156129c5576129c4613a35565b5b6040519080825280602002602001820160405280156129f857816020015b60608152602001906001900390816129e35790505b50905060005b82811015612ae1576001600086815260200190815260200160002060008281526020019081526020016000206001018054612a3890614023565b80601f0160208091040260200160405190810160405280929190818152602001828054612a6490614023565b8015612ab15780601f10612a8657610100808354040283529160200191612ab1565b820191906000526020600020905b815481529060010190602001808311612a9457829003601f168201915b5050505050828281518110612ac957612ac86140b7565b5b602002602001018190525080806001019150506129fe565b508092505050919050565b606080606080600060045490508067ffffffffffffffff811115612b1357612b12613a35565b5b604051908082528060200260200182016040528015612b415781602001602082028036833780820191505090505b5094508067ffffffffffffffff811115612b5e57612b5d613a35565b5b604051908082528060200260200182016040528015612b9157816020015b6060815260200190600190039081612b7c5790505b5093508067ffffffffffffffff811115612bae57612bad613a35565b5b604051908082528060200260200182016040528015612be157816020015b6060815260200190600190039081612bcc5790505b5092508067ffffffffffffffff811115612bfe57612bfd613a35565b5b604051908082528060200260200182016040528015612c2c5781602001602082028036833780820191505090505b5091506000600190505b81811161309d5760008060008381526020019081526020016000206040518061018001604052908160008201548152602001600182018054612c7790614023565b80601f0160208091040260200160405190810160405280929190818152602001828054612ca390614023565b8015612cf05780601f10612cc557610100808354040283529160200191612cf0565b820191906000526020600020905b815481529060010190602001808311612cd357829003601f168201915b50505050508152602001600282018054612d0990614023565b80601f0160208091040260200160405190810160405280929190818152602001828054612d3590614023565b8015612d825780601f10612d5757610100808354040283529160200191612d82565b820191906000526020600020905b815481529060010190602001808311612d6557829003601f168201915b5050505050815260200160038201548152602001600482015481526020016005820160009054906101000a900460ff161515151581526020016005820160019054906101000a900473ffffffffffffffffffffffffffffffffffffffff1673ffffffffffffffffffffffffffffffffffffffff1673ffffffffffffffffffffffffffffffffffffffff1681526020016006820154815260200160078201548152602001600882018054612e3490614023565b80601f0160208091040260200160405190810160405280929190818152602001828054612e6090614023565b8015612ead5780601f10612e8257610100808354040283529160200191612ead565b820191906000526020600020905b815481529060010190602001808311612e9057829003601f168201915b50505050508152602001600982018054612ec690614023565b80601f0160208091040260200160405190810160405280929190818152602001828054612ef290614023565b8015612f3f5780601f10612f1457610100808354040283529160200191612f3f565b820191906000526020600020905b815481529060010190602001808311612f2257829003601f168201915b50505050508152602001600a82018054612f5890614023565b80601f0160208091040260200160405190810160405280929190818152602001828054612f8490614023565b8015612fd15780601f10612fa657610100808354040283529160200191612fd1565b820191906000526020600020905b815481529060010190602001808311612fb457829003601f168201915b50505050508152505090506000816000015114613089576000600183612ff79190614083565b90508160000151888281518110613011576130106140b7565b5b6020026020010181815250508160200151878281518110613035576130346140b7565b5b60200260200101819052508160400151868281518110613058576130576140b7565b5b6020026020010181905250816060015185828151811061307b5761307a6140b7565b5b602002602001018181525050505b508080613095906140e6565b915050612c36565b505090919293565b6060600082036130ec576040518060400160405280600181526020017f30000000000000000000000000000000000000000000000000000000000000008152509050613200565b600082905060005b6000821461311e578080613107906140e6565b915050600a826131179190614e50565b91506130f4565b60008167ffffffffffffffff81111561313a57613139613a35565b5b6040519080825280601f01601f19166020018201604052801561316c5781602001600182028036833780820191505090505b5090505b600085146131f9576001826131859190614083565b9150600a856131949190614e81565b60306131a09190614eb2565b60f81b8183815181106131b6576131b56140b7565b5b60200101907effffffffffffffffffffffffffffffffffffffffffffffffffffffffffffff1916908160001a905350600a856131f29190614e50565b9450613170565b8093505050505b919050565b600081519050919050565b600082825260208201905092915050565b6000819050602082019050919050565b6000819050919050565b61324481613231565b82525050565b6000613256838361323b565b60208301905092915050565b6000602082019050919050565b600061327a82613205565b6132848185613210565b935061328f83613221565b8060005b838110156132c05781516132a7888261324a565b97506132b283613262565b925050600181019050613293565b5085935050505092915050565b600081519050919050565b600082825260208201905092915050565b6000819050602082019050919050565b60008115159050919050565b61330e816132f9565b82525050565b60006133208383613305565b60208301905092915050565b6000602082019050919050565b6000613344826132cd565b61334e81856132d8565b9350613359836132e9565b8060005b8381101561338a5781516133718882613314565b975061337c8361332c565b92505060018101905061335d565b5085935050505092915050565b600081519050919050565b600082825260208201905092915050565b6000819050602082019050919050565b600073ffffffffffffffffffffffffffffffffffffffff82169050919050565b60006133ee826133c3565b9050919050565b6133fe816133e3565b82525050565b600061341083836133f5565b60208301905092915050565b6000602082019050919050565b600061343482613397565b61343e81856133a2565b9350613449836133b3565b8060005b8381101561347a5781516134618882613404565b975061346c8361341c565b92505060018101905061344d565b5085935050505092915050565b600060808201905081810360008301526134a1818761326f565b905081810360208301526134b58186613339565b905081810360408301526134c98185613429565b905081810360608301526134dd818461326f565b905095945050505050565b6000604051905090565b600080fd5b600080fd5b61350581613231565b811461351057600080fd5b50565b600081359050613522816134fc565b92915050565b6000806040838503121561353f5761353e6134f2565b5b600061354d85828601613513565b925050602061355e85828601613513565b9150509250929050565b61357181613231565b82525050565b600081519050919050565b600082825260208201905092915050565b60005b838110156135b1578082015181840152602081019050613596565b60008484015250505050565b6000601f19601f8301169050919050565b60006135d982613577565b6135e38185613582565b93506135f3818560208601613593565b6135fc816135bd565b840191505092915050565b600060608201905061361c6000830186613568565b818103602083015261362e81856135ce565b905061363d6040830184613568565b949350505050565b600081519050919050565b600082825260208201905092915050565b6000819050602082019050919050565b600081519050919050565b600082825260208201905092915050565b6000819050602082019050919050565b600082825260208201905092915050565b60006136b982613577565b6136c3818561369d565b93506136d3818560208601613593565b6136dc816135bd565b840191505092915050565b60006136f383836136ae565b905092915050565b6000602082019050919050565b600061371382613671565b61371d818561367c565b93508360208202850161372f8561368d565b8060005b8581101561376b578484038952815161374c85826136e7565b9450613757836136fb565b925060208a01995050600181019050613733565b50829750879550505050505092915050565b60006137898383613708565b905092915050565b6000602082019050919050565b60006137a982613645565b6137b38185613650565b9350836020820285016137c585613661565b8060005b8581101561380157848403895281516137e2858261377d565b94506137ed83613791565b925060208a019950506001810190506137c9565b50829750879550505050505092915050565b6000602082019050818103600083015261382d818461379e565b905092915050565b60006020828403121561384b5761384a6134f2565b5b600061385984828501613513565b91505092915050565b61386b816132f9565b82525050565b61387a816133e3565b82525050565b600061016082019050818103600083015261389b818e6135ce565b905081810360208301526138af818d6135ce565b90506138be604083018c613568565b6138cb606083018b613568565b6138d8608083018a613862565b6138e560a0830189613871565b6138f260c0830188613568565b6138ff60e0830187613568565b81810361010083015261391281866135ce565b905081810361012083015261392781856135ce565b905081810361014083015261393c81846135ce565b90509c9b505050505050505050505050565b600061018082019050613964600083018f613568565b8181036020830152613976818e6135ce565b9050818103604083015261398a818d6135ce565b9050613999606083018c613568565b6139a6608083018b613568565b6139b360a083018a613862565b6139c060c0830189613871565b6139cd60e0830188613568565b6139db610100830187613568565b8181036101208301526139ee81866135ce565b9050818103610140830152613a0381856135ce565b9050818103610160830152613a1881846135ce565b90509d9c50505050505050505050505050565b600080fd5b600080fd5b7f4e487b7100000000000000000000000000000000000000000000000000000000600052604160045260246000fd5b613a6d826135bd565b810181811067ffffffffffffffff82111715613a8c57613a8b613a35565b5b80604052505050565b6000613a9f6134e8565b9050613aab8282613a64565b919050565b600067ffffffffffffffff821115613acb57613aca613a35565b5b613ad4826135bd565b9050602081019050919050565b82818337600083830152505050565b6000613b03613afe84613ab0565b613a95565b905082815260208101848484011115613b1f57613b1e613a30565b5b613b2a848285613ae1565b509392505050565b600082601f830112613b4757613b46613a2b565b5b8135613b57848260208601613af0565b91505092915050565b600067ffffffffffffffff821115613b7b57613b7a613a35565b5b602082029050602081019050919050565b600080fd5b6000613ba4613b9f84613b60565b613a95565b90508083825260208201905060208402830185811115613bc757613bc6613b8c565b5b835b81811015613c0e57803567ffffffffffffffff811115613bec57613beb613a2b565b5b808601613bf98982613b32565b85526020850194505050602081019050613bc9565b5050509392505050565b600082601f830112613c2d57613c2c613a2b565b5b8135613c3d848260208601613b91565b91505092915050565b600080600080600080600080610100898b031215613c6757613c666134f2565b5b600089013567ffffffffffffffff811115613c8557613c846134f7565b5b613c918b828c01613b32565b985050602089013567ffffffffffffffff811115613cb257613cb16134f7565b5b613cbe8b828c01613b32565b975050604089013567ffffffffffffffff811115613cdf57613cde6134f7565b5b613ceb8b828c01613c18565b9650506060613cfc8b828c01613513565b9550506080613d0d8b828c01613513565b94505060a0613d1e8b828c01613513565b93505060c089013567ffffffffffffffff811115613d3f57613d3e6134f7565b5b613d4b8b828c01613b32565b92505060e089013567ffffffffffffffff811115613d6c57613d6b6134f7565b5b613d788b828c01613b32565b9150509295985092959890939650565b6000602082019050613d9d6000830184613568565b92915050565b613dac816133e3565b8114613db757600080fd5b50565b600081359050613dc981613da3565b92915050565b60008060408385031215613de657613de56134f2565b5b6000613df485828601613513565b9250506020613e0585828601613dba565b9150509250929050565b6000604082019050613e246000830185613862565b613e316020830184613568565b9392505050565b600082825260208201905092915050565b6000613e5482613671565b613e5e8185613e38565b935083602082028501613e708561368d565b8060005b85811015613eac5784840389528151613e8d85826136e7565b9450613e98836136fb565b925060208a01995050600181019050613e74565b50829750879550505050505092915050565b60006040820190508181036000830152613ed88185613e49565b90508181036020830152613eec818461326f565b90509392505050565b6000602082019050613f0a6000830184613862565b92915050565b60006080820190508181036000830152613f2a818761326f565b90508181036020830152613f3e8186613e49565b90508181036040830152613f528185613e49565b90508181036060830152613f668184613e49565b905095945050505050565b60006020820190508181036000830152613f8b8184613e49565b905092915050565b60006080820190508181036000830152613fad818761326f565b90508181036020830152613fc18186613e49565b90508181036040830152613fd58185613e49565b90508181036060830152613fe9818461326f565b905095945050505050565b7f4e487b7100000000000000000000000000000000000000000000000000000000600052602260045260246000fd5b6000600282049050600182168061403b57607f821691505b60208210810361404e5761404d613ff4565b5b50919050565b7f4e487b7100000000000000000000000000000000000000000000000000000000600052601160045260246000fd5b600061408e82613231565b915061409983613231565b92508282039050818111156140b1576140b0614054565b5b92915050565b7f4e487b7100000000000000000000000000000000000000000000000000000000600052603260045260246000fd5b60006140f182613231565b91507fffffffffffffffffffffffffffffffffffffffffffffffffffffffffffffffff820361412357614122614054565b5b600182019050919050565b7f566f746520646f6573206e6f7420657869737400000000000000000000000000600082015250565b6000614164601383613582565b915061416f8261412e565b602082019050919050565b6000602082019050818103600083015261419381614157565b9050919050565b7f566f7465206973206e6f74206163746976650000000000000000000000000000600082015250565b60006141d0601283613582565b91506141db8261419a565b602082019050919050565b600060208201905081810360008301526141ff816141c3565b9050919050565b7f566f746520686173206e6f742073746172746564000000000000000000000000600082015250565b600061423c601483613582565b915061424782614206565b602082019050919050565b6000602082019050818103600083015261426b8161422f565b9050919050565b7f566f74652068617320656e646564000000000000000000000000000000000000600082015250565b60006142a8600e83613582565b91506142b382614272565b602082019050919050565b600060208201905081810360008301526142d78161429b565b9050919050565b7f416c726561647920766f74656400000000000000000000000000000000000000600082015250565b6000614314600d83613582565b915061431f826142de565b602082019050919050565b6000602082019050818103600083015261434381614307565b9050919050565b7f496e76616c6964206f7074696f6e000000000000000000000000000000000000600082015250565b6000614380600e83613582565b915061438b8261434a565b602082019050919050565b600060208201905081810360008301526143af81614373565b9050919050565b7f4d6178696d756d207061727469636970616e7473207265616368656400000000600082015250565b60006143ec601c83613582565b91506143f7826143b6565b602082019050919050565b6000602082019050818103600083015261441b816143df565b9050919050565b7f4f6e6c792063726561746f722063616e20706572666f726d207468697320616360008201527f74696f6e00000000000000000000000000000000000000000000000000000000602082015250565b600061447e602483613582565b915061448982614422565b604082019050919050565b600060208201905081810360008301526144ad81614471565b9050919050565b7f566f746520616c726561647920656e6465640000000000000000000000000000600082015250565b60006144ea601283613582565b91506144f5826144b4565b602082019050919050565b60006020820190508181036000830152614519816144dd565b9050919050565b60008190508160005260206000209050919050565b60006020601f8301049050919050565b600082821b905092915050565b6000600883026145827fffffffffffffffffffffffffffffffffffffffffffffffffffffffffffffffff82614545565b61458c8683614545565b95508019841693508086168417925050509392505050565b6000819050919050565b60006145c96145c46145bf84613231565b6145a4565b613231565b9050919050565b6000819050919050565b6145e3836145ae565b6145f76145ef826145d0565b848454614552565b825550505050565b600090565b61460c6145ff565b6146178184846145da565b505050565b5b8181101561463b57614630600082614604565b60018101905061461d565b5050565b601f8211156146805761465181614520565b61465a84614535565b81016020851015614669578190505b61467d61467585614535565b83018261461c565b50505b505050565b600082821c905092915050565b60006146a360001984600802614685565b1980831691505092915050565b60006146bc8383614692565b9150826002028217905092915050565b6146d582613577565b67ffffffffffffffff8111156146ee576146ed613a35565b5b6146f88254614023565b61470382828561463f565b600060209050601f8311600181146147365760008415614724578287015190505b61472e85826146b0565b865550614796565b601f19841661474486614520565b60005b8281101561476c57848901518255600182019150602085019450602081019050614747565b868310156147895784890151614785601f891682614692565b8355505b6001600288020188555050505b505050505050565b7f5469746c652063616e6e6f7420626520656d7074790000000000000000000000600082015250565b60006147d4601583613582565b91506147df8261479e565b602082019050919050565b60006020820190508181036000830152614803816147c7565b9050919050565b7f4465736372697074696f6e2063616e6e6f7420626520656d7074790000000000600082015250565b6000614840601b83613582565b915061484b8261480a565b602082019050919050565b6000602082019050818103600083015261486f81614833565b9050919050565b7f526f6f6d206e616d652063616e6e6f7420626520656d70747900000000000000600082015250565b60006148ac601983613582565b91506148b782614876565b602082019050919050565b600060208201905081810360008301526148db8161489f565b9050919050565b7f41636365737320636f64652063616e6e6f7420626520656d7074790000000000600082015250565b6000614918601b83613582565b9150614923826148e2565b602082019050919050565b600060208201905081810360008301526149478161490b565b9050919050565b600081905092915050565b7f53746172742074696d65206d75737420626520696e207468652066757475726560008201527f2e20476976656e3a200000000000000000000000000000000000000000000000602082015250565b60006149b560298361494e565b91506149c082614959565b602982019050919050565b60006149d682613577565b6149e0818561494e565b93506149f0818560208601613593565b80840191505092915050565b7f2c2043757272656e743a20000000000000000000000000000000000000000000600082015250565b6000614a32600b8361494e565b9150614a3d826149fc565b600b82019050919050565b6000614a53826149a8565b9150614a5f82856149cb565b9150614a6a82614a25565b9150614a7682846149cb565b91508190509392505050565b60006020820190508181036000830152614a9c81846135ce565b905092915050565b7f456e642074696d65206d7573742062652061667465722073746172742074696d60008201527f652e2053746172743a2000000000000000000000000000000000000000000000602082015250565b6000614b00602a8361494e565b9150614b0b82614aa4565b602a82019050919050565b7f2c20456e643a2000000000000000000000000000000000000000000000000000600082015250565b6000614b4c60078361494e565b9150614b5782614b16565b600782019050919050565b6000614b6d82614af3565b9150614b7982856149cb565b9150614b8482614b3f565b9150614b9082846149cb565b91508190509392505050565b7f4d7573742068617665206174206c656173742032206f7074696f6e7300000000600082015250565b6000614bd2601c83613582565b9150614bdd82614b9c565b602082019050919050565b60006020820190508181036000830152614c0181614bc5565b9050919050565b7f4d6178207061727469636970616e7473206d757374206265206772656174657260008201527f207468616e203000000000000000000000000000000000000000000000000000602082015250565b6000614c64602783613582565b9150614c6f82614c08565b604082019050919050565b60006020820190508181036000830152614c9381614c57565b9050919050565b7f4d6178207061727469636970616e74732063616e6e6f7420657863656564203160008201527f3030300000000000000000000000000000000000000000000000000000000000602082015250565b6000614cf6602383613582565b9150614d0182614c9a565b604082019050919050565b60006020820190508181036000830152614d2581614ce9565b9050919050565b7f4f7074696f6e206e616d6520617420696e646578200000000000000000000000600082015250565b6000614d6260158361494e565b9150614d6d82614d2c565b601582019050919050565b7f2063616e6e6f7420626520656d70747900000000000000000000000000000000600082015250565b6000614dae60108361494e565b9150614db982614d78565b601082019050919050565b6000614dcf82614d55565b9150614ddb82846149cb565b9150614de682614da1565b915081905092915050565b60006040820190508181036000830152614e0b81856135ce565b9050614e1a6020830184613871565b9392505050565b7f4e487b7100000000000000000000000000000000000000000000000000000000600052601260045260246000fd5b6000614e5b82613231565b9150614e6683613231565b925082614e7657614e75614e21565b5b828204905092915050565b6000614e8c82613231565b9150614e9783613231565b925082614ea757614ea6614e21565b5b828206905092915050565b6000614ebd82613231565b9150614ec883613231565b9250828201905080821115614ee057614edf614054565b5b9291505056fea264697066735822122004c082c88a2ac8cb9b30fea818a66b5750cbc9dc39bb5919e6e8e5a79d71dc4364736f6c63430008180033",
  "linkReferences": {},
  "deployedLinkReferences": {}
}