{
  "_format": "hh-sol-artifact-1",
  "contractName": "VotingSystem",
  "sourceName": "contracts/vote.sol",
  "abi": [
    {
      "anonymous": false,
      "inputs": [
        {
          "indexed": true,
          "internalType": "uint256",
          "name": "voteId",
          "type": "uint256"
        },
        {
          "indexed": true,
          "internalType": "address",
          "name": "voter",
          "type": "address"
        },
        {
          "indexed": false,
          "internalType": "uint256",
          "name": "optionId",
          "type": "uint256"
        }
      ],
      "name": "VoteCast",
      "type": "event"
    },
    {
      "anonymous": false,
      "inputs": [
        {
          "indexed": true,
          "internalType": "uint256",
          "name": "voteId",
          "type": "uint256"
        },
        {
          "indexed": false,
          "internalType": "string",
          "name": "title",
          "type": "string"
        },
        {
          "indexed": false,
          "internalType": "address",
          "name": "creator",
          "type": "address"
        }
      ],
      "name": "VoteCreated",
      "type": "event"
    },
    {
      "anonymous": false,
      "inputs": [
        {
          "indexed": true,
          "internalType": "uint256",
          "name": "voteId",
          "type": "uint256"
        }
      ],
      "name": "VoteEnded",
      "type": "event"
    },
    {
      "inputs": [
        {
          "internalType": "uint256",
          "name": "_voteId",
          "type": "uint256"
        },
        {
          "internalType": "uint256",
          "name": "_optionId",
          "type": "uint256"
        }
      ],
      "name": "castVote",
      "outputs": [],
      "stateMutability": "nonpayable",
      "type": "function"
    },
    {
      "inputs": [
        {
          "internalType": "string",
          "name": "_title",
          "type": "string"
        },
        {
          "internalType": "string",
          "name": "_description",
          "type": "string"
        },
        {
          "internalType": "string[]",
          "name": "_optionNames",
          "type": "string[]"
        },
        {
          "internalType": "uint256",
          "name": "_startTime",
          "type": "uint256"
        },
        {
          "internalType": "uint256",
          "name": "_endTime",
          "type": "uint256"
        },
        {
          "internalType": "uint256",
          "name": "_maxParticipants",
          "type": "uint256"
        },
        {
          "internalType": "string",
          "name": "_roomName",
          "type": "string"
        },
        {
          "internalType": "string",
          "name": "_accessCode",
          "type": "string"
        }
      ],
      "name": "createVote",
      "outputs": [
        {
          "internalType": "uint256",
          "name": "",
          "type": "uint256"
        }
      ],
      "stateMutability": "nonpayable",
      "type": "function"
    },
    {
      "inputs": [
        {
          "internalType": "uint256",
          "name": "_voteId",
          "type": "uint256"
        }
      ],
      "name": "endVote",
      "outputs": [],
      "stateMutability": "nonpayable",
      "type": "function"
    },
    {
      "inputs": [],
      "name": "getAllVotes",
      "outputs": [
        {
          "internalType": "uint256[]",
          "name": "voteIds",
          "type": "uint256[]"
        },
        {
          "internalType": "string[]",
          "name": "titles",
          "type": "string[]"
        },
        {
          "internalType": "string[]",
          "name": "descriptions",
          "type": "string[]"
        },
        {
          "internalType": "uint256[]",
          "name": "startTimes",
          "type": "uint256[]"
        },
        {
          "internalType": "uint256[]",
          "name": "endTimes",
          "type": "uint256[]"
        },
        {
          "internalType": "bool[]",
          "name": "isActives",
          "type": "bool[]"
        },
        {
          "internalType": "address[]",
          "name": "creators",
          "type": "address[]"
        },
        {
          "internalType": "uint256[]",
          "name": "maxParticipants",
          "type": "uint256[]"
        },
        {
          "internalType": "uint256[]",
          "name": "currentParticipants",
          "type": "uint256[]"
        },
        {
          "internalType": "string[]",
          "name": "roomNames",
          "type": "string[]"
        },
        {
          "internalType": "string[]",
          "name": "accessCodes",
          "type": "string[]"
        },
        {
          "internalType": "string[]",
          "name": "statuses",
          "type": "string[]"
        }
      ],
      "stateMutability": "view",
      "type": "function"
    },
    {
      "inputs": [
        {
          "internalType": "uint256",
          "name": "_voteId",
          "type": "uint256"
        }
      ],
      "name": "getVoteDetails",
      "outputs": [
        {
          "internalType": "string",
          "name": "title",
          "type": "string"
        },
        {
          "internalType": "string",
          "name": "description",
          "type": "string"
        },
        {
          "internalType": "uint256",
          "name": "startTime",
          "type": "uint256"
        },
        {
          "internalType": "uint256",
          "name": "endTime",
          "type": "uint256"
        },
        {
          "internalType": "bool",
          "name": "isActive",
          "type": "bool"
        },
        {
          "internalType": "address",
          "name": "creator",
          "type": "address"
        },
        {
          "internalType": "uint256",
          "name": "maxParticipants",
          "type": "uint256"
        },
        {
          "internalType": "uint256",
          "name": "currentParticipants",
          "type": "uint256"
        },
        {
          "internalType": "string",
          "name": "roomName",
          "type": "string"
        },
        {
          "internalType": "string",
          "name": "accessCode",
          "type": "string"
        },
        {
          "internalType": "string",
          "name": "status",
          "type": "string"
        }
      ],
      "stateMutability": "view",
      "type": "function"
    },
    {
      "inputs": [
        {
          "internalType": "uint256",
          "name": "_voteId",
          "type": "uint256"
        }
      ],
      "name": "getVoteResults",
      "outputs": [
        {
          "internalType": "string[]",
          "name": "names",
          "type": "string[]"
        },
        {
          "internalType": "uint256[]",
          "name": "counts",
          "type": "uint256[]"
        }
      ],
      "stateMutability": "view",
      "type": "function"
    },
    {
      "inputs": [
        {
          "internalType": "uint256",
          "name": "_voteId",
          "type": "uint256"
        },
        {
          "internalType": "address",
          "name": "_voter",
          "type": "address"
        }
      ],
      "name": "hasUserVoted",
      "outputs": [
        {
          "internalType": "bool",
          "name": "",
          "type": "bool"
        }
      ],
      "stateMutability": "view",
      "type": "function"
    },
    {
      "inputs": [
        {
          "internalType": "uint256",
          "name": "",
          "type": "uint256"
        }
      ],
      "name": "optionCounts",
      "outputs": [
        {
          "internalType": "uint256",
          "name": "",
          "type": "uint256"
        }
      ],
      "stateMutability": "view",
      "type": "function"
    },
    {
      "inputs": [
        {
          "internalType": "uint256",
          "name": "",
          "type": "uint256"
        },
        {
          "internalType": "uint256",
          "name": "",
          "type": "uint256"
        }
      ],
      "name": "voteOptions",
      "outputs": [
        {
          "internalType": "uint256",
          "name": "id",
          "type": "uint256"
        },
        {
          "internalType": "string",
          "name": "name",
          "type": "string"
        },
        {
          "internalType": "uint256",
          "name": "voteCount",
          "type": "uint256"
        }
      ],
      "stateMutability": "view",
      "type": "function"
    },
    {
      "inputs": [
        {
          "internalType": "uint256",
          "name": "",
          "type": "uint256"
        },
        {
          "internalType": "address",
          "name": "",
          "type": "address"
        }
      ],
      "name": "voters",
      "outputs": [
        {
          "internalType": "bool",
          "name": "hasVoted",
          "type": "bool"
        },
        {
          "internalType": "uint256",
          "name": "votedOptionId",
          "type": "uint256"
        }
      ],
      "stateMutability": "view",
      "type": "function"
    },
    {
      "inputs": [
        {
          "internalType": "uint256",
          "name": "",
          "type": "uint256"
        }
      ],
      "name": "votes",
      "outputs": [
        {
          "internalType": "uint256",
          "name": "id",
          "type": "uint256"
        },
        {
          "internalType": "string",
          "name": "title",
          "type": "string"
        },
        {
          "internalType": "string",
          "name": "description",
          "type": "string"
        },
        {
          "internalType": "uint256",
          "name": "startTime",
          "type": "uint256"
        },
        {
          "internalType": "uint256",
          "name": "endTime",
          "type": "uint256"
        },
        {
          "internalType": "bool",
          "name": "isActive",
          "type": "bool"
        },
        {
          "internalType": "address",
          "name": "creator",
          "type": "address"
        },
        {
          "internalType": "uint256",
          "name": "maxParticipants",
          "type": "uint256"
        },
        {
          "internalType": "uint256",
          "name": "currentParticipants",
          "type": "uint256"
        },
        {
          "internalType": "string",
          "name": "roomName",
          "type": "string"
        },
        {
          "internalType": "string",
          "name": "accessCode",
          "type": "string"
        },
        {
          "internalType": "string",
          "name": "status",
          "type": "string"
        }
      ],
      "stateMutability": "view",
      "type": "function"
    }
  ],
  "bytecode": "0x608060405234801561001057600080fd5b5061417e806100206000396000f3fe608060405234801561001057600080fd5b50600436106100a95760003560e01c8063865df0ad11610071578063865df0ad1461019a5780638c1bdbae146101b65780639e319063146101e6578063a88922b314610217578063b0d2616814610248578063dc296ae114610278576100a9565b80632c0a3f89146100ae5780633c4f5500146100ca57806354a1b431146100fc5780635df8133014610136578063851b6ef214610171575b600080fd5b6100c860048036038101906100c39190612652565b6102a8565b005b6100e460048036038101906100df9190612652565b6106c9565b6040516100f393929190612731565b60405180910390f35b6101166004803603810190610111919061276f565b610788565b60405161012d9b9a999897969594939291906127f8565b60405180910390f35b610150600480360381019061014b919061276f565b610bf2565b6040516101689c9b9a999897969594939291906128c6565b60405180910390f35b610179610f27565b6040516101919c9b9a99989796959493929190612ce9565b60405180910390f35b6101b460048036038101906101af919061276f565b61192e565b005b6101d060048036038101906101cb9190613012565b611b44565b6040516101dd9190613154565b60405180910390f35b61020060048036038101906101fb919061319b565b612198565b60405161020e9291906131db565b60405180910390f35b610231600480360381019061022c919061276f565b6121d6565b60405161023f929190613204565b60405180910390f35b610262600480360381019061025d919061276f565b612425565b60405161026f9190613154565b60405180910390f35b610292600480360381019061028d919061319b565b61243d565b60405161029f919061323b565b60405180910390f35b81806000808381526020019081526020016000206000015414610300576040517f08c379a00000000000000000000000000000000000000000000000000000000081526004016102f7906132a2565b60405180910390fd5b8260008082815260200190815260200160002060050160009054906101000a900460ff16610363576040517f08c379a000000000000000000000000000000000000000000000000000000000815260040161035a9061330e565b60405180910390fd5b600080828152602001908152602001600020600301544210156103bb576040517f08c379a00000000000000000000000000000000000000000000000000000000081526004016103b29061337a565b60405180910390fd5b60008082815260200190815260200160002060040154421115610413576040517f08c379a000000000000000000000000000000000000000000000000000000000815260040161040a906133e6565b60405180910390fd5b836002600082815260200190815260200160002060003373ffffffffffffffffffffffffffffffffffffffff1673ffffffffffffffffffffffffffffffffffffffff16815260200190815260200160002060000160009054906101000a900460ff16156104b5576040517f08c379a00000000000000000000000000000000000000000000000000000000081526004016104ac90613452565b60405180910390fd5b6003600086815260200190815260200160002054841061050a576040517f08c379a0000000000000000000000000000000000000000000000000000000008152600401610501906134be565b60405180910390fd5b600080868152602001908152602001600020600601546000808781526020019081526020016000206007015410610576576040517f08c379a000000000000000000000000000000000000000000000000000000000815260040161056d9061352a565b60405180910390fd5b6040518060400160405280600115158152602001858152506002600087815260200190815260200160002060003373ffffffffffffffffffffffffffffffffffffffff1673ffffffffffffffffffffffffffffffffffffffff16815260200190815260200160002060008201518160000160006101000a81548160ff02191690831515021790555060208201518160010155905050600160008681526020019081526020016000206000858152602001908152602001600020600201600081548092919061064390613579565b9190505550600080868152602001908152602001600020600701600081548092919061066e90613579565b91905055503373ffffffffffffffffffffffffffffffffffffffff16857f2acce567deca3aabf56327adbb4524bd5318936eaefa69e3a5208ffda0cfec09866040516106ba9190613154565b60405180910390a35050505050565b6001602052816000526040600020602052806000526040600020600091509150508060000154908060010180546106ff906135f0565b80601f016020809104026020016040519081016040528092919081815260200182805461072b906135f0565b80156107785780601f1061074d57610100808354040283529160200191610778565b820191906000526020600020905b81548152906001019060200180831161075b57829003601f168201915b5050505050908060020154905083565b60608060008060008060008060608060608b8060008083815260200190815260200160002060000154146107f1576040517f08c379a00000000000000000000000000000000000000000000000000000000081526004016107e8906132a2565b60405180910390fd5b60008060008f8152602001908152602001600020604051806101800160405290816000820154815260200160018201805461082b906135f0565b80601f0160208091040260200160405190810160405280929190818152602001828054610857906135f0565b80156108a45780601f10610879576101008083540402835291602001916108a4565b820191906000526020600020905b81548152906001019060200180831161088757829003601f168201915b505050505081526020016002820180546108bd906135f0565b80601f01602080910402602001604051908101604052809291908181526020018280546108e9906135f0565b80156109365780601f1061090b57610100808354040283529160200191610936565b820191906000526020600020905b81548152906001019060200180831161091957829003601f168201915b5050505050815260200160038201548152602001600482015481526020016005820160009054906101000a900460ff161515151581526020016005820160019054906101000a900473ffffffffffffffffffffffffffffffffffffffff1673ffffffffffffffffffffffffffffffffffffffff1673ffffffffffffffffffffffffffffffffffffffff16815260200160068201548152602001600782015481526020016008820180546109e8906135f0565b80601f0160208091040260200160405190810160405280929190818152602001828054610a14906135f0565b8015610a615780601f10610a3657610100808354040283529160200191610a61565b820191906000526020600020905b815481529060010190602001808311610a4457829003601f168201915b50505050508152602001600982018054610a7a906135f0565b80601f0160208091040260200160405190810160405280929190818152602001828054610aa6906135f0565b8015610af35780601f10610ac857610100808354040283529160200191610af3565b820191906000526020600020905b815481529060010190602001808311610ad657829003601f168201915b50505050508152602001600a82018054610b0c906135f0565b80601f0160208091040260200160405190810160405280929190818152602001828054610b38906135f0565b8015610b855780601f10610b5a57610100808354040283529160200191610b85565b820191906000526020600020905b815481529060010190602001808311610b6857829003601f168201915b505050505081525050905080602001518160400151826060015183608001518460a001518560c001518660e001518761010001518861012001518961014001518a61016001519c509c509c509c509c509c509c509c509c509c509c50505091939597999b90929496989a50565b6000602052806000526040600020600091509050806000015490806001018054610c1b906135f0565b80601f0160208091040260200160405190810160405280929190818152602001828054610c47906135f0565b8015610c945780601f10610c6957610100808354040283529160200191610c94565b820191906000526020600020905b815481529060010190602001808311610c7757829003601f168201915b505050505090806002018054610ca9906135f0565b80601f0160208091040260200160405190810160405280929190818152602001828054610cd5906135f0565b8015610d225780601f10610cf757610100808354040283529160200191610d22565b820191906000526020600020905b815481529060010190602001808311610d0557829003601f168201915b5050505050908060030154908060040154908060050160009054906101000a900460ff16908060050160019054906101000a900473ffffffffffffffffffffffffffffffffffffffff1690806006015490806007015490806008018054610d88906135f0565b80601f0160208091040260200160405190810160405280929190818152602001828054610db4906135f0565b8015610e015780601f10610dd657610100808354040283529160200191610e01565b820191906000526020600020905b815481529060010190602001808311610de457829003601f168201915b505050505090806009018054610e16906135f0565b80601f0160208091040260200160405190810160405280929190818152602001828054610e42906135f0565b8015610e8f5780601f10610e6457610100808354040283529160200191610e8f565b820191906000526020600020905b815481529060010190602001808311610e7257829003601f168201915b50505050509080600a018054610ea4906135f0565b80601f0160208091040260200160405190810160405280929190818152602001828054610ed0906135f0565b8015610f1d5780601f10610ef257610100808354040283529160200191610f1d565b820191906000526020600020905b815481529060010190602001808311610f0057829003601f168201915b505050505090508c565b606080606080606080606080606080606080600060045490508067ffffffffffffffff811115610f5a57610f59612e01565b5b604051908082528060200260200182016040528015610f885781602001602082028036833780820191505090505b509c508067ffffffffffffffff811115610fa557610fa4612e01565b5b604051908082528060200260200182016040528015610fd857816020015b6060815260200190600190039081610fc35790505b509b508067ffffffffffffffff811115610ff557610ff4612e01565b5b60405190808252806020026020018201604052801561102857816020015b60608152602001906001900390816110135790505b509a508067ffffffffffffffff81111561104557611044612e01565b5b6040519080825280602002602001820160405280156110735781602001602082028036833780820191505090505b5099508067ffffffffffffffff8111156110905761108f612e01565b5b6040519080825280602002602001820160405280156110be5781602001602082028036833780820191505090505b5098508067ffffffffffffffff8111156110db576110da612e01565b5b6040519080825280602002602001820160405280156111095781602001602082028036833780820191505090505b5097508067ffffffffffffffff81111561112657611125612e01565b5b6040519080825280602002602001820160405280156111545781602001602082028036833780820191505090505b5096508067ffffffffffffffff81111561117157611170612e01565b5b60405190808252806020026020018201604052801561119f5781602001602082028036833780820191505090505b5095508067ffffffffffffffff8111156111bc576111bb612e01565b5b6040519080825280602002602001820160405280156111ea5781602001602082028036833780820191505090505b5094508067ffffffffffffffff81111561120757611206612e01565b5b60405190808252806020026020018201604052801561123a57816020015b60608152602001906001900390816112255790505b5093508067ffffffffffffffff81111561125757611256612e01565b5b60405190808252806020026020018201604052801561128a57816020015b60608152602001906001900390816112755790505b5092508067ffffffffffffffff8111156112a7576112a6612e01565b5b6040519080825280602002602001820160405280156112da57816020015b60608152602001906001900390816112c55790505b5091506000600190505b81811161191e5760008060008381526020019081526020016000206040518061018001604052908160008201548152602001600182018054611325906135f0565b80601f0160208091040260200160405190810160405280929190818152602001828054611351906135f0565b801561139e5780601f106113735761010080835404028352916020019161139e565b820191906000526020600020905b81548152906001019060200180831161138157829003601f168201915b505050505081526020016002820180546113b7906135f0565b80601f01602080910402602001604051908101604052809291908181526020018280546113e3906135f0565b80156114305780601f1061140557610100808354040283529160200191611430565b820191906000526020600020905b81548152906001019060200180831161141357829003601f168201915b5050505050815260200160038201548152602001600482015481526020016005820160009054906101000a900460ff161515151581526020016005820160019054906101000a900473ffffffffffffffffffffffffffffffffffffffff1673ffffffffffffffffffffffffffffffffffffffff1673ffffffffffffffffffffffffffffffffffffffff16815260200160068201548152602001600782015481526020016008820180546114e2906135f0565b80601f016020809104026020016040519081016040528092919081815260200182805461150e906135f0565b801561155b5780601f106115305761010080835404028352916020019161155b565b820191906000526020600020905b81548152906001019060200180831161153e57829003601f168201915b50505050508152602001600982018054611574906135f0565b80601f01602080910402602001604051908101604052809291908181526020018280546115a0906135f0565b80156115ed5780601f106115c2576101008083540402835291602001916115ed565b820191906000526020600020905b8154815290600101906020018083116115d057829003601f168201915b50505050508152602001600a82018054611606906135f0565b80601f0160208091040260200160405190810160405280929190818152602001828054611632906135f0565b801561167f5780601f106116545761010080835404028352916020019161167f565b820191906000526020600020905b81548152906001019060200180831161166257829003601f168201915b5050505050815250509050600081600001511461190a5780600001518f6001846116a99190613621565b815181106116ba576116b9613655565b5b60200260200101818152505080602001518e6001846116d99190613621565b815181106116ea576116e9613655565b5b602002602001018190525080604001518d6001846117089190613621565b8151811061171957611718613655565b5b602002602001018190525080606001518c6001846117379190613621565b8151811061174857611747613655565b5b60200260200101818152505080608001518b6001846117679190613621565b8151811061177857611777613655565b5b6020026020010181815250508060a001518a6001846117979190613621565b815181106117a8576117a7613655565b5b6020026020010190151590811515815250508060c00151896001846117cd9190613621565b815181106117de576117dd613655565b5b602002602001019073ffffffffffffffffffffffffffffffffffffffff16908173ffffffffffffffffffffffffffffffffffffffff16815250508060e001518860018461182b9190613621565b8151811061183c5761183b613655565b5b6020026020010181815250508061010001518760018461185c9190613621565b8151811061186d5761186c613655565b5b6020026020010181815250508061012001518660018461188d9190613621565b8151811061189e5761189d613655565b5b6020026020010181905250806101400151856001846118bd9190613621565b815181106118ce576118cd613655565b5b6020026020010181905250806101600151846001846118ed9190613621565b815181106118fe576118fd613655565b5b60200260200101819052505b50808061191690613579565b9150506112e4565b5050909192939495969798999a9b565b80806000808381526020019081526020016000206000015414611986576040517f08c379a000000000000000000000000000000000000000000000000000000000815260040161197d906132a2565b60405180910390fd5b813373ffffffffffffffffffffffffffffffffffffffff1660008083815260200190815260200160002060050160019054906101000a900473ffffffffffffffffffffffffffffffffffffffff1673ffffffffffffffffffffffffffffffffffffffff1614611a2a576040517f08c379a0000000000000000000000000000000000000000000000000000000008152600401611a21906136f6565b60405180910390fd5b60008084815260200190815260200160002060050160009054906101000a900460ff16611a8c576040517f08c379a0000000000000000000000000000000000000000000000000000000008152600401611a8390613762565b60405180910390fd5b600080600085815260200190815260200160002060050160006101000a81548160ff0219169083151502179055506040518060400160405280600581526020017f656e646564000000000000000000000000000000000000000000000000000000815250600080858152602001908152602001600020600a019081611b11919061392e565b50827fe12e0241ed3b6bb5b8b9e5b0c487661a72158d47e347fa539ef01a1fafcb3a3d60405160405180910390a2505050565b600080895111611b89576040517f08c379a0000000000000000000000000000000000000000000000000000000008152600401611b8090613a4c565b60405180910390fd5b6000885111611bcd576040517f08c379a0000000000000000000000000000000000000000000000000000000008152600401611bc490613ab8565b60405180910390fd5b6000835111611c11576040517f08c379a0000000000000000000000000000000000000000000000000000000008152600401611c0890613b24565b60405180910390fd5b6000825111611c55576040517f08c379a0000000000000000000000000000000000000000000000000000000008152600401611c4c90613b90565b60405180910390fd5b42861015611c62876124a8565b611c6b426124a8565b604051602001611c7c929190613caa565b60405160208183030381529060405290611ccc576040517f08c379a0000000000000000000000000000000000000000000000000000000008152600401611cc39190613ce4565b60405180910390fd5b50858511611cd9876124a8565b611ce2876124a8565b604051602001611cf3929190613dc4565b60405160208183030381529060405290611d43576040517f08c379a0000000000000000000000000000000000000000000000000000000008152600401611d3a9190613ce4565b60405180910390fd5b50600287511015611d89576040517f08c379a0000000000000000000000000000000000000000000000000000000008152600401611d8090613e4a565b60405180910390fd5b60008411611dcc576040517f08c379a0000000000000000000000000000000000000000000000000000000008152600401611dc390613edc565b60405180910390fd5b6103e8841115611e11576040517f08c379a0000000000000000000000000000000000000000000000000000000008152600401611e0890613f6e565b60405180910390fd5b60005b8751811015611eb3576000888281518110611e3257611e31613655565b5b60200260200101515111611e45826124a8565b604051602001611e559190614026565b60405160208183030381529060405290611ea5576040517f08c379a0000000000000000000000000000000000000000000000000000000008152600401611e9c9190613ce4565b60405180910390fd5b508080600101915050611e14565b5060046000815480929190611ec790613579565b9190505550600060045490506040518061018001604052808281526020018b81526020018a81526020018881526020018781526020016001151581526020013373ffffffffffffffffffffffffffffffffffffffff168152602001868152602001600081526020018581526020018481526020016040518060400160405280600381526020017f6e65770000000000000000000000000000000000000000000000000000000000815250815250600080838152602001908152602001600020600082015181600001556020820151816001019081611fa5919061392e565b506040820151816002019081611fbb919061392e565b50606082015181600301556080820151816004015560a08201518160050160006101000a81548160ff02191690831515021790555060c08201518160050160016101000a81548173ffffffffffffffffffffffffffffffffffffffff021916908373ffffffffffffffffffffffffffffffffffffffff16021790555060e082015181600601556101008201518160070155610120820151816008019081612062919061392e565b50610140820151816009019081612079919061392e565b5061016082015181600a019081612090919061392e565b5090505060005b88518110156121345760405180606001604052808281526020018a83815181106120c4576120c3613655565b5b602002602001015181526020016000815250600160008481526020019081526020016000206000838152602001908152602001600020600082015181600001556020820151816001019081612119919061392e565b50604082015181600201559050508080600101915050612097565b5087516003600083815260200190815260200160002081905550807f0b0eb434b18eb3f0d02f9b4b01d92bf397c2fde355b0b3fad98aa2a5ffd63c2c8b33604051612180929190614053565b60405180910390a28091505098975050505050505050565b6002602052816000526040600020602052806000526040600020600091509150508060000160009054906101000a900460ff16908060010154905082565b60608082806000808381526020019081526020016000206000015414612231576040517f08c379a0000000000000000000000000000000000000000000000000000000008152600401612228906132a2565b60405180910390fd5b6000600360008681526020019081526020016000205490508067ffffffffffffffff81111561226357612262612e01565b5b60405190808252806020026020018201604052801561229657816020015b60608152602001906001900390816122815790505b5093508067ffffffffffffffff8111156122b3576122b2612e01565b5b6040519080825280602002602001820160405280156122e15781602001602082028036833780820191505090505b50925060005b8181101561241d5760006001600088815260200190815260200160002060008381526020019081526020016000206040518060600160405290816000820154815260200160018201805461233a906135f0565b80601f0160208091040260200160405190810160405280929190818152602001828054612366906135f0565b80156123b35780601f10612388576101008083540402835291602001916123b3565b820191906000526020600020905b81548152906001019060200180831161239657829003601f168201915b50505050508152602001600282015481525050905080602001518683815181106123e0576123df613655565b5b6020026020010181905250806040015185838151811061240357612402613655565b5b6020026020010181815250505080806001019150506122e7565b505050915091565b60036020528060005260406000206000915090505481565b60006002600084815260200190815260200160002060008373ffffffffffffffffffffffffffffffffffffffff1673ffffffffffffffffffffffffffffffffffffffff16815260200190815260200160002060000160009054906101000a900460ff16905092915050565b6060600082036124ef576040518060400160405280600181526020017f30000000000000000000000000000000000000000000000000000000000000008152509050612603565b600082905060005b6000821461252157808061250a90613579565b915050600a8261251a91906140b2565b91506124f7565b60008167ffffffffffffffff81111561253d5761253c612e01565b5b6040519080825280601f01601f19166020018201604052801561256f5781602001600182028036833780820191505090505b5090505b600085146125fc576001826125889190613621565b9150600a8561259791906140e3565b60306125a39190614114565b60f81b8183815181106125b9576125b8613655565b5b60200101907effffffffffffffffffffffffffffffffffffffffffffffffffffffffffffff1916908160001a905350600a856125f591906140b2565b9450612573565b8093505050505b919050565b6000604051905090565b600080fd5b600080fd5b6000819050919050565b61262f8161261c565b811461263a57600080fd5b50565b60008135905061264c81612626565b92915050565b6000806040838503121561266957612668612612565b5b60006126778582860161263d565b92505060206126888582860161263d565b9150509250929050565b61269b8161261c565b82525050565b600081519050919050565b600082825260208201905092915050565b60005b838110156126db5780820151818401526020810190506126c0565b60008484015250505050565b6000601f19601f8301169050919050565b6000612703826126a1565b61270d81856126ac565b935061271d8185602086016126bd565b612726816126e7565b840191505092915050565b60006060820190506127466000830186612692565b818103602083015261275881856126f8565b90506127676040830184612692565b949350505050565b60006020828403121561278557612784612612565b5b60006127938482850161263d565b91505092915050565b60008115159050919050565b6127b18161279c565b82525050565b600073ffffffffffffffffffffffffffffffffffffffff82169050919050565b60006127e2826127b7565b9050919050565b6127f2816127d7565b82525050565b6000610160820190508181036000830152612813818e6126f8565b90508181036020830152612827818d6126f8565b9050612836604083018c612692565b612843606083018b612692565b612850608083018a6127a8565b61285d60a08301896127e9565b61286a60c0830188612692565b61287760e0830187612692565b81810361010083015261288a81866126f8565b905081810361012083015261289f81856126f8565b90508181036101408301526128b481846126f8565b90509c9b505050505050505050505050565b6000610180820190506128dc600083018f612692565b81810360208301526128ee818e6126f8565b90508181036040830152612902818d6126f8565b9050612911606083018c612692565b61291e608083018b612692565b61292b60a083018a6127a8565b61293860c08301896127e9565b61294560e0830188612692565b612953610100830187612692565b81810361012083015261296681866126f8565b905081810361014083015261297b81856126f8565b905081810361016083015261299081846126f8565b90509d9c50505050505050505050505050565b600081519050919050565b600082825260208201905092915050565b6000819050602082019050919050565b6129d88161261c565b82525050565b60006129ea83836129cf565b60208301905092915050565b6000602082019050919050565b6000612a0e826129a3565b612a1881856129ae565b9350612a23836129bf565b8060005b83811015612a54578151612a3b88826129de565b9750612a46836129f6565b925050600181019050612a27565b5085935050505092915050565b600081519050919050565b600082825260208201905092915050565b6000819050602082019050919050565b600082825260208201905092915050565b6000612aa9826126a1565b612ab38185612a8d565b9350612ac38185602086016126bd565b612acc816126e7565b840191505092915050565b6000612ae38383612a9e565b905092915050565b6000602082019050919050565b6000612b0382612a61565b612b0d8185612a6c565b935083602082028501612b1f85612a7d565b8060005b85811015612b5b5784840389528151612b3c8582612ad7565b9450612b4783612aeb565b925060208a01995050600181019050612b23565b50829750879550505050505092915050565b600081519050919050565b600082825260208201905092915050565b6000819050602082019050919050565b612ba28161279c565b82525050565b6000612bb48383612b99565b60208301905092915050565b6000602082019050919050565b6000612bd882612b6d565b612be28185612b78565b9350612bed83612b89565b8060005b83811015612c1e578151612c058882612ba8565b9750612c1083612bc0565b925050600181019050612bf1565b5085935050505092915050565b600081519050919050565b600082825260208201905092915050565b6000819050602082019050919050565b612c60816127d7565b82525050565b6000612c728383612c57565b60208301905092915050565b6000602082019050919050565b6000612c9682612c2b565b612ca08185612c36565b9350612cab83612c47565b8060005b83811015612cdc578151612cc38882612c66565b9750612cce83612c7e565b925050600181019050612caf565b5085935050505092915050565b6000610180820190508181036000830152612d04818f612a03565b90508181036020830152612d18818e612af8565b90508181036040830152612d2c818d612af8565b90508181036060830152612d40818c612a03565b90508181036080830152612d54818b612a03565b905081810360a0830152612d68818a612bcd565b905081810360c0830152612d7c8189612c8b565b905081810360e0830152612d908188612a03565b9050818103610100830152612da58187612a03565b9050818103610120830152612dba8186612af8565b9050818103610140830152612dcf8185612af8565b9050818103610160830152612de48184612af8565b90509d9c50505050505050505050505050565b600080fd5b600080fd5b7f4e487b7100000000000000000000000000000000000000000000000000000000600052604160045260246000fd5b612e39826126e7565b810181811067ffffffffffffffff82111715612e5857612e57612e01565b5b80604052505050565b6000612e6b612608565b9050612e778282612e30565b919050565b600067ffffffffffffffff821115612e9757612e96612e01565b5b612ea0826126e7565b9050602081019050919050565b82818337600083830152505050565b6000612ecf612eca84612e7c565b612e61565b905082815260208101848484011115612eeb57612eea612dfc565b5b612ef6848285612ead565b509392505050565b600082601f830112612f1357612f12612df7565b5b8135612f23848260208601612ebc565b91505092915050565b600067ffffffffffffffff821115612f4757612f46612e01565b5b602082029050602081019050919050565b600080fd5b6000612f70612f6b84612f2c565b612e61565b90508083825260208201905060208402830185811115612f9357612f92612f58565b5b835b81811015612fda57803567ffffffffffffffff811115612fb857612fb7612df7565b5b808601612fc58982612efe565b85526020850194505050602081019050612f95565b5050509392505050565b600082601f830112612ff957612ff8612df7565b5b8135613009848260208601612f5d565b91505092915050565b600080600080600080600080610100898b03121561303357613032612612565b5b600089013567ffffffffffffffff81111561305157613050612617565b5b61305d8b828c01612efe565b985050602089013567ffffffffffffffff81111561307e5761307d612617565b5b61308a8b828c01612efe565b975050604089013567ffffffffffffffff8111156130ab576130aa612617565b5b6130b78b828c01612fe4565b96505060606130c88b828c0161263d565b95505060806130d98b828c0161263d565b94505060a06130ea8b828c0161263d565b93505060c089013567ffffffffffffffff81111561310b5761310a612617565b5b6131178b828c01612efe565b92505060e089013567ffffffffffffffff81111561313857613137612617565b5b6131448b828c01612efe565b9150509295985092959890939650565b60006020820190506131696000830184612692565b92915050565b613178816127d7565b811461318357600080fd5b50565b6000813590506131958161316f565b92915050565b600080604083850312156131b2576131b1612612565b5b60006131c08582860161263d565b92505060206131d185828601613186565b9150509250929050565b60006040820190506131f060008301856127a8565b6131fd6020830184612692565b9392505050565b6000604082019050818103600083015261321e8185612af8565b905081810360208301526132328184612a03565b90509392505050565b600060208201905061325060008301846127a8565b92915050565b7f566f746520646f6573206e6f7420657869737400000000000000000000000000600082015250565b600061328c6013836126ac565b915061329782613256565b602082019050919050565b600060208201905081810360008301526132bb8161327f565b9050919050565b7f566f7465206973206e6f74206163746976650000000000000000000000000000600082015250565b60006132f86012836126ac565b9150613303826132c2565b602082019050919050565b60006020820190508181036000830152613327816132eb565b9050919050565b7f566f746520686173206e6f742073746172746564000000000000000000000000600082015250565b60006133646014836126ac565b915061336f8261332e565b602082019050919050565b6000602082019050818103600083015261339381613357565b9050919050565b7f566f74652068617320656e646564000000000000000000000000000000000000600082015250565b60006133d0600e836126ac565b91506133db8261339a565b602082019050919050565b600060208201905081810360008301526133ff816133c3565b9050919050565b7f416c726561647920766f74656400000000000000000000000000000000000000600082015250565b600061343c600d836126ac565b915061344782613406565b602082019050919050565b6000602082019050818103600083015261346b8161342f565b9050919050565b7f496e76616c6964206f7074696f6e000000000000000000000000000000000000600082015250565b60006134a8600e836126ac565b91506134b382613472565b602082019050919050565b600060208201905081810360008301526134d78161349b565b9050919050565b7f4d6178696d756d207061727469636970616e7473207265616368656400000000600082015250565b6000613514601c836126ac565b915061351f826134de565b602082019050919050565b6000602082019050818103600083015261354381613507565b9050919050565b7f4e487b7100000000000000000000000000000000000000000000000000000000600052601160045260246000fd5b60006135848261261c565b91507fffffffffffffffffffffffffffffffffffffffffffffffffffffffffffffffff82036135b6576135b561354a565b5b600182019050919050565b7f4e487b7100000000000000000000000000000000000000000000000000000000600052602260045260246000fd5b6000600282049050600182168061360857607f821691505b60208210810361361b5761361a6135c1565b5b50919050565b600061362c8261261c565b91506136378361261c565b925082820390508181111561364f5761364e61354a565b5b92915050565b7f4e487b7100000000000000000000000000000000000000000000000000000000600052603260045260246000fd5b7f4f6e6c792063726561746f722063616e20706572666f726d207468697320616360008201527f74696f6e00000000000000000000000000000000000000000000000000000000602082015250565b60006136e06024836126ac565b91506136eb82613684565b604082019050919050565b6000602082019050818103600083015261370f816136d3565b9050919050565b7f566f746520616c726561647920656e6465640000000000000000000000000000600082015250565b600061374c6012836126ac565b915061375782613716565b602082019050919050565b6000602082019050818103600083015261377b8161373f565b9050919050565b60008190508160005260206000209050919050565b60006020601f8301049050919050565b600082821b905092915050565b6000600883026137e47fffffffffffffffffffffffffffffffffffffffffffffffffffffffffffffffff826137a7565b6137ee86836137a7565b95508019841693508086168417925050509392505050565b6000819050919050565b600061382b6138266138218461261c565b613806565b61261c565b9050919050565b6000819050919050565b61384583613810565b61385961385182613832565b8484546137b4565b825550505050565b600090565b61386e613861565b61387981848461383c565b505050565b5b8181101561389d57613892600082613866565b60018101905061387f565b5050565b601f8211156138e2576138b381613782565b6138bc84613797565b810160208510156138cb578190505b6138df6138d785613797565b83018261387e565b50505b505050565b600082821c905092915050565b6000613905600019846008026138e7565b1980831691505092915050565b600061391e83836138f4565b9150826002028217905092915050565b613937826126a1565b67ffffffffffffffff8111156139505761394f612e01565b5b61395a82546135f0565b6139658282856138a1565b600060209050601f8311600181146139985760008415613986578287015190505b6139908582613912565b8655506139f8565b601f1984166139a686613782565b60005b828110156139ce578489015182556001820191506020850194506020810190506139a9565b868310156139eb57848901516139e7601f8916826138f4565b8355505b6001600288020188555050505b505050505050565b7f5469746c652063616e6e6f7420626520656d7074790000000000000000000000600082015250565b6000613a366015836126ac565b9150613a4182613a00565b602082019050919050565b60006020820190508181036000830152613a6581613a29565b9050919050565b7f4465736372697074696f6e2063616e6e6f7420626520656d7074790000000000600082015250565b6000613aa2601b836126ac565b9150613aad82613a6c565b602082019050919050565b60006020820190508181036000830152613ad181613a95565b9050919050565b7f526f6f6d206e616d652063616e6e6f7420626520656d70747900000000000000600082015250565b6000613b0e6019836126ac565b9150613b1982613ad8565b602082019050919050565b60006020820190508181036000830152613b3d81613b01565b9050919050565b7f41636365737320636f64652063616e6e6f7420626520656d7074790000000000600082015250565b6000613b7a601b836126ac565b9150613b8582613b44565b602082019050919050565b60006020820190508181036000830152613ba981613b6d565b9050919050565b600081905092915050565b7f53746172742074696d65206d75737420626520696e207468652066757475726560008201527f2e20476976656e3a200000000000000000000000000000000000000000000000602082015250565b6000613c17602983613bb0565b9150613c2282613bbb565b602982019050919050565b6000613c38826126a1565b613c428185613bb0565b9350613c528185602086016126bd565b80840191505092915050565b7f2c2043757272656e743a20000000000000000000000000000000000000000000600082015250565b6000613c94600b83613bb0565b9150613c9f82613c5e565b600b82019050919050565b6000613cb582613c0a565b9150613cc18285613c2d565b9150613ccc82613c87565b9150613cd88284613c2d565b91508190509392505050565b60006020820190508181036000830152613cfe81846126f8565b905092915050565b7f456e642074696d65206d7573742062652061667465722073746172742074696d60008201527f652e2053746172743a2000000000000000000000000000000000000000000000602082015250565b6000613d62602a83613bb0565b9150613d6d82613d06565b602a82019050919050565b7f2c20456e643a2000000000000000000000000000000000000000000000000000600082015250565b6000613dae600783613bb0565b9150613db982613d78565b600782019050919050565b6000613dcf82613d55565b9150613ddb8285613c2d565b9150613de682613da1565b9150613df28284613c2d565b91508190509392505050565b7f4d7573742068617665206174206c656173742032206f7074696f6e7300000000600082015250565b6000613e34601c836126ac565b9150613e3f82613dfe565b602082019050919050565b60006020820190508181036000830152613e6381613e27565b9050919050565b7f4d6178207061727469636970616e7473206d757374206265206772656174657260008201527f207468616e203000000000000000000000000000000000000000000000000000602082015250565b6000613ec66027836126ac565b9150613ed182613e6a565b604082019050919050565b60006020820190508181036000830152613ef581613eb9565b9050919050565b7f4d6178207061727469636970616e74732063616e6e6f7420657863656564203160008201527f3030300000000000000000000000000000000000000000000000000000000000602082015250565b6000613f586023836126ac565b9150613f6382613efc565b604082019050919050565b60006020820190508181036000830152613f8781613f4b565b9050919050565b7f4f7074696f6e206e616d6520617420696e646578200000000000000000000000600082015250565b6000613fc4601583613bb0565b9150613fcf82613f8e565b601582019050919050565b7f2063616e6e6f7420626520656d70747900000000000000000000000000000000600082015250565b6000614010601083613bb0565b915061401b82613fda565b601082019050919050565b600061403182613fb7565b915061403d8284613c2d565b915061404882614003565b915081905092915050565b6000604082019050818103600083015261406d81856126f8565b905061407c60208301846127e9565b9392505050565b7f4e487b7100000000000000000000000000000000000000000000000000000000600052601260045260246000fd5b60006140bd8261261c565b91506140c88361261c565b9250826140d8576140d7614083565b5b828204905092915050565b60006140ee8261261c565b91506140f98361261c565b92508261410957614108614083565b5b828206905092915050565b600061411f8261261c565b915061412a8361261c565b92508282019050808211156141425761414161354a565b5b9291505056fea26469706673582212208a050d29052e7ec3c2eb2de6ecc2b8b73c897d3526975e06bd249cb55acc25f364736f6c63430008180033",
  "linkReferences": {},
  "deployedLinkReferences": {}
}