{
  "_format": "hh-sol-artifact-1",
  "contractName": "VotingSystem",
  "sourceName": "contracts/vote.sol",
  "abi": [
    {
      "anonymous": false,
      "inputs": [
        {
          "indexed": true,
          "internalType": "uint256",
          "name": "voteId",
          "type": "uint256"
        },
        {
          "indexed": true,
          "internalType": "address",
          "name": "voter",
          "type": "address"
        },
        {
          "indexed": false,
          "internalType": "uint256",
          "name": "optionId",
          "type": "uint256"
        }
      ],
      "name": "VoteCast",
      "type": "event"
    },
    {
      "anonymous": false,
      "inputs": [
        {
          "indexed": true,
          "internalType": "uint256",
          "name": "voteId",
          "type": "uint256"
        },
        {
          "indexed": false,
          "internalType": "string",
          "name": "title",
          "type": "string"
        },
        {
          "indexed": false,
          "internalType": "address",
          "name": "creator",
          "type": "address"
        }
      ],
      "name": "VoteCreated",
      "type": "event"
    },
    {
      "anonymous": false,
      "inputs": [
        {
          "indexed": true,
          "internalType": "uint256",
          "name": "voteId",
          "type": "uint256"
        }
      ],
      "name": "VoteEnded",
      "type": "event"
    },
    {
      "inputs": [
        {
          "internalType": "uint256",
          "name": "_voteId",
          "type": "uint256"
        },
        {
          "internalType": "uint256",
          "name": "_optionId",
          "type": "uint256"
        }
      ],
      "name": "castVote",
      "outputs": [],
      "stateMutability": "nonpayable",
      "type": "function"
    },
    {
      "inputs": [
        {
          "internalType": "string",
          "name": "_title",
          "type": "string"
        },
        {
          "internalType": "string",
          "name": "_description",
          "type": "string"
        },
        {
          "internalType": "string[]",
          "name": "_optionNames",
          "type": "string[]"
        },
        {
          "internalType": "uint256",
          "name": "_startTime",
          "type": "uint256"
        },
        {
          "internalType": "uint256",
          "name": "_endTime",
          "type": "uint256"
        },
        {
          "internalType": "uint256",
          "name": "_maxParticipants",
          "type": "uint256"
        }
      ],
      "name": "createVote",
      "outputs": [
        {
          "internalType": "uint256",
          "name": "",
          "type": "uint256"
        }
      ],
      "stateMutability": "nonpayable",
      "type": "function"
    },
    {
      "inputs": [
        {
          "internalType": "uint256",
          "name": "_voteId",
          "type": "uint256"
        }
      ],
      "name": "endVote",
      "outputs": [],
      "stateMutability": "nonpayable",
      "type": "function"
    },
    {
      "inputs": [
        {
          "internalType": "uint256",
          "name": "_voteId",
          "type": "uint256"
        }
      ],
      "name": "getVoteDetails",
      "outputs": [
        {
          "internalType": "string",
          "name": "title",
          "type": "string"
        },
        {
          "internalType": "string",
          "name": "description",
          "type": "string"
        },
        {
          "internalType": "uint256",
          "name": "startTime",
          "type": "uint256"
        },
        {
          "internalType": "uint256",
          "name": "endTime",
          "type": "uint256"
        },
        {
          "internalType": "bool",
          "name": "isActive",
          "type": "bool"
        },
        {
          "internalType": "address",
          "name": "creator",
          "type": "address"
        },
        {
          "internalType": "uint256",
          "name": "maxParticipants",
          "type": "uint256"
        },
        {
          "internalType": "uint256",
          "name": "currentParticipants",
          "type": "uint256"
        }
      ],
      "stateMutability": "view",
      "type": "function"
    },
    {
      "inputs": [
        {
          "internalType": "uint256",
          "name": "_voteId",
          "type": "uint256"
        }
      ],
      "name": "getVoteResults",
      "outputs": [
        {
          "internalType": "string[]",
          "name": "names",
          "type": "string[]"
        },
        {
          "internalType": "uint256[]",
          "name": "counts",
          "type": "uint256[]"
        }
      ],
      "stateMutability": "view",
      "type": "function"
    },
    {
      "inputs": [
        {
          "internalType": "uint256",
          "name": "_voteId",
          "type": "uint256"
        },
        {
          "internalType": "address",
          "name": "_voter",
          "type": "address"
        }
      ],
      "name": "hasUserVoted",
      "outputs": [
        {
          "internalType": "bool",
          "name": "",
          "type": "bool"
        }
      ],
      "stateMutability": "view",
      "type": "function"
    },
    {
      "inputs": [
        {
          "internalType": "uint256",
          "name": "",
          "type": "uint256"
        }
      ],
      "name": "optionCounts",
      "outputs": [
        {
          "internalType": "uint256",
          "name": "",
          "type": "uint256"
        }
      ],
      "stateMutability": "view",
      "type": "function"
    },
    {
      "inputs": [
        {
          "internalType": "uint256",
          "name": "",
          "type": "uint256"
        },
        {
          "internalType": "uint256",
          "name": "",
          "type": "uint256"
        }
      ],
      "name": "voteOptions",
      "outputs": [
        {
          "internalType": "uint256",
          "name": "id",
          "type": "uint256"
        },
        {
          "internalType": "string",
          "name": "name",
          "type": "string"
        },
        {
          "internalType": "uint256",
          "name": "voteCount",
          "type": "uint256"
        }
      ],
      "stateMutability": "view",
      "type": "function"
    },
    {
      "inputs": [
        {
          "internalType": "uint256",
          "name": "",
          "type": "uint256"
        },
        {
          "internalType": "address",
          "name": "",
          "type": "address"
        }
      ],
      "name": "voters",
      "outputs": [
        {
          "internalType": "bool",
          "name": "hasVoted",
          "type": "bool"
        },
        {
          "internalType": "uint256",
          "name": "votedOptionId",
          "type": "uint256"
        }
      ],
      "stateMutability": "view",
      "type": "function"
    },
    {
      "inputs": [
        {
          "internalType": "uint256",
          "name": "",
          "type": "uint256"
        }
      ],
      "name": "votes",
      "outputs": [
        {
          "internalType": "uint256",
          "name": "id",
          "type": "uint256"
        },
        {
          "internalType": "string",
          "name": "title",
          "type": "string"
        },
        {
          "internalType": "string",
          "name": "description",
          "type": "string"
        },
        {
          "internalType": "uint256",
          "name": "startTime",
          "type": "uint256"
        },
        {
          "internalType": "uint256",
          "name": "endTime",
          "type": "uint256"
        },
        {
          "internalType": "bool",
          "name": "isActive",
          "type": "bool"
        },
        {
          "internalType": "address",
          "name": "creator",
          "type": "address"
        },
        {
          "internalType": "uint256",
          "name": "maxParticipants",
          "type": "uint256"
        },
        {
          "internalType": "uint256",
          "name": "currentParticipants",
          "type": "uint256"
        }
      ],
      "stateMutability": "view",
      "type": "function"
    }
  ],
  "bytecode": "0x608060405234801561001057600080fd5b50612e07806100206000396000f3fe608060405234801561001057600080fd5b506004361061009e5760003560e01c80639e319063116100665780639e3190631461017c578063a88922b3146101ad578063b0d26168146101de578063dc296ae11461020e578063efd2d9371461023e5761009e565b80632c0a3f89146100a35780633c4f5500146100bf57806354a1b431146100f15780635df8133014610128578063865df0ad14610160575b600080fd5b6100bd60048036038101906100b89190611722565b61026e565b005b6100d960048036038101906100d49190611722565b61068f565b6040516100e893929190611801565b60405180910390f35b61010b6004803603810190610106919061183f565b61074e565b60405161011f9897969594939291906118c8565b60405180910390f35b610142600480360381019061013d919061183f565b6109e1565b60405161015799989796959493929190611954565b60405180910390f35b61017a6004803603810190610175919061183f565b610b6c565b005b61019660048036038101906101919190611a1b565b610d2a565b6040516101a4929190611a5b565b60405180910390f35b6101c760048036038101906101c2919061183f565b610d68565b6040516101d5929190611c4e565b60405180910390f35b6101f860048036038101906101f3919061183f565b610fb7565b6040516102059190611c85565b60405180910390f35b61022860048036038101906102239190611a1b565b610fcf565b6040516102359190611ca0565b60405180910390f35b61025860048036038101906102539190611ed6565b61103a565b6040516102659190611c85565b60405180910390f35b818060008083815260200190815260200160002060000154146102c6576040517f08c379a00000000000000000000000000000000000000000000000000000000081526004016102bd90612003565b60405180910390fd5b8260008082815260200190815260200160002060050160009054906101000a900460ff16610329576040517f08c379a00000000000000000000000000000000000000000000000000000000081526004016103209061206f565b60405180910390fd5b60008082815260200190815260200160002060030154421015610381576040517f08c379a0000000000000000000000000000000000000000000000000000000008152600401610378906120db565b60405180910390fd5b600080828152602001908152602001600020600401544211156103d9576040517f08c379a00000000000000000000000000000000000000000000000000000000081526004016103d090612147565b60405180910390fd5b836002600082815260200190815260200160002060003373ffffffffffffffffffffffffffffffffffffffff1673ffffffffffffffffffffffffffffffffffffffff16815260200190815260200160002060000160009054906101000a900460ff161561047b576040517f08c379a0000000000000000000000000000000000000000000000000000000008152600401610472906121b3565b60405180910390fd5b600360008681526020019081526020016000205484106104d0576040517f08c379a00000000000000000000000000000000000000000000000000000000081526004016104c79061221f565b60405180910390fd5b60008086815260200190815260200160002060060154600080878152602001908152602001600020600701541061053c576040517f08c379a00000000000000000000000000000000000000000000000000000000081526004016105339061228b565b60405180910390fd5b6040518060400160405280600115158152602001858152506002600087815260200190815260200160002060003373ffffffffffffffffffffffffffffffffffffffff1673ffffffffffffffffffffffffffffffffffffffff16815260200190815260200160002060008201518160000160006101000a81548160ff021916908315150217905550602082015181600101559050506001600086815260200190815260200160002060008581526020019081526020016000206002016000815480929190610609906122da565b91905055506000808681526020019081526020016000206007016000815480929190610634906122da565b91905055503373ffffffffffffffffffffffffffffffffffffffff16857f2acce567deca3aabf56327adbb4524bd5318936eaefa69e3a5208ffda0cfec09866040516106809190611c85565b60405180910390a35050505050565b6001602052816000526040600020602052806000526040600020600091509150508060000154908060010180546106c590612351565b80601f01602080910402602001604051908101604052809291908181526020018280546106f190612351565b801561073e5780601f106107135761010080835404028352916020019161073e565b820191906000526020600020905b81548152906001019060200180831161072157829003601f168201915b5050505050908060020154905083565b606080600080600080600080888060008083815260200190815260200160002060000154146107b2576040517f08c379a00000000000000000000000000000000000000000000000000000000081526004016107a990612003565b60405180910390fd5b60008060008c815260200190815260200160002060405180610120016040529081600082015481526020016001820180546107ec90612351565b80601f016020809104026020016040519081016040528092919081815260200182805461081890612351565b80156108655780601f1061083a57610100808354040283529160200191610865565b820191906000526020600020905b81548152906001019060200180831161084857829003601f168201915b5050505050815260200160028201805461087e90612351565b80601f01602080910402602001604051908101604052809291908181526020018280546108aa90612351565b80156108f75780601f106108cc576101008083540402835291602001916108f7565b820191906000526020600020905b8154815290600101906020018083116108da57829003601f168201915b5050505050815260200160038201548152602001600482015481526020016005820160009054906101000a900460ff161515151581526020016005820160019054906101000a900473ffffffffffffffffffffffffffffffffffffffff1673ffffffffffffffffffffffffffffffffffffffff1673ffffffffffffffffffffffffffffffffffffffff16815260200160068201548152602001600782015481525050905080602001518160400151826060015183608001518460a001518560c001518660e00151876101000151995099509950995099509950995099505050919395975091939597565b6000602052806000526040600020600091509050806000015490806001018054610a0a90612351565b80601f0160208091040260200160405190810160405280929190818152602001828054610a3690612351565b8015610a835780601f10610a5857610100808354040283529160200191610a83565b820191906000526020600020905b815481529060010190602001808311610a6657829003601f168201915b505050505090806002018054610a9890612351565b80601f0160208091040260200160405190810160405280929190818152602001828054610ac490612351565b8015610b115780601f10610ae657610100808354040283529160200191610b11565b820191906000526020600020905b815481529060010190602001808311610af457829003601f168201915b5050505050908060030154908060040154908060050160009054906101000a900460ff16908060050160019054906101000a900473ffffffffffffffffffffffffffffffffffffffff16908060060154908060070154905089565b80806000808381526020019081526020016000206000015414610bc4576040517f08c379a0000000000000000000000000000000000000000000000000000000008152600401610bbb90612003565b60405180910390fd5b813373ffffffffffffffffffffffffffffffffffffffff1660008083815260200190815260200160002060050160019054906101000a900473ffffffffffffffffffffffffffffffffffffffff1673ffffffffffffffffffffffffffffffffffffffff1614610c68576040517f08c379a0000000000000000000000000000000000000000000000000000000008152600401610c5f906123f4565b60405180910390fd5b60008084815260200190815260200160002060050160009054906101000a900460ff16610cca576040517f08c379a0000000000000000000000000000000000000000000000000000000008152600401610cc190612460565b60405180910390fd5b600080600085815260200190815260200160002060050160006101000a81548160ff021916908315150217905550827fe12e0241ed3b6bb5b8b9e5b0c487661a72158d47e347fa539ef01a1fafcb3a3d60405160405180910390a2505050565b6002602052816000526040600020602052806000526040600020600091509150508060000160009054906101000a900460ff16908060010154905082565b60608082806000808381526020019081526020016000206000015414610dc3576040517f08c379a0000000000000000000000000000000000000000000000000000000008152600401610dba90612003565b60405180910390fd5b6000600360008681526020019081526020016000205490508067ffffffffffffffff811115610df557610df4611cc5565b5b604051908082528060200260200182016040528015610e2857816020015b6060815260200190600190039081610e135790505b5093508067ffffffffffffffff811115610e4557610e44611cc5565b5b604051908082528060200260200182016040528015610e735781602001602082028036833780820191505090505b50925060005b81811015610faf57600060016000888152602001908152602001600020600083815260200190815260200160002060405180606001604052908160008201548152602001600182018054610ecc90612351565b80601f0160208091040260200160405190810160405280929190818152602001828054610ef890612351565b8015610f455780601f10610f1a57610100808354040283529160200191610f45565b820191906000526020600020905b815481529060010190602001808311610f2857829003601f168201915b5050505050815260200160028201548152505090508060200151868381518110610f7257610f71612480565b5b60200260200101819052508060400151858381518110610f9557610f94612480565b5b602002602001018181525050508080600101915050610e79565b505050915091565b60036020528060005260406000206000915090505481565b60006002600084815260200190815260200160002060008373ffffffffffffffffffffffffffffffffffffffff1673ffffffffffffffffffffffffffffffffffffffff16815260200190815260200160002060000160009054906101000a900460ff16905092915050565b60008087511161107f576040517f08c379a0000000000000000000000000000000000000000000000000000000008152600401611076906124fb565b60405180910390fd5b60008651116110c3576040517f08c379a00000000000000000000000000000000000000000000000000000000081526004016110ba90612567565b60405180910390fd5b428410156110d085611578565b6110d942611578565b6040516020016110ea929190612681565b6040516020818303038152906040529061113a576040517f08c379a000000000000000000000000000000000000000000000000000000000815260040161113191906126bb565b60405180910390fd5b5083831161114785611578565b61115085611578565b60405160200161116192919061279b565b604051602081830303815290604052906111b1576040517f08c379a00000000000000000000000000000000000000000000000000000000081526004016111a891906126bb565b60405180910390fd5b506002855110156111f7576040517f08c379a00000000000000000000000000000000000000000000000000000000081526004016111ee90612821565b60405180910390fd5b6000821161123a576040517f08c379a0000000000000000000000000000000000000000000000000000000008152600401611231906128b3565b60405180910390fd5b6103e882111561127f576040517f08c379a000000000000000000000000000000000000000000000000000000000815260040161127690612945565b60405180910390fd5b60005b85518110156113215760008682815181106112a05761129f612480565b5b602002602001015151116112b382611578565b6040516020016112c391906129fd565b60405160208183030381529060405290611313576040517f08c379a000000000000000000000000000000000000000000000000000000000815260040161130a91906126bb565b60405180910390fd5b508080600101915050611282565b5060046000815480929190611335906122da565b9190505550600060045490506040518061012001604052808281526020018981526020018881526020018681526020018581526020016001151581526020013373ffffffffffffffffffffffffffffffffffffffff16815260200184815260200160008152506000808381526020019081526020016000206000820151816000015560208201518160010190816113cc9190612bd6565b5060408201518160020190816113e29190612bd6565b50606082015181600301556080820151816004015560a08201518160050160006101000a81548160ff02191690831515021790555060c08201518160050160016101000a81548173ffffffffffffffffffffffffffffffffffffffff021916908373ffffffffffffffffffffffffffffffffffffffff16021790555060e08201518160060155610100820151816007015590505060005b86518110156115165760405180606001604052808281526020018883815181106114a6576114a5612480565b5b6020026020010151815260200160008152506001600084815260200190815260200160002060008381526020019081526020016000206000820151816000015560208201518160010190816114fb9190612bd6565b50604082015181600201559050508080600101915050611479565b5085516003600083815260200190815260200160002081905550807f0b0eb434b18eb3f0d02f9b4b01d92bf397c2fde355b0b3fad98aa2a5ffd63c2c8933604051611562929190612ca8565b60405180910390a2809150509695505050505050565b6060600082036115bf576040518060400160405280600181526020017f300000000000000000000000000000000000000000000000000000000000000081525090506116d3565b600082905060005b600082146115f15780806115da906122da565b915050600a826115ea9190612d07565b91506115c7565b60008167ffffffffffffffff81111561160d5761160c611cc5565b5b6040519080825280601f01601f19166020018201604052801561163f5781602001600182028036833780820191505090505b5090505b600085146116cc576001826116589190612d38565b9150600a856116679190612d6c565b60306116739190612d9d565b60f81b81838151811061168957611688612480565b5b60200101907effffffffffffffffffffffffffffffffffffffffffffffffffffffffffffff1916908160001a905350600a856116c59190612d07565b9450611643565b8093505050505b919050565b6000604051905090565b600080fd5b600080fd5b6000819050919050565b6116ff816116ec565b811461170a57600080fd5b50565b60008135905061171c816116f6565b92915050565b60008060408385031215611739576117386116e2565b5b60006117478582860161170d565b92505060206117588582860161170d565b9150509250929050565b61176b816116ec565b82525050565b600081519050919050565b600082825260208201905092915050565b60005b838110156117ab578082015181840152602081019050611790565b60008484015250505050565b6000601f19601f8301169050919050565b60006117d382611771565b6117dd818561177c565b93506117ed81856020860161178d565b6117f6816117b7565b840191505092915050565b60006060820190506118166000830186611762565b818103602083015261182881856117c8565b90506118376040830184611762565b949350505050565b600060208284031215611855576118546116e2565b5b60006118638482850161170d565b91505092915050565b60008115159050919050565b6118818161186c565b82525050565b600073ffffffffffffffffffffffffffffffffffffffff82169050919050565b60006118b282611887565b9050919050565b6118c2816118a7565b82525050565b60006101008201905081810360008301526118e3818b6117c8565b905081810360208301526118f7818a6117c8565b90506119066040830189611762565b6119136060830188611762565b6119206080830187611878565b61192d60a08301866118b9565b61193a60c0830185611762565b61194760e0830184611762565b9998505050505050505050565b60006101208201905061196a600083018c611762565b818103602083015261197c818b6117c8565b90508181036040830152611990818a6117c8565b905061199f6060830189611762565b6119ac6080830188611762565b6119b960a0830187611878565b6119c660c08301866118b9565b6119d360e0830185611762565b6119e1610100830184611762565b9a9950505050505050505050565b6119f8816118a7565b8114611a0357600080fd5b50565b600081359050611a15816119ef565b92915050565b60008060408385031215611a3257611a316116e2565b5b6000611a408582860161170d565b9250506020611a5185828601611a06565b9150509250929050565b6000604082019050611a706000830185611878565b611a7d6020830184611762565b9392505050565b600081519050919050565b600082825260208201905092915050565b6000819050602082019050919050565b600082825260208201905092915050565b6000611acc82611771565b611ad68185611ab0565b9350611ae681856020860161178d565b611aef816117b7565b840191505092915050565b6000611b068383611ac1565b905092915050565b6000602082019050919050565b6000611b2682611a84565b611b308185611a8f565b935083602082028501611b4285611aa0565b8060005b85811015611b7e5784840389528151611b5f8582611afa565b9450611b6a83611b0e565b925060208a01995050600181019050611b46565b50829750879550505050505092915050565b600081519050919050565b600082825260208201905092915050565b6000819050602082019050919050565b611bc5816116ec565b82525050565b6000611bd78383611bbc565b60208301905092915050565b6000602082019050919050565b6000611bfb82611b90565b611c058185611b9b565b9350611c1083611bac565b8060005b83811015611c41578151611c288882611bcb565b9750611c3383611be3565b925050600181019050611c14565b5085935050505092915050565b60006040820190508181036000830152611c688185611b1b565b90508181036020830152611c7c8184611bf0565b90509392505050565b6000602082019050611c9a6000830184611762565b92915050565b6000602082019050611cb56000830184611878565b92915050565b600080fd5b600080fd5b7f4e487b7100000000000000000000000000000000000000000000000000000000600052604160045260246000fd5b611cfd826117b7565b810181811067ffffffffffffffff82111715611d1c57611d1b611cc5565b5b80604052505050565b6000611d2f6116d8565b9050611d3b8282611cf4565b919050565b600067ffffffffffffffff821115611d5b57611d5a611cc5565b5b611d64826117b7565b9050602081019050919050565b82818337600083830152505050565b6000611d93611d8e84611d40565b611d25565b905082815260208101848484011115611daf57611dae611cc0565b5b611dba848285611d71565b509392505050565b600082601f830112611dd757611dd6611cbb565b5b8135611de7848260208601611d80565b91505092915050565b600067ffffffffffffffff821115611e0b57611e0a611cc5565b5b602082029050602081019050919050565b600080fd5b6000611e34611e2f84611df0565b611d25565b90508083825260208201905060208402830185811115611e5757611e56611e1c565b5b835b81811015611e9e57803567ffffffffffffffff811115611e7c57611e7b611cbb565b5b808601611e898982611dc2565b85526020850194505050602081019050611e59565b5050509392505050565b600082601f830112611ebd57611ebc611cbb565b5b8135611ecd848260208601611e21565b91505092915050565b60008060008060008060c08789031215611ef357611ef26116e2565b5b600087013567ffffffffffffffff811115611f1157611f106116e7565b5b611f1d89828a01611dc2565b965050602087013567ffffffffffffffff811115611f3e57611f3d6116e7565b5b611f4a89828a01611dc2565b955050604087013567ffffffffffffffff811115611f6b57611f6a6116e7565b5b611f7789828a01611ea8565b9450506060611f8889828a0161170d565b9350506080611f9989828a0161170d565b92505060a0611faa89828a0161170d565b9150509295509295509295565b7f566f746520646f6573206e6f7420657869737400000000000000000000000000600082015250565b6000611fed60138361177c565b9150611ff882611fb7565b602082019050919050565b6000602082019050818103600083015261201c81611fe0565b9050919050565b7f566f7465206973206e6f74206163746976650000000000000000000000000000600082015250565b600061205960128361177c565b915061206482612023565b602082019050919050565b600060208201905081810360008301526120888161204c565b9050919050565b7f566f746520686173206e6f742073746172746564000000000000000000000000600082015250565b60006120c560148361177c565b91506120d08261208f565b602082019050919050565b600060208201905081810360008301526120f4816120b8565b9050919050565b7f566f74652068617320656e646564000000000000000000000000000000000000600082015250565b6000612131600e8361177c565b915061213c826120fb565b602082019050919050565b6000602082019050818103600083015261216081612124565b9050919050565b7f416c726561647920766f74656400000000000000000000000000000000000000600082015250565b600061219d600d8361177c565b91506121a882612167565b602082019050919050565b600060208201905081810360008301526121cc81612190565b9050919050565b7f496e76616c6964206f7074696f6e000000000000000000000000000000000000600082015250565b6000612209600e8361177c565b9150612214826121d3565b602082019050919050565b60006020820190508181036000830152612238816121fc565b9050919050565b7f4d6178696d756d207061727469636970616e7473207265616368656400000000600082015250565b6000612275601c8361177c565b91506122808261223f565b602082019050919050565b600060208201905081810360008301526122a481612268565b9050919050565b7f4e487b7100000000000000000000000000000000000000000000000000000000600052601160045260246000fd5b60006122e5826116ec565b91507fffffffffffffffffffffffffffffffffffffffffffffffffffffffffffffffff8203612317576123166122ab565b5b600182019050919050565b7f4e487b7100000000000000000000000000000000000000000000000000000000600052602260045260246000fd5b6000600282049050600182168061236957607f821691505b60208210810361237c5761237b612322565b5b50919050565b7f4f6e6c792063726561746f722063616e20706572666f726d207468697320616360008201527f74696f6e00000000000000000000000000000000000000000000000000000000602082015250565b60006123de60248361177c565b91506123e982612382565b604082019050919050565b6000602082019050818103600083015261240d816123d1565b9050919050565b7f566f746520616c726561647920656e6465640000000000000000000000000000600082015250565b600061244a60128361177c565b915061245582612414565b602082019050919050565b600060208201905081810360008301526124798161243d565b9050919050565b7f4e487b7100000000000000000000000000000000000000000000000000000000600052603260045260246000fd5b7f5469746c652063616e6e6f7420626520656d7074790000000000000000000000600082015250565b60006124e560158361177c565b91506124f0826124af565b602082019050919050565b60006020820190508181036000830152612514816124d8565b9050919050565b7f4465736372697074696f6e2063616e6e6f7420626520656d7074790000000000600082015250565b6000612551601b8361177c565b915061255c8261251b565b602082019050919050565b6000602082019050818103600083015261258081612544565b9050919050565b600081905092915050565b7f53746172742074696d65206d75737420626520696e207468652066757475726560008201527f2e20476976656e3a200000000000000000000000000000000000000000000000602082015250565b60006125ee602983612587565b91506125f982612592565b602982019050919050565b600061260f82611771565b6126198185612587565b935061262981856020860161178d565b80840191505092915050565b7f2c2043757272656e743a20000000000000000000000000000000000000000000600082015250565b600061266b600b83612587565b915061267682612635565b600b82019050919050565b600061268c826125e1565b91506126988285612604565b91506126a38261265e565b91506126af8284612604565b91508190509392505050565b600060208201905081810360008301526126d581846117c8565b905092915050565b7f456e642074696d65206d7573742062652061667465722073746172742074696d60008201527f652e2053746172743a2000000000000000000000000000000000000000000000602082015250565b6000612739602a83612587565b9150612744826126dd565b602a82019050919050565b7f2c20456e643a2000000000000000000000000000000000000000000000000000600082015250565b6000612785600783612587565b91506127908261274f565b600782019050919050565b60006127a68261272c565b91506127b28285612604565b91506127bd82612778565b91506127c98284612604565b91508190509392505050565b7f4d7573742068617665206174206c656173742032206f7074696f6e7300000000600082015250565b600061280b601c8361177c565b9150612816826127d5565b602082019050919050565b6000602082019050818103600083015261283a816127fe565b9050919050565b7f4d6178207061727469636970616e7473206d757374206265206772656174657260008201527f207468616e203000000000000000000000000000000000000000000000000000602082015250565b600061289d60278361177c565b91506128a882612841565b604082019050919050565b600060208201905081810360008301526128cc81612890565b9050919050565b7f4d6178207061727469636970616e74732063616e6e6f7420657863656564203160008201527f3030300000000000000000000000000000000000000000000000000000000000602082015250565b600061292f60238361177c565b915061293a826128d3565b604082019050919050565b6000602082019050818103600083015261295e81612922565b9050919050565b7f4f7074696f6e206e616d6520617420696e646578200000000000000000000000600082015250565b600061299b601583612587565b91506129a682612965565b601582019050919050565b7f2063616e6e6f7420626520656d70747900000000000000000000000000000000600082015250565b60006129e7601083612587565b91506129f2826129b1565b601082019050919050565b6000612a088261298e565b9150612a148284612604565b9150612a1f826129da565b915081905092915050565b60008190508160005260206000209050919050565b60006020601f8301049050919050565b600082821b905092915050565b600060088302612a8c7fffffffffffffffffffffffffffffffffffffffffffffffffffffffffffffffff82612a4f565b612a968683612a4f565b95508019841693508086168417925050509392505050565b6000819050919050565b6000612ad3612ace612ac9846116ec565b612aae565b6116ec565b9050919050565b6000819050919050565b612aed83612ab8565b612b01612af982612ada565b848454612a5c565b825550505050565b600090565b612b16612b09565b612b21818484612ae4565b505050565b5b81811015612b4557612b3a600082612b0e565b600181019050612b27565b5050565b601f821115612b8a57612b5b81612a2a565b612b6484612a3f565b81016020851015612b73578190505b612b87612b7f85612a3f565b830182612b26565b50505b505050565b600082821c905092915050565b6000612bad60001984600802612b8f565b1980831691505092915050565b6000612bc68383612b9c565b9150826002028217905092915050565b612bdf82611771565b67ffffffffffffffff811115612bf857612bf7611cc5565b5b612c028254612351565b612c0d828285612b49565b600060209050601f831160018114612c405760008415612c2e578287015190505b612c388582612bba565b865550612ca0565b601f198416612c4e86612a2a565b60005b82811015612c7657848901518255600182019150602085019450602081019050612c51565b86831015612c935784890151612c8f601f891682612b9c565b8355505b6001600288020188555050505b505050505050565b60006040820190508181036000830152612cc281856117c8565b9050612cd160208301846118b9565b9392505050565b7f4e487b7100000000000000000000000000000000000000000000000000000000600052601260045260246000fd5b6000612d12826116ec565b9150612d1d836116ec565b925082612d2d57612d2c612cd8565b5b828204905092915050565b6000612d43826116ec565b9150612d4e836116ec565b9250828203905081811115612d6657612d656122ab565b5b92915050565b6000612d77826116ec565b9150612d82836116ec565b925082612d9257612d91612cd8565b5b828206905092915050565b6000612da8826116ec565b9150612db3836116ec565b9250828201905080821115612dcb57612dca6122ab565b5b9291505056fea2646970667358221220172b75152e0250552ae7c21ea24df62fda384c882c9f33e49e762b20f895504764736f6c63430008180033",
  "linkReferences": {},
  "deployedLinkReferences": {}
}