{
  "_format": "hh-sol-artifact-1",
  "contractName": "VotingSystem",
  "sourceName": "contracts/vote.sol",
  "abi": [
    {
      "anonymous": false,
      "inputs": [
        {
          "indexed": true,
          "internalType": "uint256",
          "name": "voteId",
          "type": "uint256"
        },
        {
          "indexed": true,
          "internalType": "address",
          "name": "voter",
          "type": "address"
        },
        {
          "indexed": false,
          "internalType": "uint256",
          "name": "optionId",
          "type": "uint256"
        }
      ],
      "name": "VoteCast",
      "type": "event"
    },
    {
      "anonymous": false,
      "inputs": [
        {
          "indexed": true,
          "internalType": "uint256",
          "name": "voteId",
          "type": "uint256"
        },
        {
          "indexed": false,
          "internalType": "string",
          "name": "title",
          "type": "string"
        },
        {
          "indexed": false,
          "internalType": "address",
          "name": "creator",
          "type": "address"
        }
      ],
      "name": "VoteCreated",
      "type": "event"
    },
    {
      "anonymous": false,
      "inputs": [
        {
          "indexed": true,
          "internalType": "uint256",
          "name": "voteId",
          "type": "uint256"
        }
      ],
      "name": "VoteEnded",
      "type": "event"
    },
    {
      "anonymous": false,
      "inputs": [
        {
          "indexed": true,
          "internalType": "uint256",
          "name": "voteId",
          "type": "uint256"
        },
        {
          "indexed": false,
          "internalType": "string",
          "name": "newStatus",
          "type": "string"
        }
      ],
      "name": "VoteStatusUpdated",
      "type": "event"
    },
    {
      "inputs": [
        {
          "internalType": "uint256",
          "name": "_voteId",
          "type": "uint256"
        },
        {
          "internalType": "uint256",
          "name": "_optionId",
          "type": "uint256"
        }
      ],
      "name": "castVote",
      "outputs": [],
      "stateMutability": "nonpayable",
      "type": "function"
    },
    {
      "inputs": [
        {
          "internalType": "string",
          "name": "_title",
          "type": "string"
        },
        {
          "internalType": "string",
          "name": "_description",
          "type": "string"
        },
        {
          "internalType": "string[]",
          "name": "_optionNames",
          "type": "string[]"
        },
        {
          "internalType": "uint256",
          "name": "_startTime",
          "type": "uint256"
        },
        {
          "internalType": "uint256",
          "name": "_endTime",
          "type": "uint256"
        },
        {
          "internalType": "uint256",
          "name": "_maxParticipants",
          "type": "uint256"
        },
        {
          "internalType": "string",
          "name": "_roomName",
          "type": "string"
        },
        {
          "internalType": "string",
          "name": "_accessCode",
          "type": "string"
        }
      ],
      "name": "createVote",
      "outputs": [
        {
          "internalType": "uint256",
          "name": "",
          "type": "uint256"
        }
      ],
      "stateMutability": "nonpayable",
      "type": "function"
    },
    {
      "inputs": [
        {
          "internalType": "uint256",
          "name": "_voteId",
          "type": "uint256"
        }
      ],
      "name": "endVote",
      "outputs": [],
      "stateMutability": "nonpayable",
      "type": "function"
    },
    {
      "inputs": [],
      "name": "getAllVoteOptions",
      "outputs": [
        {
          "components": [
            {
              "internalType": "string",
              "name": "name",
              "type": "string"
            },
            {
              "internalType": "uint256",
              "name": "voteCount",
              "type": "uint256"
            }
          ],
          "internalType": "struct VotingSystem.VoteOption[][]",
          "name": "",
          "type": "tuple[][]"
        }
      ],
      "stateMutability": "view",
      "type": "function"
    },
    {
      "inputs": [],
      "name": "getAllVotesPart1",
      "outputs": [
        {
          "internalType": "uint256[]",
          "name": "voteIds",
          "type": "uint256[]"
        },
        {
          "internalType": "string[]",
          "name": "titles",
          "type": "string[]"
        },
        {
          "internalType": "string[]",
          "name": "descriptions",
          "type": "string[]"
        },
        {
          "internalType": "uint256[]",
          "name": "startTimes",
          "type": "uint256[]"
        }
      ],
      "stateMutability": "view",
      "type": "function"
    },
    {
      "inputs": [],
      "name": "getAllVotesPart2",
      "outputs": [
        {
          "internalType": "uint256[]",
          "name": "endTimes",
          "type": "uint256[]"
        },
        {
          "internalType": "bool[]",
          "name": "isActives",
          "type": "bool[]"
        },
        {
          "internalType": "address[]",
          "name": "creators",
          "type": "address[]"
        },
        {
          "internalType": "uint256[]",
          "name": "maxParticipants",
          "type": "uint256[]"
        }
      ],
      "stateMutability": "view",
      "type": "function"
    },
    {
      "inputs": [],
      "name": "getAllVotesPart3",
      "outputs": [
        {
          "internalType": "uint256[]",
          "name": "currentParticipants",
          "type": "uint256[]"
        },
        {
          "internalType": "string[]",
          "name": "roomNames",
          "type": "string[]"
        },
        {
          "internalType": "string[]",
          "name": "accessCodes",
          "type": "string[]"
        },
        {
          "internalType": "string[]",
          "name": "statuses",
          "type": "string[]"
        }
      ],
      "stateMutability": "view",
      "type": "function"
    },
    {
      "inputs": [],
      "name": "getTotalVotes",
      "outputs": [
        {
          "internalType": "uint256",
          "name": "totalVotes",
          "type": "uint256"
        },
        {
          "components": [
            {
              "internalType": "string",
              "name": "name",
              "type": "string"
            },
            {
              "internalType": "uint256",
              "name": "voteCount",
              "type": "uint256"
            }
          ],
          "internalType": "struct VotingSystem.VoteOption[]",
          "name": "options",
          "type": "tuple[]"
        }
      ],
      "stateMutability": "view",
      "type": "function"
    },
    {
      "inputs": [],
      "name": "getVoteCount",
      "outputs": [
        {
          "internalType": "uint256",
          "name": "",
          "type": "uint256"
        }
      ],
      "stateMutability": "view",
      "type": "function"
    },
    {
      "inputs": [
        {
          "internalType": "uint256",
          "name": "_voteId",
          "type": "uint256"
        }
      ],
      "name": "getVoteDetails",
      "outputs": [
        {
          "internalType": "string",
          "name": "title",
          "type": "string"
        },
        {
          "internalType": "string",
          "name": "description",
          "type": "string"
        },
        {
          "internalType": "uint256",
          "name": "startTime",
          "type": "uint256"
        },
        {
          "internalType": "uint256",
          "name": "endTime",
          "type": "uint256"
        },
        {
          "internalType": "bool",
          "name": "isActive",
          "type": "bool"
        },
        {
          "internalType": "address",
          "name": "creator",
          "type": "address"
        },
        {
          "internalType": "uint256",
          "name": "maxParticipants",
          "type": "uint256"
        },
        {
          "internalType": "uint256",
          "name": "currentParticipants",
          "type": "uint256"
        },
        {
          "internalType": "string",
          "name": "roomName",
          "type": "string"
        },
        {
          "internalType": "string",
          "name": "accessCode",
          "type": "string"
        },
        {
          "internalType": "string",
          "name": "status",
          "type": "string"
        }
      ],
      "stateMutability": "view",
      "type": "function"
    },
    {
      "inputs": [
        {
          "internalType": "uint256",
          "name": "voteId",
          "type": "uint256"
        }
      ],
      "name": "getVoteOptions",
      "outputs": [
        {
          "components": [
            {
              "internalType": "string",
              "name": "name",
              "type": "string"
            },
            {
              "internalType": "uint256",
              "name": "voteCount",
              "type": "uint256"
            }
          ],
          "internalType": "struct VotingSystem.VoteOption[]",
          "name": "",
          "type": "tuple[]"
        }
      ],
      "stateMutability": "view",
      "type": "function"
    },
    {
      "inputs": [
        {
          "internalType": "uint256",
          "name": "_voteId",
          "type": "uint256"
        }
      ],
      "name": "getVoteResults",
      "outputs": [
        {
          "internalType": "string[]",
          "name": "names",
          "type": "string[]"
        },
        {
          "internalType": "uint256[]",
          "name": "counts",
          "type": "uint256[]"
        }
      ],
      "stateMutability": "view",
      "type": "function"
    },
    {
      "inputs": [
        {
          "internalType": "uint256",
          "name": "_voteId",
          "type": "uint256"
        },
        {
          "internalType": "address",
          "name": "_voter",
          "type": "address"
        }
      ],
      "name": "hasUserVoted",
      "outputs": [
        {
          "internalType": "bool",
          "name": "",
          "type": "bool"
        }
      ],
      "stateMutability": "view",
      "type": "function"
    },
    {
      "inputs": [
        {
          "internalType": "uint256",
          "name": "",
          "type": "uint256"
        }
      ],
      "name": "optionCounts",
      "outputs": [
        {
          "internalType": "uint256",
          "name": "",
          "type": "uint256"
        }
      ],
      "stateMutability": "view",
      "type": "function"
    },
    {
      "inputs": [
        {
          "internalType": "uint256",
          "name": "_voteId",
          "type": "uint256"
        },
        {
          "internalType": "string",
          "name": "_newStatus",
          "type": "string"
        }
      ],
      "name": "updateVoteStatus",
      "outputs": [],
      "stateMutability": "nonpayable",
      "type": "function"
    },
    {
      "inputs": [
        {
          "internalType": "uint256",
          "name": "",
          "type": "uint256"
        },
        {
          "internalType": "uint256",
          "name": "",
          "type": "uint256"
        }
      ],
      "name": "voteOptions",
      "outputs": [
        {
          "internalType": "uint256",
          "name": "id",
          "type": "uint256"
        },
        {
          "internalType": "string",
          "name": "name",
          "type": "string"
        },
        {
          "internalType": "uint256",
          "name": "voteCount",
          "type": "uint256"
        }
      ],
      "stateMutability": "view",
      "type": "function"
    },
    {
      "inputs": [
        {
          "internalType": "uint256",
          "name": "",
          "type": "uint256"
        },
        {
          "internalType": "address",
          "name": "",
          "type": "address"
        }
      ],
      "name": "voters",
      "outputs": [
        {
          "internalType": "bool",
          "name": "hasVoted",
          "type": "bool"
        },
        {
          "internalType": "uint256",
          "name": "votedOptionId",
          "type": "uint256"
        }
      ],
      "stateMutability": "view",
      "type": "function"
    },
    {
      "inputs": [
        {
          "internalType": "uint256",
          "name": "",
          "type": "uint256"
        }
      ],
      "name": "votes",
      "outputs": [
        {
          "internalType": "uint256",
          "name": "id",
          "type": "uint256"
        },
        {
          "internalType": "string",
          "name": "title",
          "type": "string"
        },
        {
          "internalType": "string",
          "name": "description",
          "type": "string"
        },
        {
          "internalType": "uint256",
          "name": "startTime",
          "type": "uint256"
        },
        {
          "internalType": "uint256",
          "name": "endTime",
          "type": "uint256"
        },
        {
          "internalType": "bool",
          "name": "isActive",
          "type": "bool"
        },
        {
          "internalType": "address",
          "name": "creator",
          "type": "address"
        },
        {
          "internalType": "uint256",
          "name": "maxParticipants",
          "type": "uint256"
        },
        {
          "internalType": "uint256",
          "name": "currentParticipants",
          "type": "uint256"
        },
        {
          "internalType": "string",
          "name": "roomName",
          "type": "string"
        },
        {
          "internalType": "string",
          "name": "accessCode",
          "type": "string"
        },
        {
          "internalType": "string",
          "name": "status",
          "type": "string"
        }
      ],
      "stateMutability": "view",
      "type": "function"
    }
  ],
  "bytecode": "0x608060405234801561001057600080fd5b5061569880620000216000396000f3fe608060405234801561001057600080fd5b50600436106101165760003560e01c80639a0e7d66116100a2578063dc296ae111610071578063dc296ae114610336578063e71e89de14610366578063e7b3387c14610387578063f1e6bb1c146103a5578063f71d1c27146103d557610116565b80639a0e7d66146102855780639e319063146102a4578063a88922b3146102d5578063b0d261681461030657610116565b806354a1b431116100e957806354a1b431146101a85780635df81330146101e25780638053f7ad1461021d578063865df0ad146102395780638c1bdbae1461025557610116565b80630d5b98541461011b5780632c0a3f891461013c5780633c4f55001461015857806350cf30631461018a575b600080fd5b6101236103f6565b60405161013394939291906139e6565b60405180910390f35b61015660048036038101906101519190613a87565b6109db565b005b610172600480360381019061016d9190613a87565b610dfc565b60405161018193929190613b66565b60405180910390f35b610192610ebb565b60405161019f9190613daf565b60405180910390f35b6101c260048036038101906101bd9190613dd1565b611149565b6040516101d99b9a99989796959493929190613e1c565b60405180910390f35b6101fc60048036038101906101f79190613dd1565b6115b3565b6040516102149c9b9a99989796959493929190613eea565b60405180910390f35b610237600480360381019061023291906140fc565b6118e8565b005b610253600480360381019061024e9190613dd1565b611b84565b005b61026f600480360381019061026a919061423e565b611d9a565b60405161027c9190614380565b60405180910390f35b61028d6123ee565b60405161029b929190614421565b60405180910390f35b6102be60048036038101906102b9919061447d565b6125ac565b6040516102cc9291906144bd565b60405180910390f35b6102ef60048036038101906102ea9190613dd1565b6125ea565b6040516102fd9291906145a8565b60405180910390f35b610320600480360381019061031b9190613dd1565b612839565b60405161032d9190614380565b60405180910390f35b610350600480360381019061034b919061447d565b612851565b60405161035d91906145df565b60405180910390f35b61036e6128bc565b60405161037e94939291906145fa565b60405180910390f35b61038f612e7d565b60405161039c9190614380565b60405180910390f35b6103bf60048036038101906103ba9190613dd1565b612e87565b6040516103cc919061465b565b60405180910390f35b6103dd613031565b6040516103ed949392919061467d565b60405180910390f35b606080606080600060045490508067ffffffffffffffff81111561041d5761041c613fd1565b5b60405190808252806020026020018201604052801561044b5781602001602082028036833780820191505090505b5094508067ffffffffffffffff81111561046857610467613fd1565b5b6040519080825280602002602001820160405280156104965781602001602082028036833780820191505090505b5093508067ffffffffffffffff8111156104b3576104b2613fd1565b5b6040519080825280602002602001820160405280156104e15781602001602082028036833780820191505090505b5092508067ffffffffffffffff8111156104fe576104fd613fd1565b5b60405190808252806020026020018201604052801561052c5781602001602082028036833780820191505090505b5091506000600190505b8181116109d357600080600083815260200190815260200160002060405180610180016040529081600082015481526020016001820180546105779061470d565b80601f01602080910402602001604051908101604052809291908181526020018280546105a39061470d565b80156105f05780601f106105c5576101008083540402835291602001916105f0565b820191906000526020600020905b8154815290600101906020018083116105d357829003601f168201915b505050505081526020016002820180546106099061470d565b80601f01602080910402602001604051908101604052809291908181526020018280546106359061470d565b80156106825780601f1061065757610100808354040283529160200191610682565b820191906000526020600020905b81548152906001019060200180831161066557829003601f168201915b5050505050815260200160038201548152602001600482015481526020016005820160009054906101000a900460ff161515151581526020016005820160019054906101000a900473ffffffffffffffffffffffffffffffffffffffff1673ffffffffffffffffffffffffffffffffffffffff1673ffffffffffffffffffffffffffffffffffffffff16815260200160068201548152602001600782015481526020016008820180546107349061470d565b80601f01602080910402602001604051908101604052809291908181526020018280546107609061470d565b80156107ad5780601f10610782576101008083540402835291602001916107ad565b820191906000526020600020905b81548152906001019060200180831161079057829003601f168201915b505050505081526020016009820180546107c69061470d565b80601f01602080910402602001604051908101604052809291908181526020018280546107f29061470d565b801561083f5780601f106108145761010080835404028352916020019161083f565b820191906000526020600020905b81548152906001019060200180831161082257829003601f168201915b50505050508152602001600a820180546108589061470d565b80601f01602080910402602001604051908101604052809291908181526020018280546108849061470d565b80156108d15780601f106108a6576101008083540402835291602001916108d1565b820191906000526020600020905b8154815290600101906020018083116108b457829003601f168201915b505050505081525050905060008160000151146109bf5760006001836108f7919061476d565b90508160800151888281518110610911576109106147a1565b5b6020026020010181815250508160a00151878281518110610935576109346147a1565b5b6020026020010190151590811515815250508160c0015186828151811061095f5761095e6147a1565b5b602002602001019073ffffffffffffffffffffffffffffffffffffffff16908173ffffffffffffffffffffffffffffffffffffffff16815250508160e001518582815181106109b1576109b06147a1565b5b602002602001018181525050505b5080806109cb906147d0565b915050610536565b505090919293565b81806000808381526020019081526020016000206000015414610a33576040517f08c379a0000000000000000000000000000000000000000000000000000000008152600401610a2a90614864565b60405180910390fd5b8260008082815260200190815260200160002060050160009054906101000a900460ff16610a96576040517f08c379a0000000000000000000000000000000000000000000000000000000008152600401610a8d906148d0565b60405180910390fd5b60008082815260200190815260200160002060030154421015610aee576040517f08c379a0000000000000000000000000000000000000000000000000000000008152600401610ae59061493c565b60405180910390fd5b60008082815260200190815260200160002060040154421115610b46576040517f08c379a0000000000000000000000000000000000000000000000000000000008152600401610b3d906149a8565b60405180910390fd5b836002600082815260200190815260200160002060003373ffffffffffffffffffffffffffffffffffffffff1673ffffffffffffffffffffffffffffffffffffffff16815260200190815260200160002060000160009054906101000a900460ff1615610be8576040517f08c379a0000000000000000000000000000000000000000000000000000000008152600401610bdf90614a14565b60405180910390fd5b60036000868152602001908152602001600020548410610c3d576040517f08c379a0000000000000000000000000000000000000000000000000000000008152600401610c3490614a80565b60405180910390fd5b600080868152602001908152602001600020600601546000808781526020019081526020016000206007015410610ca9576040517f08c379a0000000000000000000000000000000000000000000000000000000008152600401610ca090614aec565b60405180910390fd5b6040518060400160405280600115158152602001858152506002600087815260200190815260200160002060003373ffffffffffffffffffffffffffffffffffffffff1673ffffffffffffffffffffffffffffffffffffffff16815260200190815260200160002060008201518160000160006101000a81548160ff021916908315150217905550602082015181600101559050506001600086815260200190815260200160002060008581526020019081526020016000206002016000815480929190610d76906147d0565b91905055506000808681526020019081526020016000206007016000815480929190610da1906147d0565b91905055503373ffffffffffffffffffffffffffffffffffffffff16857f2acce567deca3aabf56327adbb4524bd5318936eaefa69e3a5208ffda0cfec0986604051610ded9190614380565b60405180910390a35050505050565b600160205281600052604060002060205280600052604060002060009150915050806000015490806001018054610e329061470d565b80601f0160208091040260200160405190810160405280929190818152602001828054610e5e9061470d565b8015610eab5780601f10610e8057610100808354040283529160200191610eab565b820191906000526020600020905b815481529060010190602001808311610e8e57829003601f168201915b5050505050908060020154905083565b60606000600454905060008167ffffffffffffffff811115610ee057610edf613fd1565b5b604051908082528060200260200182016040528015610f1357816020015b6060815260200190600190039081610efe5790505b5090506000600190505b828111611140576000806000838152602001908152602001600020600001541461112d576000600360008381526020019081526020016000205490508067ffffffffffffffff811115610f7357610f72613fd1565b5b604051908082528060200260200182016040528015610fac57816020015b610f9961374a565b815260200190600190039081610f915790505b5083600184610fbb919061476d565b81518110610fcc57610fcb6147a1565b5b602002602001018190525060005b8181101561112a5760006001600085815260200190815260200160002060008381526020019081526020016000206040518060600160405290816000820154815260200160018201805461102d9061470d565b80601f01602080910402602001604051908101604052809291908181526020018280546110599061470d565b80156110a65780601f1061107b576101008083540402835291602001916110a6565b820191906000526020600020905b81548152906001019060200180831161108957829003601f168201915b5050505050815260200160028201548152505090506040518060400160405280826020015181526020018260400151815250856001866110e6919061476d565b815181106110f7576110f66147a1565b5b60200260200101518381518110611111576111106147a1565b5b6020026020010181905250508080600101915050610fda565b50505b8080611138906147d0565b915050610f1d565b50809250505090565b60608060008060008060008060608060608b8060008083815260200190815260200160002060000154146111b2576040517f08c379a00000000000000000000000000000000000000000000000000000000081526004016111a990614864565b60405180910390fd5b60008060008f815260200190815260200160002060405180610180016040529081600082015481526020016001820180546111ec9061470d565b80601f01602080910402602001604051908101604052809291908181526020018280546112189061470d565b80156112655780601f1061123a57610100808354040283529160200191611265565b820191906000526020600020905b81548152906001019060200180831161124857829003601f168201915b5050505050815260200160028201805461127e9061470d565b80601f01602080910402602001604051908101604052809291908181526020018280546112aa9061470d565b80156112f75780601f106112cc576101008083540402835291602001916112f7565b820191906000526020600020905b8154815290600101906020018083116112da57829003601f168201915b5050505050815260200160038201548152602001600482015481526020016005820160009054906101000a900460ff161515151581526020016005820160019054906101000a900473ffffffffffffffffffffffffffffffffffffffff1673ffffffffffffffffffffffffffffffffffffffff1673ffffffffffffffffffffffffffffffffffffffff16815260200160068201548152602001600782015481526020016008820180546113a99061470d565b80601f01602080910402602001604051908101604052809291908181526020018280546113d59061470d565b80156114225780601f106113f757610100808354040283529160200191611422565b820191906000526020600020905b81548152906001019060200180831161140557829003601f168201915b5050505050815260200160098201805461143b9061470d565b80601f01602080910402602001604051908101604052809291908181526020018280546114679061470d565b80156114b45780601f10611489576101008083540402835291602001916114b4565b820191906000526020600020905b81548152906001019060200180831161149757829003601f168201915b50505050508152602001600a820180546114cd9061470d565b80601f01602080910402602001604051908101604052809291908181526020018280546114f99061470d565b80156115465780601f1061151b57610100808354040283529160200191611546565b820191906000526020600020905b81548152906001019060200180831161152957829003601f168201915b505050505081525050905080602001518160400151826060015183608001518460a001518560c001518660e001518761010001518861012001518961014001518a61016001519c509c509c509c509c509c509c509c509c509c509c50505091939597999b90929496989a50565b60006020528060005260406000206000915090508060000154908060010180546115dc9061470d565b80601f01602080910402602001604051908101604052809291908181526020018280546116089061470d565b80156116555780601f1061162a57610100808354040283529160200191611655565b820191906000526020600020905b81548152906001019060200180831161163857829003601f168201915b50505050509080600201805461166a9061470d565b80601f01602080910402602001604051908101604052809291908181526020018280546116969061470d565b80156116e35780601f106116b8576101008083540402835291602001916116e3565b820191906000526020600020905b8154815290600101906020018083116116c657829003601f168201915b5050505050908060030154908060040154908060050160009054906101000a900460ff16908060050160019054906101000a900473ffffffffffffffffffffffffffffffffffffffff16908060060154908060070154908060080180546117499061470d565b80601f01602080910402602001604051908101604052809291908181526020018280546117759061470d565b80156117c25780601f10611797576101008083540402835291602001916117c2565b820191906000526020600020905b8154815290600101906020018083116117a557829003601f168201915b5050505050908060090180546117d79061470d565b80601f01602080910402602001604051908101604052809291908181526020018280546118039061470d565b80156118505780601f1061182557610100808354040283529160200191611850565b820191906000526020600020905b81548152906001019060200180831161183357829003601f168201915b50505050509080600a0180546118659061470d565b80601f01602080910402602001604051908101604052809291908181526020018280546118919061470d565b80156118de5780601f106118b3576101008083540402835291602001916118de565b820191906000526020600020905b8154815290600101906020018083116118c157829003601f168201915b505050505090508c565b81806000808381526020019081526020016000206000015414611940576040517f08c379a000000000000000000000000000000000000000000000000000000000815260040161193790614864565b60405180910390fd5b60008084815260200190815260200160002060050160019054906101000a900473ffffffffffffffffffffffffffffffffffffffff1673ffffffffffffffffffffffffffffffffffffffff163373ffffffffffffffffffffffffffffffffffffffff1614806119ee5750738626f6940e2eb28930efb4cef49b2d1f2c9c119973ffffffffffffffffffffffffffffffffffffffff163373ffffffffffffffffffffffffffffffffffffffff16145b611a2d576040517f08c379a0000000000000000000000000000000000000000000000000000000008152600401611a2490614b7e565b60405180910390fd5b81600080858152602001908152602001600020600a019081611a4f9190614d4a565b506040518060400160405280600681526020017f616374697665000000000000000000000000000000000000000000000000000081525080519060200120828051906020012003611acd57600160008085815260200190815260200160002060050160006101000a81548160ff021916908315150217905550611b47565b6040518060400160405280600681526020017f636c6f736564000000000000000000000000000000000000000000000000000081525080519060200120828051906020012003611b4657600080600085815260200190815260200160002060050160006101000a81548160ff0219169083151502179055505b5b827f159a9374a20d2b57ba41813df9de8007c32f0b5d154847056b30c1be134af53383604051611b779190614e1c565b60405180910390a2505050565b80806000808381526020019081526020016000206000015414611bdc576040517f08c379a0000000000000000000000000000000000000000000000000000000008152600401611bd390614864565b60405180910390fd5b813373ffffffffffffffffffffffffffffffffffffffff1660008083815260200190815260200160002060050160019054906101000a900473ffffffffffffffffffffffffffffffffffffffff1673ffffffffffffffffffffffffffffffffffffffff1614611c80576040517f08c379a0000000000000000000000000000000000000000000000000000000008152600401611c7790614eb0565b60405180910390fd5b60008084815260200190815260200160002060050160009054906101000a900460ff16611ce2576040517f08c379a0000000000000000000000000000000000000000000000000000000008152600401611cd990614f1c565b60405180910390fd5b600080600085815260200190815260200160002060050160006101000a81548160ff0219169083151502179055506040518060400160405280600681526020017f636c6f7365640000000000000000000000000000000000000000000000000000815250600080858152602001908152602001600020600a019081611d679190614d4a565b50827fe12e0241ed3b6bb5b8b9e5b0c487661a72158d47e347fa539ef01a1fafcb3a3d60405160405180910390a2505050565b600080895111611ddf576040517f08c379a0000000000000000000000000000000000000000000000000000000008152600401611dd690614f88565b60405180910390fd5b6000885111611e23576040517f08c379a0000000000000000000000000000000000000000000000000000000008152600401611e1a90614ff4565b60405180910390fd5b6000835111611e67576040517f08c379a0000000000000000000000000000000000000000000000000000000008152600401611e5e90615060565b60405180910390fd5b6000825111611eab576040517f08c379a0000000000000000000000000000000000000000000000000000000008152600401611ea2906150cc565b60405180910390fd5b42861015611eb8876135ea565b611ec1426135ea565b604051602001611ed29291906151e6565b60405160208183030381529060405290611f22576040517f08c379a0000000000000000000000000000000000000000000000000000000008152600401611f199190614e1c565b60405180910390fd5b50858511611f2f876135ea565b611f38876135ea565b604051602001611f499291906152de565b60405160208183030381529060405290611f99576040517f08c379a0000000000000000000000000000000000000000000000000000000008152600401611f909190614e1c565b60405180910390fd5b50600287511015611fdf576040517f08c379a0000000000000000000000000000000000000000000000000000000008152600401611fd690615364565b60405180910390fd5b60008411612022576040517f08c379a0000000000000000000000000000000000000000000000000000000008152600401612019906153f6565b60405180910390fd5b6103e8841115612067576040517f08c379a000000000000000000000000000000000000000000000000000000000815260040161205e90615488565b60405180910390fd5b60005b8751811015612109576000888281518110612088576120876147a1565b5b6020026020010151511161209b826135ea565b6040516020016120ab9190615540565b604051602081830303815290604052906120fb576040517f08c379a00000000000000000000000000000000000000000000000000000000081526004016120f29190614e1c565b60405180910390fd5b50808060010191505061206a565b506004600081548092919061211d906147d0565b9190505550600060045490506040518061018001604052808281526020018b81526020018a81526020018881526020018781526020016001151581526020013373ffffffffffffffffffffffffffffffffffffffff168152602001868152602001600081526020018581526020018481526020016040518060400160405280600381526020017f6e657700000000000000000000000000000000000000000000000000000000008152508152506000808381526020019081526020016000206000820151816000015560208201518160010190816121fb9190614d4a565b5060408201518160020190816122119190614d4a565b50606082015181600301556080820151816004015560a08201518160050160006101000a81548160ff02191690831515021790555060c08201518160050160016101000a81548173ffffffffffffffffffffffffffffffffffffffff021916908373ffffffffffffffffffffffffffffffffffffffff16021790555060e0820151816006015561010082015181600701556101208201518160080190816122b89190614d4a565b506101408201518160090190816122cf9190614d4a565b5061016082015181600a0190816122e69190614d4a565b5090505060005b885181101561238a5760405180606001604052808281526020018a838151811061231a576123196147a1565b5b60200260200101518152602001600081525060016000848152602001908152602001600020600083815260200190815260200160002060008201518160000155602082015181600101908161236f9190614d4a565b506040820151816002015590505080806001019150506122ed565b5087516003600083815260200190815260200160002081905550807f0b0eb434b18eb3f0d02f9b4b01d92bf397c2fde355b0b3fad98aa2a5ffd63c2c8b336040516123d692919061556d565b60405180910390a28091505098975050505050505050565b60006060600454915060006001600454612408919061476d565b90506000600360008381526020019081526020016000205490508067ffffffffffffffff81111561243c5761243b613fd1565b5b60405190808252806020026020018201604052801561247557816020015b61246261374a565b81526020019060019003908161245a5790505b50925060005b818110156125a5576000600160008581526020019081526020016000206000838152602001908152602001600020604051806060016040529081600082015481526020016001820180546124ce9061470d565b80601f01602080910402602001604051908101604052809291908181526020018280546124fa9061470d565b80156125475780601f1061251c57610100808354040283529160200191612547565b820191906000526020600020905b81548152906001019060200180831161252a57829003601f168201915b505050505081526020016002820154815250509050604051806040016040528082602001518152602001826040015181525085838151811061258c5761258b6147a1565b5b602002602001018190525050808060010191505061247b565b5050509091565b6002602052816000526040600020602052806000526040600020600091509150508060000160009054906101000a900460ff16908060010154905082565b60608082806000808381526020019081526020016000206000015414612645576040517f08c379a000000000000000000000000000000000000000000000000000000000815260040161263c90614864565b60405180910390fd5b6000600360008681526020019081526020016000205490508067ffffffffffffffff81111561267757612676613fd1565b5b6040519080825280602002602001820160405280156126aa57816020015b60608152602001906001900390816126955790505b5093508067ffffffffffffffff8111156126c7576126c6613fd1565b5b6040519080825280602002602001820160405280156126f55781602001602082028036833780820191505090505b50925060005b818110156128315760006001600088815260200190815260200160002060008381526020019081526020016000206040518060600160405290816000820154815260200160018201805461274e9061470d565b80601f016020809104026020016040519081016040528092919081815260200182805461277a9061470d565b80156127c75780601f1061279c576101008083540402835291602001916127c7565b820191906000526020600020905b8154815290600101906020018083116127aa57829003601f168201915b50505050508152602001600282015481525050905080602001518683815181106127f4576127f36147a1565b5b60200260200101819052508060400151858381518110612817576128166147a1565b5b6020026020010181815250505080806001019150506126fb565b505050915091565b60036020528060005260406000206000915090505481565b60006002600084815260200190815260200160002060008373ffffffffffffffffffffffffffffffffffffffff1673ffffffffffffffffffffffffffffffffffffffff16815260200190815260200160002060000160009054906101000a900460ff16905092915050565b606080606080600060045490508067ffffffffffffffff8111156128e3576128e2613fd1565b5b6040519080825280602002602001820160405280156129115781602001602082028036833780820191505090505b5094508067ffffffffffffffff81111561292e5761292d613fd1565b5b60405190808252806020026020018201604052801561296157816020015b606081526020019060019003908161294c5790505b5093508067ffffffffffffffff81111561297e5761297d613fd1565b5b6040519080825280602002602001820160405280156129b157816020015b606081526020019060019003908161299c5790505b5092508067ffffffffffffffff8111156129ce576129cd613fd1565b5b604051908082528060200260200182016040528015612a0157816020015b60608152602001906001900390816129ec5790505b5091506000600190505b818111612e755760008060008381526020019081526020016000206040518061018001604052908160008201548152602001600182018054612a4c9061470d565b80601f0160208091040260200160405190810160405280929190818152602001828054612a789061470d565b8015612ac55780601f10612a9a57610100808354040283529160200191612ac5565b820191906000526020600020905b815481529060010190602001808311612aa857829003601f168201915b50505050508152602001600282018054612ade9061470d565b80601f0160208091040260200160405190810160405280929190818152602001828054612b0a9061470d565b8015612b575780601f10612b2c57610100808354040283529160200191612b57565b820191906000526020600020905b815481529060010190602001808311612b3a57829003601f168201915b5050505050815260200160038201548152602001600482015481526020016005820160009054906101000a900460ff161515151581526020016005820160019054906101000a900473ffffffffffffffffffffffffffffffffffffffff1673ffffffffffffffffffffffffffffffffffffffff1673ffffffffffffffffffffffffffffffffffffffff1681526020016006820154815260200160078201548152602001600882018054612c099061470d565b80601f0160208091040260200160405190810160405280929190818152602001828054612c359061470d565b8015612c825780601f10612c5757610100808354040283529160200191612c82565b820191906000526020600020905b815481529060010190602001808311612c6557829003601f168201915b50505050508152602001600982018054612c9b9061470d565b80601f0160208091040260200160405190810160405280929190818152602001828054612cc79061470d565b8015612d145780601f10612ce957610100808354040283529160200191612d14565b820191906000526020600020905b815481529060010190602001808311612cf757829003601f168201915b50505050508152602001600a82018054612d2d9061470d565b80601f0160208091040260200160405190810160405280929190818152602001828054612d599061470d565b8015612da65780601f10612d7b57610100808354040283529160200191612da6565b820191906000526020600020905b815481529060010190602001808311612d8957829003601f168201915b50505050508152505090506000816000015114612e61576000600183612dcc919061476d565b9050816101000151888281518110612de757612de66147a1565b5b602002602001018181525050816101200151878281518110612e0c57612e0b6147a1565b5b6020026020010181905250816101400151868281518110612e3057612e2f6147a1565b5b6020026020010181905250816101600151858281518110612e5457612e536147a1565b5b6020026020010181905250505b508080612e6d906147d0565b915050612a0b565b505090919293565b6000600454905090565b606060006003600084815260200190815260200160002054905060008167ffffffffffffffff811115612ebd57612ebc613fd1565b5b604051908082528060200260200182016040528015612ef657816020015b612ee361374a565b815260200190600190039081612edb5790505b50905060005b8281101561302657600060016000878152602001908152602001600020600083815260200190815260200160002060405180606001604052908160008201548152602001600182018054612f4f9061470d565b80601f0160208091040260200160405190810160405280929190818152602001828054612f7b9061470d565b8015612fc85780601f10612f9d57610100808354040283529160200191612fc8565b820191906000526020600020905b815481529060010190602001808311612fab57829003601f168201915b505050505081526020016002820154815250509050604051806040016040528082602001518152602001826040015181525083838151811061300d5761300c6147a1565b5b6020026020010181905250508080600101915050612efc565b508092505050919050565b606080606080600060045490508067ffffffffffffffff81111561305857613057613fd1565b5b6040519080825280602002602001820160405280156130865781602001602082028036833780820191505090505b5094508067ffffffffffffffff8111156130a3576130a2613fd1565b5b6040519080825280602002602001820160405280156130d657816020015b60608152602001906001900390816130c15790505b5093508067ffffffffffffffff8111156130f3576130f2613fd1565b5b60405190808252806020026020018201604052801561312657816020015b60608152602001906001900390816131115790505b5092508067ffffffffffffffff81111561314357613142613fd1565b5b6040519080825280602002602001820160405280156131715781602001602082028036833780820191505090505b5091506000600190505b8181116135e257600080600083815260200190815260200160002060405180610180016040529081600082015481526020016001820180546131bc9061470d565b80601f01602080910402602001604051908101604052809291908181526020018280546131e89061470d565b80156132355780601f1061320a57610100808354040283529160200191613235565b820191906000526020600020905b81548152906001019060200180831161321857829003601f168201915b5050505050815260200160028201805461324e9061470d565b80601f016020809104026020016040519081016040528092919081815260200182805461327a9061470d565b80156132c75780601f1061329c576101008083540402835291602001916132c7565b820191906000526020600020905b8154815290600101906020018083116132aa57829003601f168201915b5050505050815260200160038201548152602001600482015481526020016005820160009054906101000a900460ff161515151581526020016005820160019054906101000a900473ffffffffffffffffffffffffffffffffffffffff1673ffffffffffffffffffffffffffffffffffffffff1673ffffffffffffffffffffffffffffffffffffffff16815260200160068201548152602001600782015481526020016008820180546133799061470d565b80601f01602080910402602001604051908101604052809291908181526020018280546133a59061470d565b80156133f25780601f106133c7576101008083540402835291602001916133f2565b820191906000526020600020905b8154815290600101906020018083116133d557829003601f168201915b5050505050815260200160098201805461340b9061470d565b80601f01602080910402602001604051908101604052809291908181526020018280546134379061470d565b80156134845780601f1061345957610100808354040283529160200191613484565b820191906000526020600020905b81548152906001019060200180831161346757829003601f168201915b50505050508152602001600a8201805461349d9061470d565b80601f01602080910402602001604051908101604052809291908181526020018280546134c99061470d565b80156135165780601f106134eb57610100808354040283529160200191613516565b820191906000526020600020905b8154815290600101906020018083116134f957829003601f168201915b505050505081525050905060008160000151146135ce57600060018361353c919061476d565b90508160000151888281518110613556576135556147a1565b5b602002602001018181525050816020015187828151811061357a576135796147a1565b5b6020026020010181905250816040015186828151811061359d5761359c6147a1565b5b602002602001018190525081606001518582815181106135c0576135bf6147a1565b5b602002602001018181525050505b5080806135da906147d0565b91505061317b565b505090919293565b606060008203613631576040518060400160405280600181526020017f30000000000000000000000000000000000000000000000000000000000000008152509050613745565b600082905060005b6000821461366357808061364c906147d0565b915050600a8261365c91906155cc565b9150613639565b60008167ffffffffffffffff81111561367f5761367e613fd1565b5b6040519080825280601f01601f1916602001820160405280156136b15781602001600182028036833780820191505090505b5090505b6000851461373e576001826136ca919061476d565b9150600a856136d991906155fd565b60306136e5919061562e565b60f81b8183815181106136fb576136fa6147a1565b5b60200101907effffffffffffffffffffffffffffffffffffffffffffffffffffffffffffff1916908160001a905350600a8561373791906155cc565b94506136b5565b8093505050505b919050565b604051806040016040528060608152602001600081525090565b600081519050919050565b600082825260208201905092915050565b6000819050602082019050919050565b6000819050919050565b6137a381613790565b82525050565b60006137b5838361379a565b60208301905092915050565b6000602082019050919050565b60006137d982613764565b6137e3818561376f565b93506137ee83613780565b8060005b8381101561381f57815161380688826137a9565b9750613811836137c1565b9250506001810190506137f2565b5085935050505092915050565b600081519050919050565b600082825260208201905092915050565b6000819050602082019050919050565b60008115159050919050565b61386d81613858565b82525050565b600061387f8383613864565b60208301905092915050565b6000602082019050919050565b60006138a38261382c565b6138ad8185613837565b93506138b883613848565b8060005b838110156138e95781516138d08882613873565b97506138db8361388b565b9250506001810190506138bc565b5085935050505092915050565b600081519050919050565b600082825260208201905092915050565b6000819050602082019050919050565b600073ffffffffffffffffffffffffffffffffffffffff82169050919050565b600061394d82613922565b9050919050565b61395d81613942565b82525050565b600061396f8383613954565b60208301905092915050565b6000602082019050919050565b6000613993826138f6565b61399d8185613901565b93506139a883613912565b8060005b838110156139d95781516139c08882613963565b97506139cb8361397b565b9250506001810190506139ac565b5085935050505092915050565b60006080820190508181036000830152613a0081876137ce565b90508181036020830152613a148186613898565b90508181036040830152613a288185613988565b90508181036060830152613a3c81846137ce565b905095945050505050565b6000604051905090565b600080fd5b600080fd5b613a6481613790565b8114613a6f57600080fd5b50565b600081359050613a8181613a5b565b92915050565b60008060408385031215613a9e57613a9d613a51565b5b6000613aac85828601613a72565b9250506020613abd85828601613a72565b9150509250929050565b613ad081613790565b82525050565b600081519050919050565b600082825260208201905092915050565b60005b83811015613b10578082015181840152602081019050613af5565b60008484015250505050565b6000601f19601f8301169050919050565b6000613b3882613ad6565b613b428185613ae1565b9350613b52818560208601613af2565b613b5b81613b1c565b840191505092915050565b6000606082019050613b7b6000830186613ac7565b8181036020830152613b8d8185613b2d565b9050613b9c6040830184613ac7565b949350505050565b600081519050919050565b600082825260208201905092915050565b6000819050602082019050919050565b600081519050919050565b600082825260208201905092915050565b6000819050602082019050919050565b600082825260208201905092915050565b6000613c1882613ad6565b613c228185613bfc565b9350613c32818560208601613af2565b613c3b81613b1c565b840191505092915050565b60006040830160008301518482036000860152613c638282613c0d565b9150506020830151613c78602086018261379a565b508091505092915050565b6000613c8f8383613c46565b905092915050565b6000602082019050919050565b6000613caf82613bd0565b613cb98185613bdb565b935083602082028501613ccb85613bec565b8060005b85811015613d075784840389528151613ce88582613c83565b9450613cf383613c97565b925060208a01995050600181019050613ccf565b50829750879550505050505092915050565b6000613d258383613ca4565b905092915050565b6000602082019050919050565b6000613d4582613ba4565b613d4f8185613baf565b935083602082028501613d6185613bc0565b8060005b85811015613d9d5784840389528151613d7e8582613d19565b9450613d8983613d2d565b925060208a01995050600181019050613d65565b50829750879550505050505092915050565b60006020820190508181036000830152613dc98184613d3a565b905092915050565b600060208284031215613de757613de6613a51565b5b6000613df584828501613a72565b91505092915050565b613e0781613858565b82525050565b613e1681613942565b82525050565b6000610160820190508181036000830152613e37818e613b2d565b90508181036020830152613e4b818d613b2d565b9050613e5a604083018c613ac7565b613e67606083018b613ac7565b613e74608083018a613dfe565b613e8160a0830189613e0d565b613e8e60c0830188613ac7565b613e9b60e0830187613ac7565b818103610100830152613eae8186613b2d565b9050818103610120830152613ec38185613b2d565b9050818103610140830152613ed88184613b2d565b90509c9b505050505050505050505050565b600061018082019050613f00600083018f613ac7565b8181036020830152613f12818e613b2d565b90508181036040830152613f26818d613b2d565b9050613f35606083018c613ac7565b613f42608083018b613ac7565b613f4f60a083018a613dfe565b613f5c60c0830189613e0d565b613f6960e0830188613ac7565b613f77610100830187613ac7565b818103610120830152613f8a8186613b2d565b9050818103610140830152613f9f8185613b2d565b9050818103610160830152613fb48184613b2d565b90509d9c50505050505050505050505050565b600080fd5b600080fd5b7f4e487b7100000000000000000000000000000000000000000000000000000000600052604160045260246000fd5b61400982613b1c565b810181811067ffffffffffffffff8211171561402857614027613fd1565b5b80604052505050565b600061403b613a47565b90506140478282614000565b919050565b600067ffffffffffffffff82111561406757614066613fd1565b5b61407082613b1c565b9050602081019050919050565b82818337600083830152505050565b600061409f61409a8461404c565b614031565b9050828152602081018484840111156140bb576140ba613fcc565b5b6140c684828561407d565b509392505050565b600082601f8301126140e3576140e2613fc7565b5b81356140f384826020860161408c565b91505092915050565b6000806040838503121561411357614112613a51565b5b600061412185828601613a72565b925050602083013567ffffffffffffffff81111561414257614141613a56565b5b61414e858286016140ce565b9150509250929050565b600067ffffffffffffffff82111561417357614172613fd1565b5b602082029050602081019050919050565b600080fd5b600061419c61419784614158565b614031565b905080838252602082019050602084028301858111156141bf576141be614184565b5b835b8181101561420657803567ffffffffffffffff8111156141e4576141e3613fc7565b5b8086016141f189826140ce565b855260208501945050506020810190506141c1565b5050509392505050565b600082601f83011261422557614224613fc7565b5b8135614235848260208601614189565b91505092915050565b600080600080600080600080610100898b03121561425f5761425e613a51565b5b600089013567ffffffffffffffff81111561427d5761427c613a56565b5b6142898b828c016140ce565b985050602089013567ffffffffffffffff8111156142aa576142a9613a56565b5b6142b68b828c016140ce565b975050604089013567ffffffffffffffff8111156142d7576142d6613a56565b5b6142e38b828c01614210565b96505060606142f48b828c01613a72565b95505060806143058b828c01613a72565b94505060a06143168b828c01613a72565b93505060c089013567ffffffffffffffff81111561433757614336613a56565b5b6143438b828c016140ce565b92505060e089013567ffffffffffffffff81111561436457614363613a56565b5b6143708b828c016140ce565b9150509295985092959890939650565b60006020820190506143956000830184613ac7565b92915050565b600082825260208201905092915050565b60006143b782613bd0565b6143c1818561439b565b9350836020820285016143d385613bec565b8060005b8581101561440f57848403895281516143f08582613c83565b94506143fb83613c97565b925060208a019950506001810190506143d7565b50829750879550505050505092915050565b60006040820190506144366000830185613ac7565b818103602083015261444881846143ac565b90509392505050565b61445a81613942565b811461446557600080fd5b50565b60008135905061447781614451565b92915050565b6000806040838503121561449457614493613a51565b5b60006144a285828601613a72565b92505060206144b385828601614468565b9150509250929050565b60006040820190506144d26000830185613dfe565b6144df6020830184613ac7565b9392505050565b600081519050919050565b600082825260208201905092915050565b6000819050602082019050919050565b600061451e8383613c0d565b905092915050565b6000602082019050919050565b600061453e826144e6565b61454881856144f1565b93508360208202850161455a85614502565b8060005b8581101561459657848403895281516145778582614512565b945061458283614526565b925060208a0199505060018101905061455e565b50829750879550505050505092915050565b600060408201905081810360008301526145c28185614533565b905081810360208301526145d681846137ce565b90509392505050565b60006020820190506145f46000830184613dfe565b92915050565b6000608082019050818103600083015261461481876137ce565b905081810360208301526146288186614533565b9050818103604083015261463c8185614533565b905081810360608301526146508184614533565b905095945050505050565b6000602082019050818103600083015261467581846143ac565b905092915050565b6000608082019050818103600083015261469781876137ce565b905081810360208301526146ab8186614533565b905081810360408301526146bf8185614533565b905081810360608301526146d381846137ce565b905095945050505050565b7f4e487b7100000000000000000000000000000000000000000000000000000000600052602260045260246000fd5b6000600282049050600182168061472557607f821691505b602082108103614738576147376146de565b5b50919050565b7f4e487b7100000000000000000000000000000000000000000000000000000000600052601160045260246000fd5b600061477882613790565b915061478383613790565b925082820390508181111561479b5761479a61473e565b5b92915050565b7f4e487b7100000000000000000000000000000000000000000000000000000000600052603260045260246000fd5b60006147db82613790565b91507fffffffffffffffffffffffffffffffffffffffffffffffffffffffffffffffff820361480d5761480c61473e565b5b600182019050919050565b7f566f746520646f6573206e6f7420657869737400000000000000000000000000600082015250565b600061484e601383613ae1565b915061485982614818565b602082019050919050565b6000602082019050818103600083015261487d81614841565b9050919050565b7f566f7465206973206e6f74206163746976650000000000000000000000000000600082015250565b60006148ba601283613ae1565b91506148c582614884565b602082019050919050565b600060208201905081810360008301526148e9816148ad565b9050919050565b7f566f746520686173206e6f742073746172746564000000000000000000000000600082015250565b6000614926601483613ae1565b9150614931826148f0565b602082019050919050565b6000602082019050818103600083015261495581614919565b9050919050565b7f566f74652068617320656e646564000000000000000000000000000000000000600082015250565b6000614992600e83613ae1565b915061499d8261495c565b602082019050919050565b600060208201905081810360008301526149c181614985565b9050919050565b7f416c726561647920766f74656400000000000000000000000000000000000000600082015250565b60006149fe600d83613ae1565b9150614a09826149c8565b602082019050919050565b60006020820190508181036000830152614a2d816149f1565b9050919050565b7f496e76616c6964206f7074696f6e000000000000000000000000000000000000600082015250565b6000614a6a600e83613ae1565b9150614a7582614a34565b602082019050919050565b60006020820190508181036000830152614a9981614a5d565b9050919050565b7f4d6178696d756d207061727469636970616e7473207265616368656400000000600082015250565b6000614ad6601c83613ae1565b9150614ae182614aa0565b602082019050919050565b60006020820190508181036000830152614b0581614ac9565b9050919050565b7f4f6e6c792063726561746f72206f722061646d696e2063616e2075706461746560008201527f2073746174757300000000000000000000000000000000000000000000000000602082015250565b6000614b68602783613ae1565b9150614b7382614b0c565b604082019050919050565b60006020820190508181036000830152614b9781614b5b565b9050919050565b60008190508160005260206000209050919050565b60006020601f8301049050919050565b600082821b905092915050565b600060088302614c007fffffffffffffffffffffffffffffffffffffffffffffffffffffffffffffffff82614bc3565b614c0a8683614bc3565b95508019841693508086168417925050509392505050565b6000819050919050565b6000614c47614c42614c3d84613790565b614c22565b613790565b9050919050565b6000819050919050565b614c6183614c2c565b614c75614c6d82614c4e565b848454614bd0565b825550505050565b600090565b614c8a614c7d565b614c95818484614c58565b505050565b5b81811015614cb957614cae600082614c82565b600181019050614c9b565b5050565b601f821115614cfe57614ccf81614b9e565b614cd884614bb3565b81016020851015614ce7578190505b614cfb614cf385614bb3565b830182614c9a565b50505b505050565b600082821c905092915050565b6000614d2160001984600802614d03565b1980831691505092915050565b6000614d3a8383614d10565b9150826002028217905092915050565b614d5382613ad6565b67ffffffffffffffff811115614d6c57614d6b613fd1565b5b614d76825461470d565b614d81828285614cbd565b600060209050601f831160018114614db45760008415614da2578287015190505b614dac8582614d2e565b865550614e14565b601f198416614dc286614b9e565b60005b82811015614dea57848901518255600182019150602085019450602081019050614dc5565b86831015614e075784890151614e03601f891682614d10565b8355505b6001600288020188555050505b505050505050565b60006020820190508181036000830152614e368184613b2d565b905092915050565b7f4f6e6c792063726561746f722063616e20706572666f726d207468697320616360008201527f74696f6e00000000000000000000000000000000000000000000000000000000602082015250565b6000614e9a602483613ae1565b9150614ea582614e3e565b604082019050919050565b60006020820190508181036000830152614ec981614e8d565b9050919050565b7f566f746520616c726561647920656e6465640000000000000000000000000000600082015250565b6000614f06601283613ae1565b9150614f1182614ed0565b602082019050919050565b60006020820190508181036000830152614f3581614ef9565b9050919050565b7f5469746c652063616e6e6f7420626520656d7074790000000000000000000000600082015250565b6000614f72601583613ae1565b9150614f7d82614f3c565b602082019050919050565b60006020820190508181036000830152614fa181614f65565b9050919050565b7f4465736372697074696f6e2063616e6e6f7420626520656d7074790000000000600082015250565b6000614fde601b83613ae1565b9150614fe982614fa8565b602082019050919050565b6000602082019050818103600083015261500d81614fd1565b9050919050565b7f526f6f6d206e616d652063616e6e6f7420626520656d70747900000000000000600082015250565b600061504a601983613ae1565b915061505582615014565b602082019050919050565b600060208201905081810360008301526150798161503d565b9050919050565b7f41636365737320636f64652063616e6e6f7420626520656d7074790000000000600082015250565b60006150b6601b83613ae1565b91506150c182615080565b602082019050919050565b600060208201905081810360008301526150e5816150a9565b9050919050565b600081905092915050565b7f53746172742074696d65206d75737420626520696e207468652066757475726560008201527f2e20476976656e3a200000000000000000000000000000000000000000000000602082015250565b60006151536029836150ec565b915061515e826150f7565b602982019050919050565b600061517482613ad6565b61517e81856150ec565b935061518e818560208601613af2565b80840191505092915050565b7f2c2043757272656e743a20000000000000000000000000000000000000000000600082015250565b60006151d0600b836150ec565b91506151db8261519a565b600b82019050919050565b60006151f182615146565b91506151fd8285615169565b9150615208826151c3565b91506152148284615169565b91508190509392505050565b7f456e642074696d65206d7573742062652061667465722073746172742074696d60008201527f652e2053746172743a2000000000000000000000000000000000000000000000602082015250565b600061527c602a836150ec565b915061528782615220565b602a82019050919050565b7f2c20456e643a2000000000000000000000000000000000000000000000000000600082015250565b60006152c86007836150ec565b91506152d382615292565b600782019050919050565b60006152e98261526f565b91506152f58285615169565b9150615300826152bb565b915061530c8284615169565b91508190509392505050565b7f4d7573742068617665206174206c656173742032206f7074696f6e7300000000600082015250565b600061534e601c83613ae1565b915061535982615318565b602082019050919050565b6000602082019050818103600083015261537d81615341565b9050919050565b7f4d6178207061727469636970616e7473206d757374206265206772656174657260008201527f207468616e203000000000000000000000000000000000000000000000000000602082015250565b60006153e0602783613ae1565b91506153eb82615384565b604082019050919050565b6000602082019050818103600083015261540f816153d3565b9050919050565b7f4d6178207061727469636970616e74732063616e6e6f7420657863656564203160008201527f3030300000000000000000000000000000000000000000000000000000000000602082015250565b6000615472602383613ae1565b915061547d82615416565b604082019050919050565b600060208201905081810360008301526154a181615465565b9050919050565b7f4f7074696f6e206e616d6520617420696e646578200000000000000000000000600082015250565b60006154de6015836150ec565b91506154e9826154a8565b601582019050919050565b7f2063616e6e6f7420626520656d70747900000000000000000000000000000000600082015250565b600061552a6010836150ec565b9150615535826154f4565b601082019050919050565b600061554b826154d1565b91506155578284615169565b91506155628261551d565b915081905092915050565b600060408201905081810360008301526155878185613b2d565b90506155966020830184613e0d565b9392505050565b7f4e487b7100000000000000000000000000000000000000000000000000000000600052601260045260246000fd5b60006155d782613790565b91506155e283613790565b9250826155f2576155f161559d565b5b828204905092915050565b600061560882613790565b915061561383613790565b9250826156235761562261559d565b5b828206905092915050565b600061563982613790565b915061564483613790565b925082820190508082111561565c5761565b61473e565b5b9291505056fea264697066735822122097c8d970430c9ef3bd03f3aa16c2d9215dd942ee9a7c3db093322dc08999b49c64736f6c63430008180033",
  "linkReferences": {},
  "deployedLinkReferences": {}
}