{
  "_format": "hh-sol-artifact-1",
  "contractName": "VotingSystem",
  "sourceName": "contracts/vote.sol",
  "abi": [
    {
      "anonymous": false,
      "inputs": [
        {
          "indexed": true,
          "internalType": "uint256",
          "name": "voteId",
          "type": "uint256"
        },
        {
          "indexed": true,
          "internalType": "address",
          "name": "voter",
          "type": "address"
        },
        {
          "indexed": false,
          "internalType": "uint256",
          "name": "optionId",
          "type": "uint256"
        }
      ],
      "name": "VoteCast",
      "type": "event"
    },
    {
      "anonymous": false,
      "inputs": [
        {
          "indexed": true,
          "internalType": "uint256",
          "name": "voteId",
          "type": "uint256"
        },
        {
          "indexed": false,
          "internalType": "string",
          "name": "title",
          "type": "string"
        },
        {
          "indexed": false,
          "internalType": "address",
          "name": "creator",
          "type": "address"
        }
      ],
      "name": "VoteCreated",
      "type": "event"
    },
    {
      "anonymous": false,
      "inputs": [
        {
          "indexed": true,
          "internalType": "uint256",
          "name": "voteId",
          "type": "uint256"
        }
      ],
      "name": "VoteEnded",
      "type": "event"
    },
    {
      "inputs": [
        {
          "internalType": "uint256",
          "name": "_voteId",
          "type": "uint256"
        },
        {
          "internalType": "uint256",
          "name": "_optionId",
          "type": "uint256"
        }
      ],
      "name": "castVote",
      "outputs": [],
      "stateMutability": "nonpayable",
      "type": "function"
    },
    {
      "inputs": [
        {
          "internalType": "string",
          "name": "_title",
          "type": "string"
        },
        {
          "internalType": "string",
          "name": "_description",
          "type": "string"
        },
        {
          "internalType": "string[]",
          "name": "_optionNames",
          "type": "string[]"
        },
        {
          "internalType": "uint256",
          "name": "_startTime",
          "type": "uint256"
        },
        {
          "internalType": "uint256",
          "name": "_endTime",
          "type": "uint256"
        },
        {
          "internalType": "uint256",
          "name": "_maxParticipants",
          "type": "uint256"
        },
        {
          "internalType": "string",
          "name": "_roomName",
          "type": "string"
        },
        {
          "internalType": "string",
          "name": "_accessCode",
          "type": "string"
        }
      ],
      "name": "createVote",
      "outputs": [
        {
          "internalType": "uint256",
          "name": "",
          "type": "uint256"
        }
      ],
      "stateMutability": "nonpayable",
      "type": "function"
    },
    {
      "inputs": [
        {
          "internalType": "uint256",
          "name": "_voteId",
          "type": "uint256"
        }
      ],
      "name": "endVote",
      "outputs": [],
      "stateMutability": "nonpayable",
      "type": "function"
    },
    {
      "inputs": [],
      "name": "getAllVotes",
      "outputs": [
        {
          "components": [
            {
              "internalType": "uint256",
              "name": "id",
              "type": "uint256"
            },
            {
              "internalType": "string",
              "name": "title",
              "type": "string"
            },
            {
              "internalType": "string",
              "name": "description",
              "type": "string"
            },
            {
              "internalType": "uint256",
              "name": "startTime",
              "type": "uint256"
            },
            {
              "internalType": "uint256",
              "name": "endTime",
              "type": "uint256"
            },
            {
              "internalType": "bool",
              "name": "isActive",
              "type": "bool"
            },
            {
              "internalType": "address",
              "name": "creator",
              "type": "address"
            },
            {
              "internalType": "uint256",
              "name": "maxParticipants",
              "type": "uint256"
            },
            {
              "internalType": "uint256",
              "name": "currentParticipants",
              "type": "uint256"
            },
            {
              "internalType": "string",
              "name": "roomName",
              "type": "string"
            },
            {
              "internalType": "string",
              "name": "accessCode",
              "type": "string"
            },
            {
              "internalType": "string",
              "name": "status",
              "type": "string"
            }
          ],
          "internalType": "struct VotingSystem.Vote[]",
          "name": "",
          "type": "tuple[]"
        }
      ],
      "stateMutability": "view",
      "type": "function"
    },
    {
      "inputs": [
        {
          "internalType": "uint256",
          "name": "_voteId",
          "type": "uint256"
        }
      ],
      "name": "getVoteDetails",
      "outputs": [
        {
          "internalType": "string",
          "name": "title",
          "type": "string"
        },
        {
          "internalType": "string",
          "name": "description",
          "type": "string"
        },
        {
          "internalType": "uint256",
          "name": "startTime",
          "type": "uint256"
        },
        {
          "internalType": "uint256",
          "name": "endTime",
          "type": "uint256"
        },
        {
          "internalType": "bool",
          "name": "isActive",
          "type": "bool"
        },
        {
          "internalType": "address",
          "name": "creator",
          "type": "address"
        },
        {
          "internalType": "uint256",
          "name": "maxParticipants",
          "type": "uint256"
        },
        {
          "internalType": "uint256",
          "name": "currentParticipants",
          "type": "uint256"
        },
        {
          "internalType": "string",
          "name": "roomName",
          "type": "string"
        },
        {
          "internalType": "string",
          "name": "accessCode",
          "type": "string"
        },
        {
          "internalType": "string",
          "name": "status",
          "type": "string"
        }
      ],
      "stateMutability": "view",
      "type": "function"
    },
    {
      "inputs": [
        {
          "internalType": "uint256",
          "name": "_voteId",
          "type": "uint256"
        }
      ],
      "name": "getVoteResults",
      "outputs": [
        {
          "internalType": "string[]",
          "name": "names",
          "type": "string[]"
        },
        {
          "internalType": "uint256[]",
          "name": "counts",
          "type": "uint256[]"
        }
      ],
      "stateMutability": "view",
      "type": "function"
    },
    {
      "inputs": [
        {
          "internalType": "uint256",
          "name": "_voteId",
          "type": "uint256"
        },
        {
          "internalType": "address",
          "name": "_voter",
          "type": "address"
        }
      ],
      "name": "hasUserVoted",
      "outputs": [
        {
          "internalType": "bool",
          "name": "",
          "type": "bool"
        }
      ],
      "stateMutability": "view",
      "type": "function"
    },
    {
      "inputs": [
        {
          "internalType": "uint256",
          "name": "",
          "type": "uint256"
        }
      ],
      "name": "optionCounts",
      "outputs": [
        {
          "internalType": "uint256",
          "name": "",
          "type": "uint256"
        }
      ],
      "stateMutability": "view",
      "type": "function"
    },
    {
      "inputs": [
        {
          "internalType": "uint256",
          "name": "",
          "type": "uint256"
        },
        {
          "internalType": "uint256",
          "name": "",
          "type": "uint256"
        }
      ],
      "name": "voteOptions",
      "outputs": [
        {
          "internalType": "uint256",
          "name": "id",
          "type": "uint256"
        },
        {
          "internalType": "string",
          "name": "name",
          "type": "string"
        },
        {
          "internalType": "uint256",
          "name": "voteCount",
          "type": "uint256"
        }
      ],
      "stateMutability": "view",
      "type": "function"
    },
    {
      "inputs": [
        {
          "internalType": "uint256",
          "name": "",
          "type": "uint256"
        },
        {
          "internalType": "address",
          "name": "",
          "type": "address"
        }
      ],
      "name": "voters",
      "outputs": [
        {
          "internalType": "bool",
          "name": "hasVoted",
          "type": "bool"
        },
        {
          "internalType": "uint256",
          "name": "votedOptionId",
          "type": "uint256"
        }
      ],
      "stateMutability": "view",
      "type": "function"
    },
    {
      "inputs": [
        {
          "internalType": "uint256",
          "name": "",
          "type": "uint256"
        }
      ],
      "name": "votes",
      "outputs": [
        {
          "internalType": "uint256",
          "name": "id",
          "type": "uint256"
        },
        {
          "internalType": "string",
          "name": "title",
          "type": "string"
        },
        {
          "internalType": "string",
          "name": "description",
          "type": "string"
        },
        {
          "internalType": "uint256",
          "name": "startTime",
          "type": "uint256"
        },
        {
          "internalType": "uint256",
          "name": "endTime",
          "type": "uint256"
        },
        {
          "internalType": "bool",
          "name": "isActive",
          "type": "bool"
        },
        {
          "internalType": "address",
          "name": "creator",
          "type": "address"
        },
        {
          "internalType": "uint256",
          "name": "maxParticipants",
          "type": "uint256"
        },
        {
          "internalType": "uint256",
          "name": "currentParticipants",
          "type": "uint256"
        },
        {
          "internalType": "string",
          "name": "roomName",
          "type": "string"
        },
        {
          "internalType": "string",
          "name": "accessCode",
          "type": "string"
        },
        {
          "internalType": "string",
          "name": "status",
          "type": "string"
        }
      ],
      "stateMutability": "view",
      "type": "function"
    }
  ],
  "bytecode": "0x608060405234801561001057600080fd5b50613c7d806100206000396000f3fe608060405234801561001057600080fd5b50600436106100a95760003560e01c8063865df0ad11610071578063865df0ad1461018f5780638c1bdbae146101ab5780639e319063146101db578063a88922b31461020c578063b0d261681461023d578063dc296ae11461026d576100a9565b80632c0a3f89146100ae5780633c4f5500146100ca57806354a1b431146100fc5780635df8133014610136578063851b6ef214610171575b600080fd5b6100c860048036038101906100c391906121b9565b61029d565b005b6100e460048036038101906100df91906121b9565b6106be565b6040516100f393929190612298565b60405180910390f35b610116600480360381019061011191906122d6565b61077d565b60405161012d9b9a9998979695949392919061235f565b60405180910390f35b610150600480360381019061014b91906122d6565b610be7565b6040516101689c9b9a9998979695949392919061242d565b60405180910390f35b610179610f1c565b6040516101869190612763565b60405180910390f35b6101a960048036038101906101a491906122d6565b61141c565b005b6101c560048036038101906101c091906129a0565b611632565b6040516101d29190612ae2565b60405180910390f35b6101f560048036038101906101f09190612b29565b611c86565b604051610203929190612b69565b60405180910390f35b610226600480360381019061022191906122d6565b611cc4565b604051610234929190612d03565b60405180910390f35b610257600480360381019061025291906122d6565b611f13565b6040516102649190612ae2565b60405180910390f35b61028760048036038101906102829190612b29565b611f2b565b6040516102949190612d3a565b60405180910390f35b818060008083815260200190815260200160002060000154146102f5576040517f08c379a00000000000000000000000000000000000000000000000000000000081526004016102ec90612da1565b60405180910390fd5b8260008082815260200190815260200160002060050160009054906101000a900460ff16610358576040517f08c379a000000000000000000000000000000000000000000000000000000000815260040161034f90612e0d565b60405180910390fd5b600080828152602001908152602001600020600301544210156103b0576040517f08c379a00000000000000000000000000000000000000000000000000000000081526004016103a790612e79565b60405180910390fd5b60008082815260200190815260200160002060040154421115610408576040517f08c379a00000000000000000000000000000000000000000000000000000000081526004016103ff90612ee5565b60405180910390fd5b836002600082815260200190815260200160002060003373ffffffffffffffffffffffffffffffffffffffff1673ffffffffffffffffffffffffffffffffffffffff16815260200190815260200160002060000160009054906101000a900460ff16156104aa576040517f08c379a00000000000000000000000000000000000000000000000000000000081526004016104a190612f51565b60405180910390fd5b600360008681526020019081526020016000205484106104ff576040517f08c379a00000000000000000000000000000000000000000000000000000000081526004016104f690612fbd565b60405180910390fd5b60008086815260200190815260200160002060060154600080878152602001908152602001600020600701541061056b576040517f08c379a000000000000000000000000000000000000000000000000000000000815260040161056290613029565b60405180910390fd5b6040518060400160405280600115158152602001858152506002600087815260200190815260200160002060003373ffffffffffffffffffffffffffffffffffffffff1673ffffffffffffffffffffffffffffffffffffffff16815260200190815260200160002060008201518160000160006101000a81548160ff02191690831515021790555060208201518160010155905050600160008681526020019081526020016000206000858152602001908152602001600020600201600081548092919061063890613078565b9190505550600080868152602001908152602001600020600701600081548092919061066390613078565b91905055503373ffffffffffffffffffffffffffffffffffffffff16857f2acce567deca3aabf56327adbb4524bd5318936eaefa69e3a5208ffda0cfec09866040516106af9190612ae2565b60405180910390a35050505050565b6001602052816000526040600020602052806000526040600020600091509150508060000154908060010180546106f4906130ef565b80601f0160208091040260200160405190810160405280929190818152602001828054610720906130ef565b801561076d5780601f106107425761010080835404028352916020019161076d565b820191906000526020600020905b81548152906001019060200180831161075057829003601f168201915b5050505050908060020154905083565b60608060008060008060008060608060608b8060008083815260200190815260200160002060000154146107e6576040517f08c379a00000000000000000000000000000000000000000000000000000000081526004016107dd90612da1565b60405180910390fd5b60008060008f81526020019081526020016000206040518061018001604052908160008201548152602001600182018054610820906130ef565b80601f016020809104026020016040519081016040528092919081815260200182805461084c906130ef565b80156108995780601f1061086e57610100808354040283529160200191610899565b820191906000526020600020905b81548152906001019060200180831161087c57829003601f168201915b505050505081526020016002820180546108b2906130ef565b80601f01602080910402602001604051908101604052809291908181526020018280546108de906130ef565b801561092b5780601f106109005761010080835404028352916020019161092b565b820191906000526020600020905b81548152906001019060200180831161090e57829003601f168201915b5050505050815260200160038201548152602001600482015481526020016005820160009054906101000a900460ff161515151581526020016005820160019054906101000a900473ffffffffffffffffffffffffffffffffffffffff1673ffffffffffffffffffffffffffffffffffffffff1673ffffffffffffffffffffffffffffffffffffffff16815260200160068201548152602001600782015481526020016008820180546109dd906130ef565b80601f0160208091040260200160405190810160405280929190818152602001828054610a09906130ef565b8015610a565780601f10610a2b57610100808354040283529160200191610a56565b820191906000526020600020905b815481529060010190602001808311610a3957829003601f168201915b50505050508152602001600982018054610a6f906130ef565b80601f0160208091040260200160405190810160405280929190818152602001828054610a9b906130ef565b8015610ae85780601f10610abd57610100808354040283529160200191610ae8565b820191906000526020600020905b815481529060010190602001808311610acb57829003601f168201915b50505050508152602001600a82018054610b01906130ef565b80601f0160208091040260200160405190810160405280929190818152602001828054610b2d906130ef565b8015610b7a5780601f10610b4f57610100808354040283529160200191610b7a565b820191906000526020600020905b815481529060010190602001808311610b5d57829003601f168201915b505050505081525050905080602001518160400151826060015183608001518460a001518560c001518660e001518761010001518861012001518961014001518a61016001519c509c509c509c509c509c509c509c509c509c509c50505091939597999b90929496989a50565b6000602052806000526040600020600091509050806000015490806001018054610c10906130ef565b80601f0160208091040260200160405190810160405280929190818152602001828054610c3c906130ef565b8015610c895780601f10610c5e57610100808354040283529160200191610c89565b820191906000526020600020905b815481529060010190602001808311610c6c57829003601f168201915b505050505090806002018054610c9e906130ef565b80601f0160208091040260200160405190810160405280929190818152602001828054610cca906130ef565b8015610d175780601f10610cec57610100808354040283529160200191610d17565b820191906000526020600020905b815481529060010190602001808311610cfa57829003601f168201915b5050505050908060030154908060040154908060050160009054906101000a900460ff16908060050160019054906101000a900473ffffffffffffffffffffffffffffffffffffffff1690806006015490806007015490806008018054610d7d906130ef565b80601f0160208091040260200160405190810160405280929190818152602001828054610da9906130ef565b8015610df65780601f10610dcb57610100808354040283529160200191610df6565b820191906000526020600020905b815481529060010190602001808311610dd957829003601f168201915b505050505090806009018054610e0b906130ef565b80601f0160208091040260200160405190810160405280929190818152602001828054610e37906130ef565b8015610e845780601f10610e5957610100808354040283529160200191610e84565b820191906000526020600020905b815481529060010190602001808311610e6757829003601f168201915b50505050509080600a018054610e99906130ef565b80601f0160208091040260200160405190810160405280929190818152602001828054610ec5906130ef565b8015610f125780601f10610ee757610100808354040283529160200191610f12565b820191906000526020600020905b815481529060010190602001808311610ef557829003601f168201915b505050505090508c565b60606000600454905060008167ffffffffffffffff811115610f4157610f4061278f565b5b604051908082528060200260200182016040528015610f7a57816020015b610f676120f6565b815260200190600190039081610f5f5790505b5090506000600190505b8281116114135760008060008381526020019081526020016000206040518061018001604052908160008201548152602001600182018054610fc5906130ef565b80601f0160208091040260200160405190810160405280929190818152602001828054610ff1906130ef565b801561103e5780601f106110135761010080835404028352916020019161103e565b820191906000526020600020905b81548152906001019060200180831161102157829003601f168201915b50505050508152602001600282018054611057906130ef565b80601f0160208091040260200160405190810160405280929190818152602001828054611083906130ef565b80156110d05780601f106110a5576101008083540402835291602001916110d0565b820191906000526020600020905b8154815290600101906020018083116110b357829003601f168201915b5050505050815260200160038201548152602001600482015481526020016005820160009054906101000a900460ff161515151581526020016005820160019054906101000a900473ffffffffffffffffffffffffffffffffffffffff1673ffffffffffffffffffffffffffffffffffffffff1673ffffffffffffffffffffffffffffffffffffffff1681526020016006820154815260200160078201548152602001600882018054611182906130ef565b80601f01602080910402602001604051908101604052809291908181526020018280546111ae906130ef565b80156111fb5780601f106111d0576101008083540402835291602001916111fb565b820191906000526020600020905b8154815290600101906020018083116111de57829003601f168201915b50505050508152602001600982018054611214906130ef565b80601f0160208091040260200160405190810160405280929190818152602001828054611240906130ef565b801561128d5780601f106112625761010080835404028352916020019161128d565b820191906000526020600020905b81548152906001019060200180831161127057829003601f168201915b50505050508152602001600a820180546112a6906130ef565b80601f01602080910402602001604051908101604052809291908181526020018280546112d2906130ef565b801561131f5780601f106112f45761010080835404028352916020019161131f565b820191906000526020600020905b81548152906001019060200180831161130257829003601f168201915b505050505081525050905060008160000151146113ff5760405180610180016040528082600001518152602001826020015181526020018260400151815260200182606001518152602001826080015181526020018260a00151151581526020018260c0015173ffffffffffffffffffffffffffffffffffffffff1681526020018260e001518152602001826101000151815260200182610120015181526020018261014001518152602001826101600151815250836001846113e29190613120565b815181106113f3576113f2613154565b5b60200260200101819052505b50808061140b90613078565b915050610f84565b50809250505090565b80806000808381526020019081526020016000206000015414611474576040517f08c379a000000000000000000000000000000000000000000000000000000000815260040161146b90612da1565b60405180910390fd5b813373ffffffffffffffffffffffffffffffffffffffff1660008083815260200190815260200160002060050160019054906101000a900473ffffffffffffffffffffffffffffffffffffffff1673ffffffffffffffffffffffffffffffffffffffff1614611518576040517f08c379a000000000000000000000000000000000000000000000000000000000815260040161150f906131f5565b60405180910390fd5b60008084815260200190815260200160002060050160009054906101000a900460ff1661157a576040517f08c379a000000000000000000000000000000000000000000000000000000000815260040161157190613261565b60405180910390fd5b600080600085815260200190815260200160002060050160006101000a81548160ff0219169083151502179055506040518060400160405280600581526020017f656e646564000000000000000000000000000000000000000000000000000000815250600080858152602001908152602001600020600a0190816115ff919061342d565b50827fe12e0241ed3b6bb5b8b9e5b0c487661a72158d47e347fa539ef01a1fafcb3a3d60405160405180910390a2505050565b600080895111611677576040517f08c379a000000000000000000000000000000000000000000000000000000000815260040161166e9061354b565b60405180910390fd5b60008851116116bb576040517f08c379a00000000000000000000000000000000000000000000000000000000081526004016116b2906135b7565b60405180910390fd5b60008351116116ff576040517f08c379a00000000000000000000000000000000000000000000000000000000081526004016116f690613623565b60405180910390fd5b6000825111611743576040517f08c379a000000000000000000000000000000000000000000000000000000000815260040161173a9061368f565b60405180910390fd5b4286101561175087611f96565b61175942611f96565b60405160200161176a9291906137a9565b604051602081830303815290604052906117ba576040517f08c379a00000000000000000000000000000000000000000000000000000000081526004016117b191906137e3565b60405180910390fd5b508585116117c787611f96565b6117d087611f96565b6040516020016117e19291906138c3565b60405160208183030381529060405290611831576040517f08c379a000000000000000000000000000000000000000000000000000000000815260040161182891906137e3565b60405180910390fd5b50600287511015611877576040517f08c379a000000000000000000000000000000000000000000000000000000000815260040161186e90613949565b60405180910390fd5b600084116118ba576040517f08c379a00000000000000000000000000000000000000000000000000000000081526004016118b1906139db565b60405180910390fd5b6103e88411156118ff576040517f08c379a00000000000000000000000000000000000000000000000000000000081526004016118f690613a6d565b60405180910390fd5b60005b87518110156119a15760008882815181106119205761191f613154565b5b6020026020010151511161193382611f96565b6040516020016119439190613b25565b60405160208183030381529060405290611993576040517f08c379a000000000000000000000000000000000000000000000000000000000815260040161198a91906137e3565b60405180910390fd5b508080600101915050611902565b50600460008154809291906119b590613078565b9190505550600060045490506040518061018001604052808281526020018b81526020018a81526020018881526020018781526020016001151581526020013373ffffffffffffffffffffffffffffffffffffffff168152602001868152602001600081526020018581526020018481526020016040518060400160405280600381526020017f6e65770000000000000000000000000000000000000000000000000000000000815250815250600080838152602001908152602001600020600082015181600001556020820151816001019081611a93919061342d565b506040820151816002019081611aa9919061342d565b50606082015181600301556080820151816004015560a08201518160050160006101000a81548160ff02191690831515021790555060c08201518160050160016101000a81548173ffffffffffffffffffffffffffffffffffffffff021916908373ffffffffffffffffffffffffffffffffffffffff16021790555060e082015181600601556101008201518160070155610120820151816008019081611b50919061342d565b50610140820151816009019081611b67919061342d565b5061016082015181600a019081611b7e919061342d565b5090505060005b8851811015611c225760405180606001604052808281526020018a8381518110611bb257611bb1613154565b5b602002602001015181526020016000815250600160008481526020019081526020016000206000838152602001908152602001600020600082015181600001556020820151816001019081611c07919061342d565b50604082015181600201559050508080600101915050611b85565b5087516003600083815260200190815260200160002081905550807f0b0eb434b18eb3f0d02f9b4b01d92bf397c2fde355b0b3fad98aa2a5ffd63c2c8b33604051611c6e929190613b52565b60405180910390a28091505098975050505050505050565b6002602052816000526040600020602052806000526040600020600091509150508060000160009054906101000a900460ff16908060010154905082565b60608082806000808381526020019081526020016000206000015414611d1f576040517f08c379a0000000000000000000000000000000000000000000000000000000008152600401611d1690612da1565b60405180910390fd5b6000600360008681526020019081526020016000205490508067ffffffffffffffff811115611d5157611d5061278f565b5b604051908082528060200260200182016040528015611d8457816020015b6060815260200190600190039081611d6f5790505b5093508067ffffffffffffffff811115611da157611da061278f565b5b604051908082528060200260200182016040528015611dcf5781602001602082028036833780820191505090505b50925060005b81811015611f0b57600060016000888152602001908152602001600020600083815260200190815260200160002060405180606001604052908160008201548152602001600182018054611e28906130ef565b80601f0160208091040260200160405190810160405280929190818152602001828054611e54906130ef565b8015611ea15780601f10611e7657610100808354040283529160200191611ea1565b820191906000526020600020905b815481529060010190602001808311611e8457829003601f168201915b5050505050815260200160028201548152505090508060200151868381518110611ece57611ecd613154565b5b60200260200101819052508060400151858381518110611ef157611ef0613154565b5b602002602001018181525050508080600101915050611dd5565b505050915091565b60036020528060005260406000206000915090505481565b60006002600084815260200190815260200160002060008373ffffffffffffffffffffffffffffffffffffffff1673ffffffffffffffffffffffffffffffffffffffff16815260200190815260200160002060000160009054906101000a900460ff16905092915050565b606060008203611fdd576040518060400160405280600181526020017f300000000000000000000000000000000000000000000000000000000000000081525090506120f1565b600082905060005b6000821461200f578080611ff890613078565b915050600a826120089190613bb1565b9150611fe5565b60008167ffffffffffffffff81111561202b5761202a61278f565b5b6040519080825280601f01601f19166020018201604052801561205d5781602001600182028036833780820191505090505b5090505b600085146120ea576001826120769190613120565b9150600a856120859190613be2565b60306120919190613c13565b60f81b8183815181106120a7576120a6613154565b5b60200101907effffffffffffffffffffffffffffffffffffffffffffffffffffffffffffff1916908160001a905350600a856120e39190613bb1565b9450612061565b8093505050505b919050565b6040518061018001604052806000815260200160608152602001606081526020016000815260200160008152602001600015158152602001600073ffffffffffffffffffffffffffffffffffffffff16815260200160008152602001600081526020016060815260200160608152602001606081525090565b6000604051905090565b600080fd5b600080fd5b6000819050919050565b61219681612183565b81146121a157600080fd5b50565b6000813590506121b38161218d565b92915050565b600080604083850312156121d0576121cf612179565b5b60006121de858286016121a4565b92505060206121ef858286016121a4565b9150509250929050565b61220281612183565b82525050565b600081519050919050565b600082825260208201905092915050565b60005b83811015612242578082015181840152602081019050612227565b60008484015250505050565b6000601f19601f8301169050919050565b600061226a82612208565b6122748185612213565b9350612284818560208601612224565b61228d8161224e565b840191505092915050565b60006060820190506122ad60008301866121f9565b81810360208301526122bf818561225f565b90506122ce60408301846121f9565b949350505050565b6000602082840312156122ec576122eb612179565b5b60006122fa848285016121a4565b91505092915050565b60008115159050919050565b61231881612303565b82525050565b600073ffffffffffffffffffffffffffffffffffffffff82169050919050565b60006123498261231e565b9050919050565b6123598161233e565b82525050565b600061016082019050818103600083015261237a818e61225f565b9050818103602083015261238e818d61225f565b905061239d604083018c6121f9565b6123aa606083018b6121f9565b6123b7608083018a61230f565b6123c460a0830189612350565b6123d160c08301886121f9565b6123de60e08301876121f9565b8181036101008301526123f1818661225f565b9050818103610120830152612406818561225f565b905081810361014083015261241b818461225f565b90509c9b505050505050505050505050565b600061018082019050612443600083018f6121f9565b8181036020830152612455818e61225f565b90508181036040830152612469818d61225f565b9050612478606083018c6121f9565b612485608083018b6121f9565b61249260a083018a61230f565b61249f60c0830189612350565b6124ac60e08301886121f9565b6124ba6101008301876121f9565b8181036101208301526124cd818661225f565b90508181036101408301526124e2818561225f565b90508181036101608301526124f7818461225f565b90509d9c50505050505050505050505050565b600081519050919050565b600082825260208201905092915050565b6000819050602082019050919050565b61253f81612183565b82525050565b600082825260208201905092915050565b600061256182612208565b61256b8185612545565b935061257b818560208601612224565b6125848161224e565b840191505092915050565b61259881612303565b82525050565b6125a78161233e565b82525050565b6000610180830160008301516125c66000860182612536565b50602083015184820360208601526125de8282612556565b915050604083015184820360408601526125f88282612556565b915050606083015161260d6060860182612536565b5060808301516126206080860182612536565b5060a083015161263360a086018261258f565b5060c083015161264660c086018261259e565b5060e083015161265960e0860182612536565b5061010083015161266e610100860182612536565b506101208301518482036101208601526126888282612556565b9150506101408301518482036101408601526126a48282612556565b9150506101608301518482036101608601526126c08282612556565b9150508091505092915050565b60006126d983836125ad565b905092915050565b6000602082019050919050565b60006126f98261250a565b6127038185612515565b93508360208202850161271585612526565b8060005b85811015612751578484038952815161273285826126cd565b945061273d836126e1565b925060208a01995050600181019050612719565b50829750879550505050505092915050565b6000602082019050818103600083015261277d81846126ee565b905092915050565b600080fd5b600080fd5b7f4e487b7100000000000000000000000000000000000000000000000000000000600052604160045260246000fd5b6127c78261224e565b810181811067ffffffffffffffff821117156127e6576127e561278f565b5b80604052505050565b60006127f961216f565b905061280582826127be565b919050565b600067ffffffffffffffff8211156128255761282461278f565b5b61282e8261224e565b9050602081019050919050565b82818337600083830152505050565b600061285d6128588461280a565b6127ef565b9050828152602081018484840111156128795761287861278a565b5b61288484828561283b565b509392505050565b600082601f8301126128a1576128a0612785565b5b81356128b184826020860161284a565b91505092915050565b600067ffffffffffffffff8211156128d5576128d461278f565b5b602082029050602081019050919050565b600080fd5b60006128fe6128f9846128ba565b6127ef565b90508083825260208201905060208402830185811115612921576129206128e6565b5b835b8181101561296857803567ffffffffffffffff81111561294657612945612785565b5b808601612953898261288c565b85526020850194505050602081019050612923565b5050509392505050565b600082601f83011261298757612986612785565b5b81356129978482602086016128eb565b91505092915050565b600080600080600080600080610100898b0312156129c1576129c0612179565b5b600089013567ffffffffffffffff8111156129df576129de61217e565b5b6129eb8b828c0161288c565b985050602089013567ffffffffffffffff811115612a0c57612a0b61217e565b5b612a188b828c0161288c565b975050604089013567ffffffffffffffff811115612a3957612a3861217e565b5b612a458b828c01612972565b9650506060612a568b828c016121a4565b9550506080612a678b828c016121a4565b94505060a0612a788b828c016121a4565b93505060c089013567ffffffffffffffff811115612a9957612a9861217e565b5b612aa58b828c0161288c565b92505060e089013567ffffffffffffffff811115612ac657612ac561217e565b5b612ad28b828c0161288c565b9150509295985092959890939650565b6000602082019050612af760008301846121f9565b92915050565b612b068161233e565b8114612b1157600080fd5b50565b600081359050612b2381612afd565b92915050565b60008060408385031215612b4057612b3f612179565b5b6000612b4e858286016121a4565b9250506020612b5f85828601612b14565b9150509250929050565b6000604082019050612b7e600083018561230f565b612b8b60208301846121f9565b9392505050565b600081519050919050565b600082825260208201905092915050565b6000819050602082019050919050565b6000612bca8383612556565b905092915050565b6000602082019050919050565b6000612bea82612b92565b612bf48185612b9d565b935083602082028501612c0685612bae565b8060005b85811015612c425784840389528151612c238582612bbe565b9450612c2e83612bd2565b925060208a01995050600181019050612c0a565b50829750879550505050505092915050565b600081519050919050565b600082825260208201905092915050565b6000819050602082019050919050565b6000612c8c8383612536565b60208301905092915050565b6000602082019050919050565b6000612cb082612c54565b612cba8185612c5f565b9350612cc583612c70565b8060005b83811015612cf6578151612cdd8882612c80565b9750612ce883612c98565b925050600181019050612cc9565b5085935050505092915050565b60006040820190508181036000830152612d1d8185612bdf565b90508181036020830152612d318184612ca5565b90509392505050565b6000602082019050612d4f600083018461230f565b92915050565b7f566f746520646f6573206e6f7420657869737400000000000000000000000000600082015250565b6000612d8b601383612213565b9150612d9682612d55565b602082019050919050565b60006020820190508181036000830152612dba81612d7e565b9050919050565b7f566f7465206973206e6f74206163746976650000000000000000000000000000600082015250565b6000612df7601283612213565b9150612e0282612dc1565b602082019050919050565b60006020820190508181036000830152612e2681612dea565b9050919050565b7f566f746520686173206e6f742073746172746564000000000000000000000000600082015250565b6000612e63601483612213565b9150612e6e82612e2d565b602082019050919050565b60006020820190508181036000830152612e9281612e56565b9050919050565b7f566f74652068617320656e646564000000000000000000000000000000000000600082015250565b6000612ecf600e83612213565b9150612eda82612e99565b602082019050919050565b60006020820190508181036000830152612efe81612ec2565b9050919050565b7f416c726561647920766f74656400000000000000000000000000000000000000600082015250565b6000612f3b600d83612213565b9150612f4682612f05565b602082019050919050565b60006020820190508181036000830152612f6a81612f2e565b9050919050565b7f496e76616c6964206f7074696f6e000000000000000000000000000000000000600082015250565b6000612fa7600e83612213565b9150612fb282612f71565b602082019050919050565b60006020820190508181036000830152612fd681612f9a565b9050919050565b7f4d6178696d756d207061727469636970616e7473207265616368656400000000600082015250565b6000613013601c83612213565b915061301e82612fdd565b602082019050919050565b6000602082019050818103600083015261304281613006565b9050919050565b7f4e487b7100000000000000000000000000000000000000000000000000000000600052601160045260246000fd5b600061308382612183565b91507fffffffffffffffffffffffffffffffffffffffffffffffffffffffffffffffff82036130b5576130b4613049565b5b600182019050919050565b7f4e487b7100000000000000000000000000000000000000000000000000000000600052602260045260246000fd5b6000600282049050600182168061310757607f821691505b60208210810361311a576131196130c0565b5b50919050565b600061312b82612183565b915061313683612183565b925082820390508181111561314e5761314d613049565b5b92915050565b7f4e487b7100000000000000000000000000000000000000000000000000000000600052603260045260246000fd5b7f4f6e6c792063726561746f722063616e20706572666f726d207468697320616360008201527f74696f6e00000000000000000000000000000000000000000000000000000000602082015250565b60006131df602483612213565b91506131ea82613183565b604082019050919050565b6000602082019050818103600083015261320e816131d2565b9050919050565b7f566f746520616c726561647920656e6465640000000000000000000000000000600082015250565b600061324b601283612213565b915061325682613215565b602082019050919050565b6000602082019050818103600083015261327a8161323e565b9050919050565b60008190508160005260206000209050919050565b60006020601f8301049050919050565b600082821b905092915050565b6000600883026132e37fffffffffffffffffffffffffffffffffffffffffffffffffffffffffffffffff826132a6565b6132ed86836132a6565b95508019841693508086168417925050509392505050565b6000819050919050565b600061332a61332561332084612183565b613305565b612183565b9050919050565b6000819050919050565b6133448361330f565b61335861335082613331565b8484546132b3565b825550505050565b600090565b61336d613360565b61337881848461333b565b505050565b5b8181101561339c57613391600082613365565b60018101905061337e565b5050565b601f8211156133e1576133b281613281565b6133bb84613296565b810160208510156133ca578190505b6133de6133d685613296565b83018261337d565b50505b505050565b600082821c905092915050565b6000613404600019846008026133e6565b1980831691505092915050565b600061341d83836133f3565b9150826002028217905092915050565b61343682612208565b67ffffffffffffffff81111561344f5761344e61278f565b5b61345982546130ef565b6134648282856133a0565b600060209050601f8311600181146134975760008415613485578287015190505b61348f8582613411565b8655506134f7565b601f1984166134a586613281565b60005b828110156134cd578489015182556001820191506020850194506020810190506134a8565b868310156134ea57848901516134e6601f8916826133f3565b8355505b6001600288020188555050505b505050505050565b7f5469746c652063616e6e6f7420626520656d7074790000000000000000000000600082015250565b6000613535601583612213565b9150613540826134ff565b602082019050919050565b6000602082019050818103600083015261356481613528565b9050919050565b7f4465736372697074696f6e2063616e6e6f7420626520656d7074790000000000600082015250565b60006135a1601b83612213565b91506135ac8261356b565b602082019050919050565b600060208201905081810360008301526135d081613594565b9050919050565b7f526f6f6d206e616d652063616e6e6f7420626520656d70747900000000000000600082015250565b600061360d601983612213565b9150613618826135d7565b602082019050919050565b6000602082019050818103600083015261363c81613600565b9050919050565b7f41636365737320636f64652063616e6e6f7420626520656d7074790000000000600082015250565b6000613679601b83612213565b915061368482613643565b602082019050919050565b600060208201905081810360008301526136a88161366c565b9050919050565b600081905092915050565b7f53746172742074696d65206d75737420626520696e207468652066757475726560008201527f2e20476976656e3a200000000000000000000000000000000000000000000000602082015250565b60006137166029836136af565b9150613721826136ba565b602982019050919050565b600061373782612208565b61374181856136af565b9350613751818560208601612224565b80840191505092915050565b7f2c2043757272656e743a20000000000000000000000000000000000000000000600082015250565b6000613793600b836136af565b915061379e8261375d565b600b82019050919050565b60006137b482613709565b91506137c0828561372c565b91506137cb82613786565b91506137d7828461372c565b91508190509392505050565b600060208201905081810360008301526137fd818461225f565b905092915050565b7f456e642074696d65206d7573742062652061667465722073746172742074696d60008201527f652e2053746172743a2000000000000000000000000000000000000000000000602082015250565b6000613861602a836136af565b915061386c82613805565b602a82019050919050565b7f2c20456e643a2000000000000000000000000000000000000000000000000000600082015250565b60006138ad6007836136af565b91506138b882613877565b600782019050919050565b60006138ce82613854565b91506138da828561372c565b91506138e5826138a0565b91506138f1828461372c565b91508190509392505050565b7f4d7573742068617665206174206c656173742032206f7074696f6e7300000000600082015250565b6000613933601c83612213565b915061393e826138fd565b602082019050919050565b6000602082019050818103600083015261396281613926565b9050919050565b7f4d6178207061727469636970616e7473206d757374206265206772656174657260008201527f207468616e203000000000000000000000000000000000000000000000000000602082015250565b60006139c5602783612213565b91506139d082613969565b604082019050919050565b600060208201905081810360008301526139f4816139b8565b9050919050565b7f4d6178207061727469636970616e74732063616e6e6f7420657863656564203160008201527f3030300000000000000000000000000000000000000000000000000000000000602082015250565b6000613a57602383612213565b9150613a62826139fb565b604082019050919050565b60006020820190508181036000830152613a8681613a4a565b9050919050565b7f4f7074696f6e206e616d6520617420696e646578200000000000000000000000600082015250565b6000613ac36015836136af565b9150613ace82613a8d565b601582019050919050565b7f2063616e6e6f7420626520656d70747900000000000000000000000000000000600082015250565b6000613b0f6010836136af565b9150613b1a82613ad9565b601082019050919050565b6000613b3082613ab6565b9150613b3c828461372c565b9150613b4782613b02565b915081905092915050565b60006040820190508181036000830152613b6c818561225f565b9050613b7b6020830184612350565b9392505050565b7f4e487b7100000000000000000000000000000000000000000000000000000000600052601260045260246000fd5b6000613bbc82612183565b9150613bc783612183565b925082613bd757613bd6613b82565b5b828204905092915050565b6000613bed82612183565b9150613bf883612183565b925082613c0857613c07613b82565b5b828206905092915050565b6000613c1e82612183565b9150613c2983612183565b9250828201905080821115613c4157613c40613049565b5b9291505056fea264697066735822122029498bb62719251f135443b4e1b6261419d9d75ce6cfc486bfa782cf78ec105764736f6c63430008180033",
  "linkReferences": {},
  "deployedLinkReferences": {}
}