{
  "_format": "hh-sol-artifact-1",
  "contractName": "VotingSystem",
  "sourceName": "contracts/vote.sol",
  "abi": [
    {
      "anonymous": false,
      "inputs": [
        {
          "indexed": true,
          "internalType": "uint256",
          "name": "voteId",
          "type": "uint256"
        },
        {
          "indexed": true,
          "internalType": "address",
          "name": "voter",
          "type": "address"
        },
        {
          "indexed": false,
          "internalType": "uint256",
          "name": "optionId",
          "type": "uint256"
        }
      ],
      "name": "VoteCast",
      "type": "event"
    },
    {
      "anonymous": false,
      "inputs": [
        {
          "indexed": true,
          "internalType": "uint256",
          "name": "voteId",
          "type": "uint256"
        },
        {
          "indexed": false,
          "internalType": "string",
          "name": "title",
          "type": "string"
        },
        {
          "indexed": false,
          "internalType": "address",
          "name": "creator",
          "type": "address"
        }
      ],
      "name": "VoteCreated",
      "type": "event"
    },
    {
      "anonymous": false,
      "inputs": [
        {
          "indexed": true,
          "internalType": "uint256",
          "name": "voteId",
          "type": "uint256"
        }
      ],
      "name": "VoteEnded",
      "type": "event"
    },
    {
      "anonymous": false,
      "inputs": [
        {
          "indexed": true,
          "internalType": "uint256",
          "name": "voteId",
          "type": "uint256"
        },
        {
          "indexed": false,
          "internalType": "string",
          "name": "newStatus",
          "type": "string"
        }
      ],
      "name": "VoteStatusUpdated",
      "type": "event"
    },
    {
      "inputs": [
        {
          "internalType": "uint256",
          "name": "_voteId",
          "type": "uint256"
        },
        {
          "internalType": "uint256",
          "name": "_optionId",
          "type": "uint256"
        }
      ],
      "name": "castVote",
      "outputs": [],
      "stateMutability": "nonpayable",
      "type": "function"
    },
    {
      "inputs": [
        {
          "internalType": "string",
          "name": "_title",
          "type": "string"
        },
        {
          "internalType": "string",
          "name": "_description",
          "type": "string"
        },
        {
          "internalType": "string[]",
          "name": "_optionNames",
          "type": "string[]"
        },
        {
          "internalType": "uint256",
          "name": "_startTime",
          "type": "uint256"
        },
        {
          "internalType": "uint256",
          "name": "_endTime",
          "type": "uint256"
        },
        {
          "internalType": "uint256",
          "name": "_maxParticipants",
          "type": "uint256"
        },
        {
          "internalType": "string",
          "name": "_roomName",
          "type": "string"
        },
        {
          "internalType": "string",
          "name": "_accessCode",
          "type": "string"
        }
      ],
      "name": "createVote",
      "outputs": [
        {
          "internalType": "uint256",
          "name": "",
          "type": "uint256"
        }
      ],
      "stateMutability": "nonpayable",
      "type": "function"
    },
    {
      "inputs": [
        {
          "internalType": "uint256",
          "name": "_voteId",
          "type": "uint256"
        }
      ],
      "name": "endVote",
      "outputs": [],
      "stateMutability": "nonpayable",
      "type": "function"
    },
    {
      "inputs": [],
      "name": "getAllVoteOptions",
      "outputs": [
        {
          "components": [
            {
              "internalType": "string",
              "name": "name",
              "type": "string"
            },
            {
              "internalType": "uint256",
              "name": "voteCount",
              "type": "uint256"
            }
          ],
          "internalType": "struct VotingSystem.VoteOption[][]",
          "name": "",
          "type": "tuple[][]"
        }
      ],
      "stateMutability": "view",
      "type": "function"
    },
    {
      "inputs": [],
      "name": "getAllVotesPart1",
      "outputs": [
        {
          "internalType": "uint256[]",
          "name": "voteIds",
          "type": "uint256[]"
        },
        {
          "internalType": "string[]",
          "name": "titles",
          "type": "string[]"
        },
        {
          "internalType": "string[]",
          "name": "descriptions",
          "type": "string[]"
        },
        {
          "internalType": "uint256[]",
          "name": "startTimes",
          "type": "uint256[]"
        }
      ],
      "stateMutability": "view",
      "type": "function"
    },
    {
      "inputs": [],
      "name": "getAllVotesPart2",
      "outputs": [
        {
          "internalType": "uint256[]",
          "name": "endTimes",
          "type": "uint256[]"
        },
        {
          "internalType": "bool[]",
          "name": "isActives",
          "type": "bool[]"
        },
        {
          "internalType": "address[]",
          "name": "creators",
          "type": "address[]"
        },
        {
          "internalType": "uint256[]",
          "name": "maxParticipants",
          "type": "uint256[]"
        }
      ],
      "stateMutability": "view",
      "type": "function"
    },
    {
      "inputs": [],
      "name": "getAllVotesPart3",
      "outputs": [
        {
          "internalType": "uint256[]",
          "name": "currentParticipants",
          "type": "uint256[]"
        },
        {
          "internalType": "string[]",
          "name": "roomNames",
          "type": "string[]"
        },
        {
          "internalType": "string[]",
          "name": "accessCodes",
          "type": "string[]"
        },
        {
          "internalType": "string[]",
          "name": "statuses",
          "type": "string[]"
        }
      ],
      "stateMutability": "view",
      "type": "function"
    },
    {
      "inputs": [],
      "name": "getTotalVotes",
      "outputs": [
        {
          "internalType": "uint256",
          "name": "totalVotes",
          "type": "uint256"
        },
        {
          "components": [
            {
              "internalType": "string",
              "name": "name",
              "type": "string"
            },
            {
              "internalType": "uint256",
              "name": "voteCount",
              "type": "uint256"
            }
          ],
          "internalType": "struct VotingSystem.VoteOption[]",
          "name": "options",
          "type": "tuple[]"
        }
      ],
      "stateMutability": "view",
      "type": "function"
    },
    {
      "inputs": [],
      "name": "getVoteCount",
      "outputs": [
        {
          "internalType": "uint256",
          "name": "",
          "type": "uint256"
        }
      ],
      "stateMutability": "view",
      "type": "function"
    },
    {
      "inputs": [
        {
          "internalType": "uint256",
          "name": "_voteId",
          "type": "uint256"
        }
      ],
      "name": "getVoteDetails",
      "outputs": [
        {
          "internalType": "string",
          "name": "title",
          "type": "string"
        },
        {
          "internalType": "string",
          "name": "description",
          "type": "string"
        },
        {
          "internalType": "uint256",
          "name": "startTime",
          "type": "uint256"
        },
        {
          "internalType": "uint256",
          "name": "endTime",
          "type": "uint256"
        },
        {
          "internalType": "bool",
          "name": "isActive",
          "type": "bool"
        },
        {
          "internalType": "address",
          "name": "creator",
          "type": "address"
        },
        {
          "internalType": "uint256",
          "name": "maxParticipants",
          "type": "uint256"
        },
        {
          "internalType": "uint256",
          "name": "currentParticipants",
          "type": "uint256"
        },
        {
          "internalType": "string",
          "name": "roomName",
          "type": "string"
        },
        {
          "internalType": "string",
          "name": "accessCode",
          "type": "string"
        },
        {
          "internalType": "string",
          "name": "status",
          "type": "string"
        }
      ],
      "stateMutability": "view",
      "type": "function"
    },
    {
      "inputs": [
        {
          "internalType": "uint256",
          "name": "voteId",
          "type": "uint256"
        }
      ],
      "name": "getVoteOptions",
      "outputs": [
        {
          "components": [
            {
              "internalType": "string",
              "name": "name",
              "type": "string"
            },
            {
              "internalType": "uint256",
              "name": "voteCount",
              "type": "uint256"
            }
          ],
          "internalType": "struct VotingSystem.VoteOption[]",
          "name": "",
          "type": "tuple[]"
        }
      ],
      "stateMutability": "view",
      "type": "function"
    },
    {
      "inputs": [
        {
          "internalType": "uint256",
          "name": "_voteId",
          "type": "uint256"
        }
      ],
      "name": "getVoteResults",
      "outputs": [
        {
          "internalType": "string[]",
          "name": "names",
          "type": "string[]"
        },
        {
          "internalType": "uint256[]",
          "name": "counts",
          "type": "uint256[]"
        }
      ],
      "stateMutability": "view",
      "type": "function"
    },
    {
      "inputs": [
        {
          "internalType": "uint256",
          "name": "_voteId",
          "type": "uint256"
        },
        {
          "internalType": "address",
          "name": "_voter",
          "type": "address"
        }
      ],
      "name": "hasUserVoted",
      "outputs": [
        {
          "internalType": "bool",
          "name": "",
          "type": "bool"
        }
      ],
      "stateMutability": "view",
      "type": "function"
    },
    {
      "inputs": [
        {
          "internalType": "uint256",
          "name": "",
          "type": "uint256"
        }
      ],
      "name": "optionCounts",
      "outputs": [
        {
          "internalType": "uint256",
          "name": "",
          "type": "uint256"
        }
      ],
      "stateMutability": "view",
      "type": "function"
    },
    {
      "inputs": [
        {
          "internalType": "uint256",
          "name": "_voteId",
          "type": "uint256"
        },
        {
          "internalType": "string",
          "name": "_newStatus",
          "type": "string"
        }
      ],
      "name": "updateVoteStatus",
      "outputs": [],
      "stateMutability": "nonpayable",
      "type": "function"
    },
    {
      "inputs": [
        {
          "internalType": "uint256",
          "name": "",
          "type": "uint256"
        },
        {
          "internalType": "uint256",
          "name": "",
          "type": "uint256"
        }
      ],
      "name": "voteOptions",
      "outputs": [
        {
          "internalType": "uint256",
          "name": "id",
          "type": "uint256"
        },
        {
          "internalType": "string",
          "name": "name",
          "type": "string"
        },
        {
          "internalType": "uint256",
          "name": "voteCount",
          "type": "uint256"
        }
      ],
      "stateMutability": "view",
      "type": "function"
    },
    {
      "inputs": [
        {
          "internalType": "uint256",
          "name": "",
          "type": "uint256"
        },
        {
          "internalType": "address",
          "name": "",
          "type": "address"
        }
      ],
      "name": "voters",
      "outputs": [
        {
          "internalType": "bool",
          "name": "hasVoted",
          "type": "bool"
        },
        {
          "internalType": "uint256",
          "name": "votedOptionId",
          "type": "uint256"
        }
      ],
      "stateMutability": "view",
      "type": "function"
    },
    {
      "inputs": [
        {
          "internalType": "uint256",
          "name": "",
          "type": "uint256"
        }
      ],
      "name": "votes",
      "outputs": [
        {
          "internalType": "uint256",
          "name": "id",
          "type": "uint256"
        },
        {
          "internalType": "string",
          "name": "title",
          "type": "string"
        },
        {
          "internalType": "string",
          "name": "description",
          "type": "string"
        },
        {
          "internalType": "uint256",
          "name": "startTime",
          "type": "uint256"
        },
        {
          "internalType": "uint256",
          "name": "endTime",
          "type": "uint256"
        },
        {
          "internalType": "bool",
          "name": "isActive",
          "type": "bool"
        },
        {
          "internalType": "address",
          "name": "creator",
          "type": "address"
        },
        {
          "internalType": "uint256",
          "name": "maxParticipants",
          "type": "uint256"
        },
        {
          "internalType": "uint256",
          "name": "currentParticipants",
          "type": "uint256"
        },
        {
          "internalType": "string",
          "name": "roomName",
          "type": "string"
        },
        {
          "internalType": "string",
          "name": "accessCode",
          "type": "string"
        },
        {
          "internalType": "string",
          "name": "status",
          "type": "string"
        }
      ],
      "stateMutability": "view",
      "type": "function"
    }
  ],
  "bytecode": "0x608060405234801561001057600080fd5b506153b9806100206000396000f3fe608060405234801561001057600080fd5b50600436106101165760003560e01c80639a0e7d66116100a2578063dc296ae111610071578063dc296ae114610336578063e71e89de14610366578063e7b3387c14610387578063f1e6bb1c146103a5578063f71d1c27146103d557610116565b80639a0e7d66146102855780639e319063146102a4578063a88922b3146102d5578063b0d261681461030657610116565b806354a1b431116100e957806354a1b431146101a85780635df81330146101e25780638053f7ad1461021d578063865df0ad146102395780638c1bdbae1461025557610116565b80630d5b98541461011b5780632c0a3f891461013c5780633c4f55001461015857806350cf30631461018a575b600080fd5b6101236103f6565b60405161013394939291906138f7565b60405180910390f35b61015660048036038101906101519190613998565b6109db565b005b610172600480360381019061016d9190613998565b610dfc565b60405161018193929190613a77565b60405180910390f35b610192610ebb565b60405161019f9190613cc0565b60405180910390f35b6101c260048036038101906101bd9190613ce2565b611149565b6040516101d99b9a99989796959493929190613d2d565b60405180910390f35b6101fc60048036038101906101f79190613ce2565b6115b3565b6040516102149c9b9a99989796959493929190613dfb565b60405180910390f35b6102376004803603810190610232919061400d565b6118e8565b005b610253600480360381019061024e9190613ce2565b611b84565b005b61026f600480360381019061026a919061414f565b611d9a565b60405161027c9190614291565b60405180910390f35b61028d6122ff565b60405161029b929190614332565b60405180910390f35b6102be60048036038101906102b9919061438e565b6124bd565b6040516102cc9291906143ce565b60405180910390f35b6102ef60048036038101906102ea9190613ce2565b6124fb565b6040516102fd9291906144b9565b60405180910390f35b610320600480360381019061031b9190613ce2565b61274a565b60405161032d9190614291565b60405180910390f35b610350600480360381019061034b919061438e565b612762565b60405161035d91906144f0565b60405180910390f35b61036e6127cd565b60405161037e949392919061450b565b60405180910390f35b61038f612d8e565b60405161039c9190614291565b60405180910390f35b6103bf60048036038101906103ba9190613ce2565b612d98565b6040516103cc919061456c565b60405180910390f35b6103dd612f42565b6040516103ed949392919061458e565b60405180910390f35b606080606080600060045490508067ffffffffffffffff81111561041d5761041c613ee2565b5b60405190808252806020026020018201604052801561044b5781602001602082028036833780820191505090505b5094508067ffffffffffffffff81111561046857610467613ee2565b5b6040519080825280602002602001820160405280156104965781602001602082028036833780820191505090505b5093508067ffffffffffffffff8111156104b3576104b2613ee2565b5b6040519080825280602002602001820160405280156104e15781602001602082028036833780820191505090505b5092508067ffffffffffffffff8111156104fe576104fd613ee2565b5b60405190808252806020026020018201604052801561052c5781602001602082028036833780820191505090505b5091506000600190505b8181116109d357600080600083815260200190815260200160002060405180610180016040529081600082015481526020016001820180546105779061461e565b80601f01602080910402602001604051908101604052809291908181526020018280546105a39061461e565b80156105f05780601f106105c5576101008083540402835291602001916105f0565b820191906000526020600020905b8154815290600101906020018083116105d357829003601f168201915b505050505081526020016002820180546106099061461e565b80601f01602080910402602001604051908101604052809291908181526020018280546106359061461e565b80156106825780601f1061065757610100808354040283529160200191610682565b820191906000526020600020905b81548152906001019060200180831161066557829003601f168201915b5050505050815260200160038201548152602001600482015481526020016005820160009054906101000a900460ff161515151581526020016005820160019054906101000a900473ffffffffffffffffffffffffffffffffffffffff1673ffffffffffffffffffffffffffffffffffffffff1673ffffffffffffffffffffffffffffffffffffffff16815260200160068201548152602001600782015481526020016008820180546107349061461e565b80601f01602080910402602001604051908101604052809291908181526020018280546107609061461e565b80156107ad5780601f10610782576101008083540402835291602001916107ad565b820191906000526020600020905b81548152906001019060200180831161079057829003601f168201915b505050505081526020016009820180546107c69061461e565b80601f01602080910402602001604051908101604052809291908181526020018280546107f29061461e565b801561083f5780601f106108145761010080835404028352916020019161083f565b820191906000526020600020905b81548152906001019060200180831161082257829003601f168201915b50505050508152602001600a820180546108589061461e565b80601f01602080910402602001604051908101604052809291908181526020018280546108849061461e565b80156108d15780601f106108a6576101008083540402835291602001916108d1565b820191906000526020600020905b8154815290600101906020018083116108b457829003601f168201915b505050505081525050905060008160000151146109bf5760006001836108f7919061467e565b90508160800151888281518110610911576109106146b2565b5b6020026020010181815250508160a00151878281518110610935576109346146b2565b5b6020026020010190151590811515815250508160c0015186828151811061095f5761095e6146b2565b5b602002602001019073ffffffffffffffffffffffffffffffffffffffff16908173ffffffffffffffffffffffffffffffffffffffff16815250508160e001518582815181106109b1576109b06146b2565b5b602002602001018181525050505b5080806109cb906146e1565b915050610536565b505090919293565b81806000808381526020019081526020016000206000015414610a33576040517f08c379a0000000000000000000000000000000000000000000000000000000008152600401610a2a90614775565b60405180910390fd5b8260008082815260200190815260200160002060050160009054906101000a900460ff16610a96576040517f08c379a0000000000000000000000000000000000000000000000000000000008152600401610a8d906147e1565b60405180910390fd5b60008082815260200190815260200160002060030154421015610aee576040517f08c379a0000000000000000000000000000000000000000000000000000000008152600401610ae59061484d565b60405180910390fd5b60008082815260200190815260200160002060040154421115610b46576040517f08c379a0000000000000000000000000000000000000000000000000000000008152600401610b3d906148b9565b60405180910390fd5b836002600082815260200190815260200160002060003373ffffffffffffffffffffffffffffffffffffffff1673ffffffffffffffffffffffffffffffffffffffff16815260200190815260200160002060000160009054906101000a900460ff1615610be8576040517f08c379a0000000000000000000000000000000000000000000000000000000008152600401610bdf90614925565b60405180910390fd5b60036000868152602001908152602001600020548410610c3d576040517f08c379a0000000000000000000000000000000000000000000000000000000008152600401610c3490614991565b60405180910390fd5b600080868152602001908152602001600020600601546000808781526020019081526020016000206007015410610ca9576040517f08c379a0000000000000000000000000000000000000000000000000000000008152600401610ca0906149fd565b60405180910390fd5b6040518060400160405280600115158152602001858152506002600087815260200190815260200160002060003373ffffffffffffffffffffffffffffffffffffffff1673ffffffffffffffffffffffffffffffffffffffff16815260200190815260200160002060008201518160000160006101000a81548160ff021916908315150217905550602082015181600101559050506001600086815260200190815260200160002060008581526020019081526020016000206002016000815480929190610d76906146e1565b91905055506000808681526020019081526020016000206007016000815480929190610da1906146e1565b91905055503373ffffffffffffffffffffffffffffffffffffffff16857f2acce567deca3aabf56327adbb4524bd5318936eaefa69e3a5208ffda0cfec0986604051610ded9190614291565b60405180910390a35050505050565b600160205281600052604060002060205280600052604060002060009150915050806000015490806001018054610e329061461e565b80601f0160208091040260200160405190810160405280929190818152602001828054610e5e9061461e565b8015610eab5780601f10610e8057610100808354040283529160200191610eab565b820191906000526020600020905b815481529060010190602001808311610e8e57829003601f168201915b5050505050908060020154905083565b60606000600454905060008167ffffffffffffffff811115610ee057610edf613ee2565b5b604051908082528060200260200182016040528015610f1357816020015b6060815260200190600190039081610efe5790505b5090506000600190505b828111611140576000806000838152602001908152602001600020600001541461112d576000600360008381526020019081526020016000205490508067ffffffffffffffff811115610f7357610f72613ee2565b5b604051908082528060200260200182016040528015610fac57816020015b610f9961365b565b815260200190600190039081610f915790505b5083600184610fbb919061467e565b81518110610fcc57610fcb6146b2565b5b602002602001018190525060005b8181101561112a5760006001600085815260200190815260200160002060008381526020019081526020016000206040518060600160405290816000820154815260200160018201805461102d9061461e565b80601f01602080910402602001604051908101604052809291908181526020018280546110599061461e565b80156110a65780601f1061107b576101008083540402835291602001916110a6565b820191906000526020600020905b81548152906001019060200180831161108957829003601f168201915b5050505050815260200160028201548152505090506040518060400160405280826020015181526020018260400151815250856001866110e6919061467e565b815181106110f7576110f66146b2565b5b60200260200101518381518110611111576111106146b2565b5b6020026020010181905250508080600101915050610fda565b50505b8080611138906146e1565b915050610f1d565b50809250505090565b60608060008060008060008060608060608b8060008083815260200190815260200160002060000154146111b2576040517f08c379a00000000000000000000000000000000000000000000000000000000081526004016111a990614775565b60405180910390fd5b60008060008f815260200190815260200160002060405180610180016040529081600082015481526020016001820180546111ec9061461e565b80601f01602080910402602001604051908101604052809291908181526020018280546112189061461e565b80156112655780601f1061123a57610100808354040283529160200191611265565b820191906000526020600020905b81548152906001019060200180831161124857829003601f168201915b5050505050815260200160028201805461127e9061461e565b80601f01602080910402602001604051908101604052809291908181526020018280546112aa9061461e565b80156112f75780601f106112cc576101008083540402835291602001916112f7565b820191906000526020600020905b8154815290600101906020018083116112da57829003601f168201915b5050505050815260200160038201548152602001600482015481526020016005820160009054906101000a900460ff161515151581526020016005820160019054906101000a900473ffffffffffffffffffffffffffffffffffffffff1673ffffffffffffffffffffffffffffffffffffffff1673ffffffffffffffffffffffffffffffffffffffff16815260200160068201548152602001600782015481526020016008820180546113a99061461e565b80601f01602080910402602001604051908101604052809291908181526020018280546113d59061461e565b80156114225780601f106113f757610100808354040283529160200191611422565b820191906000526020600020905b81548152906001019060200180831161140557829003601f168201915b5050505050815260200160098201805461143b9061461e565b80601f01602080910402602001604051908101604052809291908181526020018280546114679061461e565b80156114b45780601f10611489576101008083540402835291602001916114b4565b820191906000526020600020905b81548152906001019060200180831161149757829003601f168201915b50505050508152602001600a820180546114cd9061461e565b80601f01602080910402602001604051908101604052809291908181526020018280546114f99061461e565b80156115465780601f1061151b57610100808354040283529160200191611546565b820191906000526020600020905b81548152906001019060200180831161152957829003601f168201915b505050505081525050905080602001518160400151826060015183608001518460a001518560c001518660e001518761010001518861012001518961014001518a61016001519c509c509c509c509c509c509c509c509c509c509c50505091939597999b90929496989a50565b60006020528060005260406000206000915090508060000154908060010180546115dc9061461e565b80601f01602080910402602001604051908101604052809291908181526020018280546116089061461e565b80156116555780601f1061162a57610100808354040283529160200191611655565b820191906000526020600020905b81548152906001019060200180831161163857829003601f168201915b50505050509080600201805461166a9061461e565b80601f01602080910402602001604051908101604052809291908181526020018280546116969061461e565b80156116e35780601f106116b8576101008083540402835291602001916116e3565b820191906000526020600020905b8154815290600101906020018083116116c657829003601f168201915b5050505050908060030154908060040154908060050160009054906101000a900460ff16908060050160019054906101000a900473ffffffffffffffffffffffffffffffffffffffff16908060060154908060070154908060080180546117499061461e565b80601f01602080910402602001604051908101604052809291908181526020018280546117759061461e565b80156117c25780601f10611797576101008083540402835291602001916117c2565b820191906000526020600020905b8154815290600101906020018083116117a557829003601f168201915b5050505050908060090180546117d79061461e565b80601f01602080910402602001604051908101604052809291908181526020018280546118039061461e565b80156118505780601f1061182557610100808354040283529160200191611850565b820191906000526020600020905b81548152906001019060200180831161183357829003601f168201915b50505050509080600a0180546118659061461e565b80601f01602080910402602001604051908101604052809291908181526020018280546118919061461e565b80156118de5780601f106118b3576101008083540402835291602001916118de565b820191906000526020600020905b8154815290600101906020018083116118c157829003601f168201915b505050505090508c565b81806000808381526020019081526020016000206000015414611940576040517f08c379a000000000000000000000000000000000000000000000000000000000815260040161193790614775565b60405180910390fd5b60008084815260200190815260200160002060050160019054906101000a900473ffffffffffffffffffffffffffffffffffffffff1673ffffffffffffffffffffffffffffffffffffffff163373ffffffffffffffffffffffffffffffffffffffff1614806119ee5750738626f6940e2eb28930efb4cef49b2d1f2c9c119973ffffffffffffffffffffffffffffffffffffffff163373ffffffffffffffffffffffffffffffffffffffff16145b611a2d576040517f08c379a0000000000000000000000000000000000000000000000000000000008152600401611a2490614a8f565b60405180910390fd5b81600080858152602001908152602001600020600a019081611a4f9190614c5b565b506040518060400160405280600681526020017f616374697665000000000000000000000000000000000000000000000000000081525080519060200120828051906020012003611acd57600160008085815260200190815260200160002060050160006101000a81548160ff021916908315150217905550611b47565b6040518060400160405280600681526020017f636c6f736564000000000000000000000000000000000000000000000000000081525080519060200120828051906020012003611b4657600080600085815260200190815260200160002060050160006101000a81548160ff0219169083151502179055505b5b827f159a9374a20d2b57ba41813df9de8007c32f0b5d154847056b30c1be134af53383604051611b779190614d2d565b60405180910390a2505050565b80806000808381526020019081526020016000206000015414611bdc576040517f08c379a0000000000000000000000000000000000000000000000000000000008152600401611bd390614775565b60405180910390fd5b813373ffffffffffffffffffffffffffffffffffffffff1660008083815260200190815260200160002060050160019054906101000a900473ffffffffffffffffffffffffffffffffffffffff1673ffffffffffffffffffffffffffffffffffffffff1614611c80576040517f08c379a0000000000000000000000000000000000000000000000000000000008152600401611c7790614dc1565b60405180910390fd5b60008084815260200190815260200160002060050160009054906101000a900460ff16611ce2576040517f08c379a0000000000000000000000000000000000000000000000000000000008152600401611cd990614e2d565b60405180910390fd5b600080600085815260200190815260200160002060050160006101000a81548160ff0219169083151502179055506040518060400160405280600681526020017f636c6f7365640000000000000000000000000000000000000000000000000000815250600080858152602001908152602001600020600a019081611d679190614c5b565b50827fe12e0241ed3b6bb5b8b9e5b0c487661a72158d47e347fa539ef01a1fafcb3a3d60405160405180910390a2505050565b600080895111611ddf576040517f08c379a0000000000000000000000000000000000000000000000000000000008152600401611dd690614e99565b60405180910390fd5b6000885111611e23576040517f08c379a0000000000000000000000000000000000000000000000000000000008152600401611e1a90614f05565b60405180910390fd5b6000835111611e67576040517f08c379a0000000000000000000000000000000000000000000000000000000008152600401611e5e90614f71565b60405180910390fd5b6000825111611eab576040517f08c379a0000000000000000000000000000000000000000000000000000000008152600401611ea290614fdd565b60405180910390fd5b600287511015611ef0576040517f08c379a0000000000000000000000000000000000000000000000000000000008152600401611ee790615049565b60405180910390fd5b60008411611f33576040517f08c379a0000000000000000000000000000000000000000000000000000000008152600401611f2a906150db565b60405180910390fd5b6103e8841115611f78576040517f08c379a0000000000000000000000000000000000000000000000000000000008152600401611f6f9061516d565b60405180910390fd5b60005b875181101561201a576000888281518110611f9957611f986146b2565b5b60200260200101515111611fac826134fb565b604051602001611fbc9190615261565b6040516020818303038152906040529061200c576040517f08c379a00000000000000000000000000000000000000000000000000000000081526004016120039190614d2d565b60405180910390fd5b508080600101915050611f7b565b506004600081548092919061202e906146e1565b9190505550600060045490506040518061018001604052808281526020018b81526020018a81526020018881526020018781526020016001151581526020013373ffffffffffffffffffffffffffffffffffffffff168152602001868152602001600081526020018581526020018481526020016040518060400160405280600381526020017f6e6577000000000000000000000000000000000000000000000000000000000081525081525060008083815260200190815260200160002060008201518160000155602082015181600101908161210c9190614c5b565b5060408201518160020190816121229190614c5b565b50606082015181600301556080820151816004015560a08201518160050160006101000a81548160ff02191690831515021790555060c08201518160050160016101000a81548173ffffffffffffffffffffffffffffffffffffffff021916908373ffffffffffffffffffffffffffffffffffffffff16021790555060e0820151816006015561010082015181600701556101208201518160080190816121c99190614c5b565b506101408201518160090190816121e09190614c5b565b5061016082015181600a0190816121f79190614c5b565b5090505060005b885181101561229b5760405180606001604052808281526020018a838151811061222b5761222a6146b2565b5b6020026020010151815260200160008152506001600084815260200190815260200160002060008381526020019081526020016000206000820151816000015560208201518160010190816122809190614c5b565b506040820151816002015590505080806001019150506121fe565b5087516003600083815260200190815260200160002081905550807f0b0eb434b18eb3f0d02f9b4b01d92bf397c2fde355b0b3fad98aa2a5ffd63c2c8b336040516122e792919061528e565b60405180910390a28091505098975050505050505050565b60006060600454915060006001600454612319919061467e565b90506000600360008381526020019081526020016000205490508067ffffffffffffffff81111561234d5761234c613ee2565b5b60405190808252806020026020018201604052801561238657816020015b61237361365b565b81526020019060019003908161236b5790505b50925060005b818110156124b6576000600160008581526020019081526020016000206000838152602001908152602001600020604051806060016040529081600082015481526020016001820180546123df9061461e565b80601f016020809104026020016040519081016040528092919081815260200182805461240b9061461e565b80156124585780601f1061242d57610100808354040283529160200191612458565b820191906000526020600020905b81548152906001019060200180831161243b57829003601f168201915b505050505081526020016002820154815250509050604051806040016040528082602001518152602001826040015181525085838151811061249d5761249c6146b2565b5b602002602001018190525050808060010191505061238c565b5050509091565b6002602052816000526040600020602052806000526040600020600091509150508060000160009054906101000a900460ff16908060010154905082565b60608082806000808381526020019081526020016000206000015414612556576040517f08c379a000000000000000000000000000000000000000000000000000000000815260040161254d90614775565b60405180910390fd5b6000600360008681526020019081526020016000205490508067ffffffffffffffff81111561258857612587613ee2565b5b6040519080825280602002602001820160405280156125bb57816020015b60608152602001906001900390816125a65790505b5093508067ffffffffffffffff8111156125d8576125d7613ee2565b5b6040519080825280602002602001820160405280156126065781602001602082028036833780820191505090505b50925060005b818110156127425760006001600088815260200190815260200160002060008381526020019081526020016000206040518060600160405290816000820154815260200160018201805461265f9061461e565b80601f016020809104026020016040519081016040528092919081815260200182805461268b9061461e565b80156126d85780601f106126ad576101008083540402835291602001916126d8565b820191906000526020600020905b8154815290600101906020018083116126bb57829003601f168201915b5050505050815260200160028201548152505090508060200151868381518110612705576127046146b2565b5b60200260200101819052508060400151858381518110612728576127276146b2565b5b60200260200101818152505050808060010191505061260c565b505050915091565b60036020528060005260406000206000915090505481565b60006002600084815260200190815260200160002060008373ffffffffffffffffffffffffffffffffffffffff1673ffffffffffffffffffffffffffffffffffffffff16815260200190815260200160002060000160009054906101000a900460ff16905092915050565b606080606080600060045490508067ffffffffffffffff8111156127f4576127f3613ee2565b5b6040519080825280602002602001820160405280156128225781602001602082028036833780820191505090505b5094508067ffffffffffffffff81111561283f5761283e613ee2565b5b60405190808252806020026020018201604052801561287257816020015b606081526020019060019003908161285d5790505b5093508067ffffffffffffffff81111561288f5761288e613ee2565b5b6040519080825280602002602001820160405280156128c257816020015b60608152602001906001900390816128ad5790505b5092508067ffffffffffffffff8111156128df576128de613ee2565b5b60405190808252806020026020018201604052801561291257816020015b60608152602001906001900390816128fd5790505b5091506000600190505b818111612d86576000806000838152602001908152602001600020604051806101800160405290816000820154815260200160018201805461295d9061461e565b80601f01602080910402602001604051908101604052809291908181526020018280546129899061461e565b80156129d65780601f106129ab576101008083540402835291602001916129d6565b820191906000526020600020905b8154815290600101906020018083116129b957829003601f168201915b505050505081526020016002820180546129ef9061461e565b80601f0160208091040260200160405190810160405280929190818152602001828054612a1b9061461e565b8015612a685780601f10612a3d57610100808354040283529160200191612a68565b820191906000526020600020905b815481529060010190602001808311612a4b57829003601f168201915b5050505050815260200160038201548152602001600482015481526020016005820160009054906101000a900460ff161515151581526020016005820160019054906101000a900473ffffffffffffffffffffffffffffffffffffffff1673ffffffffffffffffffffffffffffffffffffffff1673ffffffffffffffffffffffffffffffffffffffff1681526020016006820154815260200160078201548152602001600882018054612b1a9061461e565b80601f0160208091040260200160405190810160405280929190818152602001828054612b469061461e565b8015612b935780601f10612b6857610100808354040283529160200191612b93565b820191906000526020600020905b815481529060010190602001808311612b7657829003601f168201915b50505050508152602001600982018054612bac9061461e565b80601f0160208091040260200160405190810160405280929190818152602001828054612bd89061461e565b8015612c255780601f10612bfa57610100808354040283529160200191612c25565b820191906000526020600020905b815481529060010190602001808311612c0857829003601f168201915b50505050508152602001600a82018054612c3e9061461e565b80601f0160208091040260200160405190810160405280929190818152602001828054612c6a9061461e565b8015612cb75780601f10612c8c57610100808354040283529160200191612cb7565b820191906000526020600020905b815481529060010190602001808311612c9a57829003601f168201915b50505050508152505090506000816000015114612d72576000600183612cdd919061467e565b9050816101000151888281518110612cf857612cf76146b2565b5b602002602001018181525050816101200151878281518110612d1d57612d1c6146b2565b5b6020026020010181905250816101400151868281518110612d4157612d406146b2565b5b6020026020010181905250816101600151858281518110612d6557612d646146b2565b5b6020026020010181905250505b508080612d7e906146e1565b91505061291c565b505090919293565b6000600454905090565b606060006003600084815260200190815260200160002054905060008167ffffffffffffffff811115612dce57612dcd613ee2565b5b604051908082528060200260200182016040528015612e0757816020015b612df461365b565b815260200190600190039081612dec5790505b50905060005b82811015612f3757600060016000878152602001908152602001600020600083815260200190815260200160002060405180606001604052908160008201548152602001600182018054612e609061461e565b80601f0160208091040260200160405190810160405280929190818152602001828054612e8c9061461e565b8015612ed95780601f10612eae57610100808354040283529160200191612ed9565b820191906000526020600020905b815481529060010190602001808311612ebc57829003601f168201915b5050505050815260200160028201548152505090506040518060400160405280826020015181526020018260400151815250838381518110612f1e57612f1d6146b2565b5b6020026020010181905250508080600101915050612e0d565b508092505050919050565b606080606080600060045490508067ffffffffffffffff811115612f6957612f68613ee2565b5b604051908082528060200260200182016040528015612f975781602001602082028036833780820191505090505b5094508067ffffffffffffffff811115612fb457612fb3613ee2565b5b604051908082528060200260200182016040528015612fe757816020015b6060815260200190600190039081612fd25790505b5093508067ffffffffffffffff81111561300457613003613ee2565b5b60405190808252806020026020018201604052801561303757816020015b60608152602001906001900390816130225790505b5092508067ffffffffffffffff81111561305457613053613ee2565b5b6040519080825280602002602001820160405280156130825781602001602082028036833780820191505090505b5091506000600190505b8181116134f357600080600083815260200190815260200160002060405180610180016040529081600082015481526020016001820180546130cd9061461e565b80601f01602080910402602001604051908101604052809291908181526020018280546130f99061461e565b80156131465780601f1061311b57610100808354040283529160200191613146565b820191906000526020600020905b81548152906001019060200180831161312957829003601f168201915b5050505050815260200160028201805461315f9061461e565b80601f016020809104026020016040519081016040528092919081815260200182805461318b9061461e565b80156131d85780601f106131ad576101008083540402835291602001916131d8565b820191906000526020600020905b8154815290600101906020018083116131bb57829003601f168201915b5050505050815260200160038201548152602001600482015481526020016005820160009054906101000a900460ff161515151581526020016005820160019054906101000a900473ffffffffffffffffffffffffffffffffffffffff1673ffffffffffffffffffffffffffffffffffffffff1673ffffffffffffffffffffffffffffffffffffffff168152602001600682015481526020016007820154815260200160088201805461328a9061461e565b80601f01602080910402602001604051908101604052809291908181526020018280546132b69061461e565b80156133035780601f106132d857610100808354040283529160200191613303565b820191906000526020600020905b8154815290600101906020018083116132e657829003601f168201915b5050505050815260200160098201805461331c9061461e565b80601f01602080910402602001604051908101604052809291908181526020018280546133489061461e565b80156133955780601f1061336a57610100808354040283529160200191613395565b820191906000526020600020905b81548152906001019060200180831161337857829003601f168201915b50505050508152602001600a820180546133ae9061461e565b80601f01602080910402602001604051908101604052809291908181526020018280546133da9061461e565b80156134275780601f106133fc57610100808354040283529160200191613427565b820191906000526020600020905b81548152906001019060200180831161340a57829003601f168201915b505050505081525050905060008160000151146134df57600060018361344d919061467e565b90508160000151888281518110613467576134666146b2565b5b602002602001018181525050816020015187828151811061348b5761348a6146b2565b5b602002602001018190525081604001518682815181106134ae576134ad6146b2565b5b602002602001018190525081606001518582815181106134d1576134d06146b2565b5b602002602001018181525050505b5080806134eb906146e1565b91505061308c565b505090919293565b606060008203613542576040518060400160405280600181526020017f30000000000000000000000000000000000000000000000000000000000000008152509050613656565b600082905060005b6000821461357457808061355d906146e1565b915050600a8261356d91906152ed565b915061354a565b60008167ffffffffffffffff8111156135905761358f613ee2565b5b6040519080825280601f01601f1916602001820160405280156135c25781602001600182028036833780820191505090505b5090505b6000851461364f576001826135db919061467e565b9150600a856135ea919061531e565b60306135f6919061534f565b60f81b81838151811061360c5761360b6146b2565b5b60200101907effffffffffffffffffffffffffffffffffffffffffffffffffffffffffffff1916908160001a905350600a8561364891906152ed565b94506135c6565b8093505050505b919050565b604051806040016040528060608152602001600081525090565b600081519050919050565b600082825260208201905092915050565b6000819050602082019050919050565b6000819050919050565b6136b4816136a1565b82525050565b60006136c683836136ab565b60208301905092915050565b6000602082019050919050565b60006136ea82613675565b6136f48185613680565b93506136ff83613691565b8060005b8381101561373057815161371788826136ba565b9750613722836136d2565b925050600181019050613703565b5085935050505092915050565b600081519050919050565b600082825260208201905092915050565b6000819050602082019050919050565b60008115159050919050565b61377e81613769565b82525050565b60006137908383613775565b60208301905092915050565b6000602082019050919050565b60006137b48261373d565b6137be8185613748565b93506137c983613759565b8060005b838110156137fa5781516137e18882613784565b97506137ec8361379c565b9250506001810190506137cd565b5085935050505092915050565b600081519050919050565b600082825260208201905092915050565b6000819050602082019050919050565b600073ffffffffffffffffffffffffffffffffffffffff82169050919050565b600061385e82613833565b9050919050565b61386e81613853565b82525050565b60006138808383613865565b60208301905092915050565b6000602082019050919050565b60006138a482613807565b6138ae8185613812565b93506138b983613823565b8060005b838110156138ea5781516138d18882613874565b97506138dc8361388c565b9250506001810190506138bd565b5085935050505092915050565b6000608082019050818103600083015261391181876136df565b9050818103602083015261392581866137a9565b905081810360408301526139398185613899565b9050818103606083015261394d81846136df565b905095945050505050565b6000604051905090565b600080fd5b600080fd5b613975816136a1565b811461398057600080fd5b50565b6000813590506139928161396c565b92915050565b600080604083850312156139af576139ae613962565b5b60006139bd85828601613983565b92505060206139ce85828601613983565b9150509250929050565b6139e1816136a1565b82525050565b600081519050919050565b600082825260208201905092915050565b60005b83811015613a21578082015181840152602081019050613a06565b60008484015250505050565b6000601f19601f8301169050919050565b6000613a49826139e7565b613a5381856139f2565b9350613a63818560208601613a03565b613a6c81613a2d565b840191505092915050565b6000606082019050613a8c60008301866139d8565b8181036020830152613a9e8185613a3e565b9050613aad60408301846139d8565b949350505050565b600081519050919050565b600082825260208201905092915050565b6000819050602082019050919050565b600081519050919050565b600082825260208201905092915050565b6000819050602082019050919050565b600082825260208201905092915050565b6000613b29826139e7565b613b338185613b0d565b9350613b43818560208601613a03565b613b4c81613a2d565b840191505092915050565b60006040830160008301518482036000860152613b748282613b1e565b9150506020830151613b8960208601826136ab565b508091505092915050565b6000613ba08383613b57565b905092915050565b6000602082019050919050565b6000613bc082613ae1565b613bca8185613aec565b935083602082028501613bdc85613afd565b8060005b85811015613c185784840389528151613bf98582613b94565b9450613c0483613ba8565b925060208a01995050600181019050613be0565b50829750879550505050505092915050565b6000613c368383613bb5565b905092915050565b6000602082019050919050565b6000613c5682613ab5565b613c608185613ac0565b935083602082028501613c7285613ad1565b8060005b85811015613cae5784840389528151613c8f8582613c2a565b9450613c9a83613c3e565b925060208a01995050600181019050613c76565b50829750879550505050505092915050565b60006020820190508181036000830152613cda8184613c4b565b905092915050565b600060208284031215613cf857613cf7613962565b5b6000613d0684828501613983565b91505092915050565b613d1881613769565b82525050565b613d2781613853565b82525050565b6000610160820190508181036000830152613d48818e613a3e565b90508181036020830152613d5c818d613a3e565b9050613d6b604083018c6139d8565b613d78606083018b6139d8565b613d85608083018a613d0f565b613d9260a0830189613d1e565b613d9f60c08301886139d8565b613dac60e08301876139d8565b818103610100830152613dbf8186613a3e565b9050818103610120830152613dd48185613a3e565b9050818103610140830152613de98184613a3e565b90509c9b505050505050505050505050565b600061018082019050613e11600083018f6139d8565b8181036020830152613e23818e613a3e565b90508181036040830152613e37818d613a3e565b9050613e46606083018c6139d8565b613e53608083018b6139d8565b613e6060a083018a613d0f565b613e6d60c0830189613d1e565b613e7a60e08301886139d8565b613e886101008301876139d8565b818103610120830152613e9b8186613a3e565b9050818103610140830152613eb08185613a3e565b9050818103610160830152613ec58184613a3e565b90509d9c50505050505050505050505050565b600080fd5b600080fd5b7f4e487b7100000000000000000000000000000000000000000000000000000000600052604160045260246000fd5b613f1a82613a2d565b810181811067ffffffffffffffff82111715613f3957613f38613ee2565b5b80604052505050565b6000613f4c613958565b9050613f588282613f11565b919050565b600067ffffffffffffffff821115613f7857613f77613ee2565b5b613f8182613a2d565b9050602081019050919050565b82818337600083830152505050565b6000613fb0613fab84613f5d565b613f42565b905082815260208101848484011115613fcc57613fcb613edd565b5b613fd7848285613f8e565b509392505050565b600082601f830112613ff457613ff3613ed8565b5b8135614004848260208601613f9d565b91505092915050565b6000806040838503121561402457614023613962565b5b600061403285828601613983565b925050602083013567ffffffffffffffff81111561405357614052613967565b5b61405f85828601613fdf565b9150509250929050565b600067ffffffffffffffff82111561408457614083613ee2565b5b602082029050602081019050919050565b600080fd5b60006140ad6140a884614069565b613f42565b905080838252602082019050602084028301858111156140d0576140cf614095565b5b835b8181101561411757803567ffffffffffffffff8111156140f5576140f4613ed8565b5b8086016141028982613fdf565b855260208501945050506020810190506140d2565b5050509392505050565b600082601f83011261413657614135613ed8565b5b813561414684826020860161409a565b91505092915050565b600080600080600080600080610100898b0312156141705761416f613962565b5b600089013567ffffffffffffffff81111561418e5761418d613967565b5b61419a8b828c01613fdf565b985050602089013567ffffffffffffffff8111156141bb576141ba613967565b5b6141c78b828c01613fdf565b975050604089013567ffffffffffffffff8111156141e8576141e7613967565b5b6141f48b828c01614121565b96505060606142058b828c01613983565b95505060806142168b828c01613983565b94505060a06142278b828c01613983565b93505060c089013567ffffffffffffffff81111561424857614247613967565b5b6142548b828c01613fdf565b92505060e089013567ffffffffffffffff81111561427557614274613967565b5b6142818b828c01613fdf565b9150509295985092959890939650565b60006020820190506142a660008301846139d8565b92915050565b600082825260208201905092915050565b60006142c882613ae1565b6142d281856142ac565b9350836020820285016142e485613afd565b8060005b8581101561432057848403895281516143018582613b94565b945061430c83613ba8565b925060208a019950506001810190506142e8565b50829750879550505050505092915050565b600060408201905061434760008301856139d8565b818103602083015261435981846142bd565b90509392505050565b61436b81613853565b811461437657600080fd5b50565b60008135905061438881614362565b92915050565b600080604083850312156143a5576143a4613962565b5b60006143b385828601613983565b92505060206143c485828601614379565b9150509250929050565b60006040820190506143e36000830185613d0f565b6143f060208301846139d8565b9392505050565b600081519050919050565b600082825260208201905092915050565b6000819050602082019050919050565b600061442f8383613b1e565b905092915050565b6000602082019050919050565b600061444f826143f7565b6144598185614402565b93508360208202850161446b85614413565b8060005b858110156144a757848403895281516144888582614423565b945061449383614437565b925060208a0199505060018101905061446f565b50829750879550505050505092915050565b600060408201905081810360008301526144d38185614444565b905081810360208301526144e781846136df565b90509392505050565b60006020820190506145056000830184613d0f565b92915050565b6000608082019050818103600083015261452581876136df565b905081810360208301526145398186614444565b9050818103604083015261454d8185614444565b905081810360608301526145618184614444565b905095945050505050565b6000602082019050818103600083015261458681846142bd565b905092915050565b600060808201905081810360008301526145a881876136df565b905081810360208301526145bc8186614444565b905081810360408301526145d08185614444565b905081810360608301526145e481846136df565b905095945050505050565b7f4e487b7100000000000000000000000000000000000000000000000000000000600052602260045260246000fd5b6000600282049050600182168061463657607f821691505b602082108103614649576146486145ef565b5b50919050565b7f4e487b7100000000000000000000000000000000000000000000000000000000600052601160045260246000fd5b6000614689826136a1565b9150614694836136a1565b92508282039050818111156146ac576146ab61464f565b5b92915050565b7f4e487b7100000000000000000000000000000000000000000000000000000000600052603260045260246000fd5b60006146ec826136a1565b91507fffffffffffffffffffffffffffffffffffffffffffffffffffffffffffffffff820361471e5761471d61464f565b5b600182019050919050565b7f566f746520646f6573206e6f7420657869737400000000000000000000000000600082015250565b600061475f6013836139f2565b915061476a82614729565b602082019050919050565b6000602082019050818103600083015261478e81614752565b9050919050565b7f566f7465206973206e6f74206163746976650000000000000000000000000000600082015250565b60006147cb6012836139f2565b91506147d682614795565b602082019050919050565b600060208201905081810360008301526147fa816147be565b9050919050565b7f566f746520686173206e6f742073746172746564000000000000000000000000600082015250565b60006148376014836139f2565b915061484282614801565b602082019050919050565b600060208201905081810360008301526148668161482a565b9050919050565b7f566f74652068617320656e646564000000000000000000000000000000000000600082015250565b60006148a3600e836139f2565b91506148ae8261486d565b602082019050919050565b600060208201905081810360008301526148d281614896565b9050919050565b7f416c726561647920766f74656400000000000000000000000000000000000000600082015250565b600061490f600d836139f2565b915061491a826148d9565b602082019050919050565b6000602082019050818103600083015261493e81614902565b9050919050565b7f496e76616c6964206f7074696f6e000000000000000000000000000000000000600082015250565b600061497b600e836139f2565b915061498682614945565b602082019050919050565b600060208201905081810360008301526149aa8161496e565b9050919050565b7f4d6178696d756d207061727469636970616e7473207265616368656400000000600082015250565b60006149e7601c836139f2565b91506149f2826149b1565b602082019050919050565b60006020820190508181036000830152614a16816149da565b9050919050565b7f4f6e6c792063726561746f72206f722061646d696e2063616e2075706461746560008201527f2073746174757300000000000000000000000000000000000000000000000000602082015250565b6000614a796027836139f2565b9150614a8482614a1d565b604082019050919050565b60006020820190508181036000830152614aa881614a6c565b9050919050565b60008190508160005260206000209050919050565b60006020601f8301049050919050565b600082821b905092915050565b600060088302614b117fffffffffffffffffffffffffffffffffffffffffffffffffffffffffffffffff82614ad4565b614b1b8683614ad4565b95508019841693508086168417925050509392505050565b6000819050919050565b6000614b58614b53614b4e846136a1565b614b33565b6136a1565b9050919050565b6000819050919050565b614b7283614b3d565b614b86614b7e82614b5f565b848454614ae1565b825550505050565b600090565b614b9b614b8e565b614ba6818484614b69565b505050565b5b81811015614bca57614bbf600082614b93565b600181019050614bac565b5050565b601f821115614c0f57614be081614aaf565b614be984614ac4565b81016020851015614bf8578190505b614c0c614c0485614ac4565b830182614bab565b50505b505050565b600082821c905092915050565b6000614c3260001984600802614c14565b1980831691505092915050565b6000614c4b8383614c21565b9150826002028217905092915050565b614c64826139e7565b67ffffffffffffffff811115614c7d57614c7c613ee2565b5b614c87825461461e565b614c92828285614bce565b600060209050601f831160018114614cc55760008415614cb3578287015190505b614cbd8582614c3f565b865550614d25565b601f198416614cd386614aaf565b60005b82811015614cfb57848901518255600182019150602085019450602081019050614cd6565b86831015614d185784890151614d14601f891682614c21565b8355505b6001600288020188555050505b505050505050565b60006020820190508181036000830152614d478184613a3e565b905092915050565b7f4f6e6c792063726561746f722063616e20706572666f726d207468697320616360008201527f74696f6e00000000000000000000000000000000000000000000000000000000602082015250565b6000614dab6024836139f2565b9150614db682614d4f565b604082019050919050565b60006020820190508181036000830152614dda81614d9e565b9050919050565b7f566f746520616c726561647920656e6465640000000000000000000000000000600082015250565b6000614e176012836139f2565b9150614e2282614de1565b602082019050919050565b60006020820190508181036000830152614e4681614e0a565b9050919050565b7f5469746c652063616e6e6f7420626520656d7074790000000000000000000000600082015250565b6000614e836015836139f2565b9150614e8e82614e4d565b602082019050919050565b60006020820190508181036000830152614eb281614e76565b9050919050565b7f4465736372697074696f6e2063616e6e6f7420626520656d7074790000000000600082015250565b6000614eef601b836139f2565b9150614efa82614eb9565b602082019050919050565b60006020820190508181036000830152614f1e81614ee2565b9050919050565b7f526f6f6d206e616d652063616e6e6f7420626520656d70747900000000000000600082015250565b6000614f5b6019836139f2565b9150614f6682614f25565b602082019050919050565b60006020820190508181036000830152614f8a81614f4e565b9050919050565b7f41636365737320636f64652063616e6e6f7420626520656d7074790000000000600082015250565b6000614fc7601b836139f2565b9150614fd282614f91565b602082019050919050565b60006020820190508181036000830152614ff681614fba565b9050919050565b7f4d7573742068617665206174206c656173742032206f7074696f6e7300000000600082015250565b6000615033601c836139f2565b915061503e82614ffd565b602082019050919050565b6000602082019050818103600083015261506281615026565b9050919050565b7f4d6178207061727469636970616e7473206d757374206265206772656174657260008201527f207468616e203000000000000000000000000000000000000000000000000000602082015250565b60006150c56027836139f2565b91506150d082615069565b604082019050919050565b600060208201905081810360008301526150f4816150b8565b9050919050565b7f4d6178207061727469636970616e74732063616e6e6f7420657863656564203160008201527f3030300000000000000000000000000000000000000000000000000000000000602082015250565b60006151576023836139f2565b9150615162826150fb565b604082019050919050565b600060208201905081810360008301526151868161514a565b9050919050565b600081905092915050565b7f4f7074696f6e206e616d6520617420696e646578200000000000000000000000600082015250565b60006151ce60158361518d565b91506151d982615198565b601582019050919050565b60006151ef826139e7565b6151f9818561518d565b9350615209818560208601613a03565b80840191505092915050565b7f2063616e6e6f7420626520656d70747900000000000000000000000000000000600082015250565b600061524b60108361518d565b915061525682615215565b601082019050919050565b600061526c826151c1565b915061527882846151e4565b91506152838261523e565b915081905092915050565b600060408201905081810360008301526152a88185613a3e565b90506152b76020830184613d1e565b9392505050565b7f4e487b7100000000000000000000000000000000000000000000000000000000600052601260045260246000fd5b60006152f8826136a1565b9150615303836136a1565b925082615313576153126152be565b5b828204905092915050565b6000615329826136a1565b9150615334836136a1565b925082615344576153436152be565b5b828206905092915050565b600061535a826136a1565b9150615365836136a1565b925082820190508082111561537d5761537c61464f565b5b9291505056fea26469706673582212204d4030f1d56d9c65c5429cb3507143e3e1f00da9f06d8e652a6900f6a2e419ce64736f6c63430008180033",
  "linkReferences": {},
  "deployedLinkReferences": {}
}