{
  "_format": "hh-sol-artifact-1",
  "contractName": "VotingSystem",
  "sourceName": "contracts/vote.sol",
  "abi": [
    {
      "anonymous": false,
      "inputs": [
        {
          "indexed": true,
          "internalType": "uint256",
          "name": "voteId",
          "type": "uint256"
        },
        {
          "indexed": true,
          "internalType": "address",
          "name": "voter",
          "type": "address"
        },
        {
          "indexed": false,
          "internalType": "uint256",
          "name": "optionId",
          "type": "uint256"
        }
      ],
      "name": "VoteCast",
      "type": "event"
    },
    {
      "anonymous": false,
      "inputs": [
        {
          "indexed": true,
          "internalType": "uint256",
          "name": "voteId",
          "type": "uint256"
        },
        {
          "indexed": false,
          "internalType": "string",
          "name": "title",
          "type": "string"
        },
        {
          "indexed": false,
          "internalType": "address",
          "name": "creator",
          "type": "address"
        }
      ],
      "name": "VoteCreated",
      "type": "event"
    },
    {
      "anonymous": false,
      "inputs": [
        {
          "indexed": true,
          "internalType": "uint256",
          "name": "voteId",
          "type": "uint256"
        }
      ],
      "name": "VoteEnded",
      "type": "event"
    },
    {
      "inputs": [
        {
          "internalType": "uint256",
          "name": "_voteId",
          "type": "uint256"
        },
        {
          "internalType": "uint256",
          "name": "_optionId",
          "type": "uint256"
        }
      ],
      "name": "castVote",
      "outputs": [],
      "stateMutability": "nonpayable",
      "type": "function"
    },
    {
      "inputs": [
        {
          "internalType": "string",
          "name": "_title",
          "type": "string"
        },
        {
          "internalType": "string",
          "name": "_description",
          "type": "string"
        },
        {
          "internalType": "string[]",
          "name": "_optionNames",
          "type": "string[]"
        },
        {
          "internalType": "uint256",
          "name": "_startTime",
          "type": "uint256"
        },
        {
          "internalType": "uint256",
          "name": "_endTime",
          "type": "uint256"
        }
      ],
      "name": "createVote",
      "outputs": [
        {
          "internalType": "uint256",
          "name": "",
          "type": "uint256"
        }
      ],
      "stateMutability": "nonpayable",
      "type": "function"
    },
    {
      "inputs": [
        {
          "internalType": "uint256",
          "name": "_voteId",
          "type": "uint256"
        }
      ],
      "name": "endVote",
      "outputs": [],
      "stateMutability": "nonpayable",
      "type": "function"
    },
    {
      "inputs": [
        {
          "internalType": "uint256",
          "name": "_voteId",
          "type": "uint256"
        }
      ],
      "name": "getVoteDetails",
      "outputs": [
        {
          "internalType": "string",
          "name": "title",
          "type": "string"
        },
        {
          "internalType": "string",
          "name": "description",
          "type": "string"
        },
        {
          "internalType": "uint256",
          "name": "startTime",
          "type": "uint256"
        },
        {
          "internalType": "uint256",
          "name": "endTime",
          "type": "uint256"
        },
        {
          "internalType": "bool",
          "name": "isActive",
          "type": "bool"
        },
        {
          "internalType": "address",
          "name": "creator",
          "type": "address"
        }
      ],
      "stateMutability": "view",
      "type": "function"
    },
    {
      "inputs": [
        {
          "internalType": "uint256",
          "name": "_voteId",
          "type": "uint256"
        }
      ],
      "name": "getVoteResults",
      "outputs": [
        {
          "internalType": "string[]",
          "name": "names",
          "type": "string[]"
        },
        {
          "internalType": "uint256[]",
          "name": "counts",
          "type": "uint256[]"
        }
      ],
      "stateMutability": "view",
      "type": "function"
    },
    {
      "inputs": [
        {
          "internalType": "uint256",
          "name": "_voteId",
          "type": "uint256"
        },
        {
          "internalType": "address",
          "name": "_voter",
          "type": "address"
        }
      ],
      "name": "hasUserVoted",
      "outputs": [
        {
          "internalType": "bool",
          "name": "",
          "type": "bool"
        }
      ],
      "stateMutability": "view",
      "type": "function"
    },
    {
      "inputs": [
        {
          "internalType": "uint256",
          "name": "",
          "type": "uint256"
        }
      ],
      "name": "optionCounts",
      "outputs": [
        {
          "internalType": "uint256",
          "name": "",
          "type": "uint256"
        }
      ],
      "stateMutability": "view",
      "type": "function"
    },
    {
      "inputs": [
        {
          "internalType": "uint256",
          "name": "",
          "type": "uint256"
        },
        {
          "internalType": "uint256",
          "name": "",
          "type": "uint256"
        }
      ],
      "name": "voteOptions",
      "outputs": [
        {
          "internalType": "uint256",
          "name": "id",
          "type": "uint256"
        },
        {
          "internalType": "string",
          "name": "name",
          "type": "string"
        },
        {
          "internalType": "uint256",
          "name": "voteCount",
          "type": "uint256"
        }
      ],
      "stateMutability": "view",
      "type": "function"
    },
    {
      "inputs": [
        {
          "internalType": "uint256",
          "name": "",
          "type": "uint256"
        },
        {
          "internalType": "address",
          "name": "",
          "type": "address"
        }
      ],
      "name": "voters",
      "outputs": [
        {
          "internalType": "bool",
          "name": "hasVoted",
          "type": "bool"
        },
        {
          "internalType": "uint256",
          "name": "votedOptionId",
          "type": "uint256"
        }
      ],
      "stateMutability": "view",
      "type": "function"
    },
    {
      "inputs": [
        {
          "internalType": "uint256",
          "name": "",
          "type": "uint256"
        }
      ],
      "name": "votes",
      "outputs": [
        {
          "internalType": "uint256",
          "name": "id",
          "type": "uint256"
        },
        {
          "internalType": "string",
          "name": "title",
          "type": "string"
        },
        {
          "internalType": "string",
          "name": "description",
          "type": "string"
        },
        {
          "internalType": "uint256",
          "name": "startTime",
          "type": "uint256"
        },
        {
          "internalType": "uint256",
          "name": "endTime",
          "type": "uint256"
        },
        {
          "internalType": "bool",
          "name": "isActive",
          "type": "bool"
        },
        {
          "internalType": "address",
          "name": "creator",
          "type": "address"
        }
      ],
      "stateMutability": "view",
      "type": "function"
    }
  ],
  "bytecode": "0x608060405234801561001057600080fd5b506123d4806100206000396000f3fe608060405234801561001057600080fd5b506004361061009e5760003560e01c8063865df0ad11610066578063865df0ad1461018c5780639e319063146101a8578063a88922b3146101d9578063b0d261681461020a578063dc296ae11461023a5761009e565b806302613d37146100a35780632c0a3f89146100d35780633c4f5500146100ef57806354a1b431146101215780635df8133014610156575b600080fd5b6100bd60048036038101906100b891906114de565b61026a565b6040516100ca91906115bc565b60405180910390f35b6100ed60048036038101906100e891906115d7565b610568565b005b610109600480360381019061010491906115d7565b6108f2565b60405161011893929190611696565b60405180910390f35b61013b600480360381019061013691906116d4565b6109b1565b60405161014d9695949392919061175d565b60405180910390f35b610170600480360381019061016b91906116d4565b610c1b565b60405161018397969594939291906117cc565b60405180910390f35b6101a660048036038101906101a191906116d4565b610d9a565b005b6101c260048036038101906101bd9190611875565b610f58565b6040516101d09291906118b5565b60405180910390f35b6101f360048036038101906101ee91906116d4565b610f96565b604051610201929190611aa8565b60405180910390f35b610224600480360381019061021f91906116d4565b6111e5565b60405161023191906115bc565b60405180910390f35b610254600480360381019061024f9190611875565b6111fd565b6040516102619190611adf565b60405180910390f35b6000428310156102af576040517f08c379a00000000000000000000000000000000000000000000000000000000081526004016102a690611b46565b60405180910390fd5b8282116102f1576040517f08c379a00000000000000000000000000000000000000000000000000000000081526004016102e890611bd8565b60405180910390fd5b600284511015610336576040517f08c379a000000000000000000000000000000000000000000000000000000000815260040161032d90611c44565b60405180910390fd5b6004600081548092919061034990611c93565b9190505550600060045490506040518060e001604052808281526020018881526020018781526020018581526020018481526020016001151581526020013373ffffffffffffffffffffffffffffffffffffffff168152506000808381526020019081526020016000206000820151816000015560208201518160010190816103d29190611ee7565b5060408201518160020190816103e89190611ee7565b50606082015181600301556080820151816004015560a08201518160050160006101000a81548160ff02191690831515021790555060c08201518160050160016101000a81548173ffffffffffffffffffffffffffffffffffffffff021916908373ffffffffffffffffffffffffffffffffffffffff16021790555090505060005b855181101561050757604051806060016040528082815260200187838151811061049757610496611fb9565b5b6020026020010151815260200160008152506001600084815260200190815260200160002060008381526020019081526020016000206000820151816000015560208201518160010190816104ec9190611ee7565b5060408201518160020155905050808060010191505061046a565b5084516003600083815260200190815260200160002081905550807f0b0eb434b18eb3f0d02f9b4b01d92bf397c2fde355b0b3fad98aa2a5ffd63c2c8833604051610553929190611fe8565b60405180910390a28091505095945050505050565b818060008083815260200190815260200160002060000154146105c0576040517f08c379a00000000000000000000000000000000000000000000000000000000081526004016105b790612064565b60405180910390fd5b8260008082815260200190815260200160002060050160009054906101000a900460ff16610623576040517f08c379a000000000000000000000000000000000000000000000000000000000815260040161061a906120d0565b60405180910390fd5b6000808281526020019081526020016000206003015442101561067b576040517f08c379a00000000000000000000000000000000000000000000000000000000081526004016106729061213c565b60405180910390fd5b600080828152602001908152602001600020600401544211156106d3576040517f08c379a00000000000000000000000000000000000000000000000000000000081526004016106ca906121a8565b60405180910390fd5b836002600082815260200190815260200160002060003373ffffffffffffffffffffffffffffffffffffffff1673ffffffffffffffffffffffffffffffffffffffff16815260200190815260200160002060000160009054906101000a900460ff1615610775576040517f08c379a000000000000000000000000000000000000000000000000000000000815260040161076c90612214565b60405180910390fd5b600360008681526020019081526020016000205484106107ca576040517f08c379a00000000000000000000000000000000000000000000000000000000081526004016107c190612280565b60405180910390fd5b6040518060400160405280600115158152602001858152506002600087815260200190815260200160002060003373ffffffffffffffffffffffffffffffffffffffff1673ffffffffffffffffffffffffffffffffffffffff16815260200190815260200160002060008201518160000160006101000a81548160ff02191690831515021790555060208201518160010155905050600160008681526020019081526020016000206000858152602001908152602001600020600201600081548092919061089790611c93565b91905055503373ffffffffffffffffffffffffffffffffffffffff16857f2acce567deca3aabf56327adbb4524bd5318936eaefa69e3a5208ffda0cfec09866040516108e391906115bc565b60405180910390a35050505050565b60016020528160005260406000206020528060005260406000206000915091505080600001549080600101805461092890611d0a565b80601f016020809104026020016040519081016040528092919081815260200182805461095490611d0a565b80156109a15780601f10610976576101008083540402835291602001916109a1565b820191906000526020600020905b81548152906001019060200180831161098457829003601f168201915b5050505050908060020154905083565b60608060008060008086806000808381526020019081526020016000206000015414610a12576040517f08c379a0000000000000000000000000000000000000000000000000000000008152600401610a0990612064565b60405180910390fd5b60008060008a81526020019081526020016000206040518060e001604052908160008201548152602001600182018054610a4b90611d0a565b80601f0160208091040260200160405190810160405280929190818152602001828054610a7790611d0a565b8015610ac45780601f10610a9957610100808354040283529160200191610ac4565b820191906000526020600020905b815481529060010190602001808311610aa757829003601f168201915b50505050508152602001600282018054610add90611d0a565b80601f0160208091040260200160405190810160405280929190818152602001828054610b0990611d0a565b8015610b565780601f10610b2b57610100808354040283529160200191610b56565b820191906000526020600020905b815481529060010190602001808311610b3957829003601f168201915b5050505050815260200160038201548152602001600482015481526020016005820160009054906101000a900460ff161515151581526020016005820160019054906101000a900473ffffffffffffffffffffffffffffffffffffffff1673ffffffffffffffffffffffffffffffffffffffff1673ffffffffffffffffffffffffffffffffffffffff1681525050905080602001518160400151826060015183608001518460a001518560c00151975097509750975097509750505091939550919395565b6000602052806000526040600020600091509050806000015490806001018054610c4490611d0a565b80601f0160208091040260200160405190810160405280929190818152602001828054610c7090611d0a565b8015610cbd5780601f10610c9257610100808354040283529160200191610cbd565b820191906000526020600020905b815481529060010190602001808311610ca057829003601f168201915b505050505090806002018054610cd290611d0a565b80601f0160208091040260200160405190810160405280929190818152602001828054610cfe90611d0a565b8015610d4b5780601f10610d2057610100808354040283529160200191610d4b565b820191906000526020600020905b815481529060010190602001808311610d2e57829003601f168201915b5050505050908060030154908060040154908060050160009054906101000a900460ff16908060050160019054906101000a900473ffffffffffffffffffffffffffffffffffffffff16905087565b80806000808381526020019081526020016000206000015414610df2576040517f08c379a0000000000000000000000000000000000000000000000000000000008152600401610de990612064565b60405180910390fd5b813373ffffffffffffffffffffffffffffffffffffffff1660008083815260200190815260200160002060050160019054906101000a900473ffffffffffffffffffffffffffffffffffffffff1673ffffffffffffffffffffffffffffffffffffffff1614610e96576040517f08c379a0000000000000000000000000000000000000000000000000000000008152600401610e8d90612312565b60405180910390fd5b60008084815260200190815260200160002060050160009054906101000a900460ff16610ef8576040517f08c379a0000000000000000000000000000000000000000000000000000000008152600401610eef9061237e565b60405180910390fd5b600080600085815260200190815260200160002060050160006101000a81548160ff021916908315150217905550827fe12e0241ed3b6bb5b8b9e5b0c487661a72158d47e347fa539ef01a1fafcb3a3d60405160405180910390a2505050565b6002602052816000526040600020602052806000526040600020600091509150508060000160009054906101000a900460ff16908060010154905082565b60608082806000808381526020019081526020016000206000015414610ff1576040517f08c379a0000000000000000000000000000000000000000000000000000000008152600401610fe890612064565b60405180910390fd5b6000600360008681526020019081526020016000205490508067ffffffffffffffff81111561102357611022611297565b5b60405190808252806020026020018201604052801561105657816020015b60608152602001906001900390816110415790505b5093508067ffffffffffffffff81111561107357611072611297565b5b6040519080825280602002602001820160405280156110a15781602001602082028036833780820191505090505b50925060005b818110156111dd576000600160008881526020019081526020016000206000838152602001908152602001600020604051806060016040529081600082015481526020016001820180546110fa90611d0a565b80601f016020809104026020016040519081016040528092919081815260200182805461112690611d0a565b80156111735780601f1061114857610100808354040283529160200191611173565b820191906000526020600020905b81548152906001019060200180831161115657829003601f168201915b50505050508152602001600282015481525050905080602001518683815181106111a05761119f611fb9565b5b602002602001018190525080604001518583815181106111c3576111c2611fb9565b5b6020026020010181815250505080806001019150506110a7565b505050915091565b60036020528060005260406000206000915090505481565b60006002600084815260200190815260200160002060008373ffffffffffffffffffffffffffffffffffffffff1673ffffffffffffffffffffffffffffffffffffffff16815260200190815260200160002060000160009054906101000a900460ff16905092915050565b6000604051905090565b600080fd5b600080fd5b600080fd5b600080fd5b6000601f19601f8301169050919050565b7f4e487b7100000000000000000000000000000000000000000000000000000000600052604160045260246000fd5b6112cf82611286565b810181811067ffffffffffffffff821117156112ee576112ed611297565b5b80604052505050565b6000611301611268565b905061130d82826112c6565b919050565b600067ffffffffffffffff82111561132d5761132c611297565b5b61133682611286565b9050602081019050919050565b82818337600083830152505050565b600061136561136084611312565b6112f7565b90508281526020810184848401111561138157611380611281565b5b61138c848285611343565b509392505050565b600082601f8301126113a9576113a861127c565b5b81356113b9848260208601611352565b91505092915050565b600067ffffffffffffffff8211156113dd576113dc611297565b5b602082029050602081019050919050565b600080fd5b6000611406611401846113c2565b6112f7565b90508083825260208201905060208402830185811115611429576114286113ee565b5b835b8181101561147057803567ffffffffffffffff81111561144e5761144d61127c565b5b80860161145b8982611394565b8552602085019450505060208101905061142b565b5050509392505050565b600082601f83011261148f5761148e61127c565b5b813561149f8482602086016113f3565b91505092915050565b6000819050919050565b6114bb816114a8565b81146114c657600080fd5b50565b6000813590506114d8816114b2565b92915050565b600080600080600060a086880312156114fa576114f9611272565b5b600086013567ffffffffffffffff81111561151857611517611277565b5b61152488828901611394565b955050602086013567ffffffffffffffff81111561154557611544611277565b5b61155188828901611394565b945050604086013567ffffffffffffffff81111561157257611571611277565b5b61157e8882890161147a565b935050606061158f888289016114c9565b92505060806115a0888289016114c9565b9150509295509295909350565b6115b6816114a8565b82525050565b60006020820190506115d160008301846115ad565b92915050565b600080604083850312156115ee576115ed611272565b5b60006115fc858286016114c9565b925050602061160d858286016114c9565b9150509250929050565b600081519050919050565b600082825260208201905092915050565b60005b83811015611651578082015181840152602081019050611636565b60008484015250505050565b600061166882611617565b6116728185611622565b9350611682818560208601611633565b61168b81611286565b840191505092915050565b60006060820190506116ab60008301866115ad565b81810360208301526116bd818561165d565b90506116cc60408301846115ad565b949350505050565b6000602082840312156116ea576116e9611272565b5b60006116f8848285016114c9565b91505092915050565b60008115159050919050565b61171681611701565b82525050565b600073ffffffffffffffffffffffffffffffffffffffff82169050919050565b60006117478261171c565b9050919050565b6117578161173c565b82525050565b600060c0820190508181036000830152611777818961165d565b9050818103602083015261178b818861165d565b905061179a60408301876115ad565b6117a760608301866115ad565b6117b4608083018561170d565b6117c160a083018461174e565b979650505050505050565b600060e0820190506117e1600083018a6115ad565b81810360208301526117f3818961165d565b90508181036040830152611807818861165d565b905061181660608301876115ad565b61182360808301866115ad565b61183060a083018561170d565b61183d60c083018461174e565b98975050505050505050565b6118528161173c565b811461185d57600080fd5b50565b60008135905061186f81611849565b92915050565b6000806040838503121561188c5761188b611272565b5b600061189a858286016114c9565b92505060206118ab85828601611860565b9150509250929050565b60006040820190506118ca600083018561170d565b6118d760208301846115ad565b9392505050565b600081519050919050565b600082825260208201905092915050565b6000819050602082019050919050565b600082825260208201905092915050565b600061192682611617565b611930818561190a565b9350611940818560208601611633565b61194981611286565b840191505092915050565b6000611960838361191b565b905092915050565b6000602082019050919050565b6000611980826118de565b61198a81856118e9565b93508360208202850161199c856118fa565b8060005b858110156119d857848403895281516119b98582611954565b94506119c483611968565b925060208a019950506001810190506119a0565b50829750879550505050505092915050565b600081519050919050565b600082825260208201905092915050565b6000819050602082019050919050565b611a1f816114a8565b82525050565b6000611a318383611a16565b60208301905092915050565b6000602082019050919050565b6000611a55826119ea565b611a5f81856119f5565b9350611a6a83611a06565b8060005b83811015611a9b578151611a828882611a25565b9750611a8d83611a3d565b925050600181019050611a6e565b5085935050505092915050565b60006040820190508181036000830152611ac28185611975565b90508181036020830152611ad68184611a4a565b90509392505050565b6000602082019050611af4600083018461170d565b92915050565b7f53746172742074696d65206d75737420626520696e2074686520667574757265600082015250565b6000611b30602083611622565b9150611b3b82611afa565b602082019050919050565b60006020820190508181036000830152611b5f81611b23565b9050919050565b7f456e642074696d65206d7573742062652061667465722073746172742074696d60008201527f6500000000000000000000000000000000000000000000000000000000000000602082015250565b6000611bc2602183611622565b9150611bcd82611b66565b604082019050919050565b60006020820190508181036000830152611bf181611bb5565b9050919050565b7f4d7573742068617665206174206c656173742032206f7074696f6e7300000000600082015250565b6000611c2e601c83611622565b9150611c3982611bf8565b602082019050919050565b60006020820190508181036000830152611c5d81611c21565b9050919050565b7f4e487b7100000000000000000000000000000000000000000000000000000000600052601160045260246000fd5b6000611c9e826114a8565b91507fffffffffffffffffffffffffffffffffffffffffffffffffffffffffffffffff8203611cd057611ccf611c64565b5b600182019050919050565b7f4e487b7100000000000000000000000000000000000000000000000000000000600052602260045260246000fd5b60006002820490506001821680611d2257607f821691505b602082108103611d3557611d34611cdb565b5b50919050565b60008190508160005260206000209050919050565b60006020601f8301049050919050565b600082821b905092915050565b600060088302611d9d7fffffffffffffffffffffffffffffffffffffffffffffffffffffffffffffffff82611d60565b611da78683611d60565b95508019841693508086168417925050509392505050565b6000819050919050565b6000611de4611ddf611dda846114a8565b611dbf565b6114a8565b9050919050565b6000819050919050565b611dfe83611dc9565b611e12611e0a82611deb565b848454611d6d565b825550505050565b600090565b611e27611e1a565b611e32818484611df5565b505050565b5b81811015611e5657611e4b600082611e1f565b600181019050611e38565b5050565b601f821115611e9b57611e6c81611d3b565b611e7584611d50565b81016020851015611e84578190505b611e98611e9085611d50565b830182611e37565b50505b505050565b600082821c905092915050565b6000611ebe60001984600802611ea0565b1980831691505092915050565b6000611ed78383611ead565b9150826002028217905092915050565b611ef082611617565b67ffffffffffffffff811115611f0957611f08611297565b5b611f138254611d0a565b611f1e828285611e5a565b600060209050601f831160018114611f515760008415611f3f578287015190505b611f498582611ecb565b865550611fb1565b601f198416611f5f86611d3b565b60005b82811015611f8757848901518255600182019150602085019450602081019050611f62565b86831015611fa45784890151611fa0601f891682611ead565b8355505b6001600288020188555050505b505050505050565b7f4e487b7100000000000000000000000000000000000000000000000000000000600052603260045260246000fd5b60006040820190508181036000830152612002818561165d565b9050612011602083018461174e565b9392505050565b7f566f746520646f6573206e6f7420657869737400000000000000000000000000600082015250565b600061204e601383611622565b915061205982612018565b602082019050919050565b6000602082019050818103600083015261207d81612041565b9050919050565b7f566f7465206973206e6f74206163746976650000000000000000000000000000600082015250565b60006120ba601283611622565b91506120c582612084565b602082019050919050565b600060208201905081810360008301526120e9816120ad565b9050919050565b7f566f746520686173206e6f742073746172746564000000000000000000000000600082015250565b6000612126601483611622565b9150612131826120f0565b602082019050919050565b6000602082019050818103600083015261215581612119565b9050919050565b7f566f74652068617320656e646564000000000000000000000000000000000000600082015250565b6000612192600e83611622565b915061219d8261215c565b602082019050919050565b600060208201905081810360008301526121c181612185565b9050919050565b7f416c726561647920766f74656400000000000000000000000000000000000000600082015250565b60006121fe600d83611622565b9150612209826121c8565b602082019050919050565b6000602082019050818103600083015261222d816121f1565b9050919050565b7f496e76616c6964206f7074696f6e000000000000000000000000000000000000600082015250565b600061226a600e83611622565b915061227582612234565b602082019050919050565b600060208201905081810360008301526122998161225d565b9050919050565b7f4f6e6c792063726561746f722063616e20706572666f726d207468697320616360008201527f74696f6e00000000000000000000000000000000000000000000000000000000602082015250565b60006122fc602483611622565b9150612307826122a0565b604082019050919050565b6000602082019050818103600083015261232b816122ef565b9050919050565b7f566f746520616c726561647920656e6465640000000000000000000000000000600082015250565b6000612368601283611622565b915061237382612332565b602082019050919050565b600060208201905081810360008301526123978161235b565b905091905056fea2646970667358221220e22fa38ad950b1c38ae4540de75e36f2c88f56cbc8df146068e1c009447d0de064736f6c63430008180033",
  "linkReferences": {},
  "deployedLinkReferences": {}
}