{
  "_format": "hh-sol-artifact-1",
  "contractName": "VotingSystem",
  "sourceName": "contracts/vote.sol",
  "abi": [
    {
      "anonymous": false,
      "inputs": [
        {
          "indexed": true,
          "internalType": "uint256",
          "name": "voteId",
          "type": "uint256"
        },
        {
          "indexed": true,
          "internalType": "address",
          "name": "voter",
          "type": "address"
        },
        {
          "indexed": false,
          "internalType": "uint256",
          "name": "optionId",
          "type": "uint256"
        }
      ],
      "name": "VoteCast",
      "type": "event"
    },
    {
      "anonymous": false,
      "inputs": [
        {
          "indexed": true,
          "internalType": "uint256",
          "name": "voteId",
          "type": "uint256"
        },
        {
          "indexed": false,
          "internalType": "string",
          "name": "title",
          "type": "string"
        },
        {
          "indexed": false,
          "internalType": "address",
          "name": "creator",
          "type": "address"
        }
      ],
      "name": "VoteCreated",
      "type": "event"
    },
    {
      "anonymous": false,
      "inputs": [
        {
          "indexed": true,
          "internalType": "uint256",
          "name": "voteId",
          "type": "uint256"
        }
      ],
      "name": "VoteEnded",
      "type": "event"
    },
    {
      "inputs": [
        {
          "internalType": "uint256",
          "name": "_voteId",
          "type": "uint256"
        },
        {
          "internalType": "uint256",
          "name": "_optionId",
          "type": "uint256"
        }
      ],
      "name": "castVote",
      "outputs": [],
      "stateMutability": "nonpayable",
      "type": "function"
    },
    {
      "inputs": [
        {
          "internalType": "string",
          "name": "_title",
          "type": "string"
        },
        {
          "internalType": "string",
          "name": "_description",
          "type": "string"
        },
        {
          "internalType": "string[]",
          "name": "_optionNames",
          "type": "string[]"
        },
        {
          "internalType": "uint256",
          "name": "_startTime",
          "type": "uint256"
        },
        {
          "internalType": "uint256",
          "name": "_endTime",
          "type": "uint256"
        },
        {
          "internalType": "uint256",
          "name": "_maxParticipants",
          "type": "uint256"
        },
        {
          "internalType": "string",
          "name": "_roomName",
          "type": "string"
        },
        {
          "internalType": "string",
          "name": "_accessCode",
          "type": "string"
        }
      ],
      "name": "createVote",
      "outputs": [
        {
          "internalType": "uint256",
          "name": "",
          "type": "uint256"
        }
      ],
      "stateMutability": "nonpayable",
      "type": "function"
    },
    {
      "inputs": [
        {
          "internalType": "uint256",
          "name": "_voteId",
          "type": "uint256"
        }
      ],
      "name": "endVote",
      "outputs": [],
      "stateMutability": "nonpayable",
      "type": "function"
    },
    {
      "inputs": [],
      "name": "getAllVoteOptions",
      "outputs": [
        {
          "components": [
            {
              "internalType": "string",
              "name": "name",
              "type": "string"
            },
            {
              "internalType": "uint256",
              "name": "voteCount",
              "type": "uint256"
            }
          ],
          "internalType": "struct VotingSystem.VoteOption[][]",
          "name": "",
          "type": "tuple[][]"
        }
      ],
      "stateMutability": "view",
      "type": "function"
    },
    {
      "inputs": [],
      "name": "getAllVotesPart1",
      "outputs": [
        {
          "internalType": "uint256[]",
          "name": "voteIds",
          "type": "uint256[]"
        },
        {
          "internalType": "string[]",
          "name": "titles",
          "type": "string[]"
        },
        {
          "internalType": "string[]",
          "name": "descriptions",
          "type": "string[]"
        },
        {
          "internalType": "uint256[]",
          "name": "startTimes",
          "type": "uint256[]"
        }
      ],
      "stateMutability": "view",
      "type": "function"
    },
    {
      "inputs": [],
      "name": "getAllVotesPart2",
      "outputs": [
        {
          "internalType": "uint256[]",
          "name": "endTimes",
          "type": "uint256[]"
        },
        {
          "internalType": "bool[]",
          "name": "isActives",
          "type": "bool[]"
        },
        {
          "internalType": "address[]",
          "name": "creators",
          "type": "address[]"
        },
        {
          "internalType": "uint256[]",
          "name": "maxParticipants",
          "type": "uint256[]"
        }
      ],
      "stateMutability": "view",
      "type": "function"
    },
    {
      "inputs": [],
      "name": "getAllVotesPart3",
      "outputs": [
        {
          "internalType": "uint256[]",
          "name": "currentParticipants",
          "type": "uint256[]"
        },
        {
          "internalType": "string[]",
          "name": "roomNames",
          "type": "string[]"
        },
        {
          "internalType": "string[]",
          "name": "accessCodes",
          "type": "string[]"
        },
        {
          "internalType": "string[]",
          "name": "statuses",
          "type": "string[]"
        }
      ],
      "stateMutability": "view",
      "type": "function"
    },
    {
      "inputs": [],
      "name": "getTotalVotes",
      "outputs": [
        {
          "internalType": "uint256",
          "name": "totalVotes",
          "type": "uint256"
        },
        {
          "components": [
            {
              "internalType": "string",
              "name": "name",
              "type": "string"
            },
            {
              "internalType": "uint256",
              "name": "voteCount",
              "type": "uint256"
            }
          ],
          "internalType": "struct VotingSystem.VoteOption[]",
          "name": "options",
          "type": "tuple[]"
        }
      ],
      "stateMutability": "view",
      "type": "function"
    },
    {
      "inputs": [
        {
          "internalType": "uint256",
          "name": "_voteId",
          "type": "uint256"
        }
      ],
      "name": "getVoteDetails",
      "outputs": [
        {
          "internalType": "string",
          "name": "title",
          "type": "string"
        },
        {
          "internalType": "string",
          "name": "description",
          "type": "string"
        },
        {
          "internalType": "uint256",
          "name": "startTime",
          "type": "uint256"
        },
        {
          "internalType": "uint256",
          "name": "endTime",
          "type": "uint256"
        },
        {
          "internalType": "bool",
          "name": "isActive",
          "type": "bool"
        },
        {
          "internalType": "address",
          "name": "creator",
          "type": "address"
        },
        {
          "internalType": "uint256",
          "name": "maxParticipants",
          "type": "uint256"
        },
        {
          "internalType": "uint256",
          "name": "currentParticipants",
          "type": "uint256"
        },
        {
          "internalType": "string",
          "name": "roomName",
          "type": "string"
        },
        {
          "internalType": "string",
          "name": "accessCode",
          "type": "string"
        },
        {
          "internalType": "string",
          "name": "status",
          "type": "string"
        }
      ],
      "stateMutability": "view",
      "type": "function"
    },
    {
      "inputs": [
        {
          "internalType": "uint256",
          "name": "voteId",
          "type": "uint256"
        }
      ],
      "name": "getVoteOptions",
      "outputs": [
        {
          "components": [
            {
              "internalType": "string",
              "name": "name",
              "type": "string"
            },
            {
              "internalType": "uint256",
              "name": "voteCount",
              "type": "uint256"
            }
          ],
          "internalType": "struct VotingSystem.VoteOption[]",
          "name": "",
          "type": "tuple[]"
        }
      ],
      "stateMutability": "view",
      "type": "function"
    },
    {
      "inputs": [
        {
          "internalType": "uint256",
          "name": "_voteId",
          "type": "uint256"
        }
      ],
      "name": "getVoteResults",
      "outputs": [
        {
          "internalType": "string[]",
          "name": "names",
          "type": "string[]"
        },
        {
          "internalType": "uint256[]",
          "name": "counts",
          "type": "uint256[]"
        }
      ],
      "stateMutability": "view",
      "type": "function"
    },
    {
      "inputs": [
        {
          "internalType": "uint256",
          "name": "_voteId",
          "type": "uint256"
        },
        {
          "internalType": "address",
          "name": "_voter",
          "type": "address"
        }
      ],
      "name": "hasUserVoted",
      "outputs": [
        {
          "internalType": "bool",
          "name": "",
          "type": "bool"
        }
      ],
      "stateMutability": "view",
      "type": "function"
    },
    {
      "inputs": [
        {
          "internalType": "uint256",
          "name": "",
          "type": "uint256"
        }
      ],
      "name": "optionCounts",
      "outputs": [
        {
          "internalType": "uint256",
          "name": "",
          "type": "uint256"
        }
      ],
      "stateMutability": "view",
      "type": "function"
    },
    {
      "inputs": [
        {
          "internalType": "uint256",
          "name": "",
          "type": "uint256"
        },
        {
          "internalType": "uint256",
          "name": "",
          "type": "uint256"
        }
      ],
      "name": "voteOptions",
      "outputs": [
        {
          "internalType": "uint256",
          "name": "id",
          "type": "uint256"
        },
        {
          "internalType": "string",
          "name": "name",
          "type": "string"
        },
        {
          "internalType": "uint256",
          "name": "voteCount",
          "type": "uint256"
        }
      ],
      "stateMutability": "view",
      "type": "function"
    },
    {
      "inputs": [
        {
          "internalType": "uint256",
          "name": "",
          "type": "uint256"
        },
        {
          "internalType": "address",
          "name": "",
          "type": "address"
        }
      ],
      "name": "voters",
      "outputs": [
        {
          "internalType": "bool",
          "name": "hasVoted",
          "type": "bool"
        },
        {
          "internalType": "uint256",
          "name": "votedOptionId",
          "type": "uint256"
        }
      ],
      "stateMutability": "view",
      "type": "function"
    },
    {
      "inputs": [
        {
          "internalType": "uint256",
          "name": "",
          "type": "uint256"
        }
      ],
      "name": "votes",
      "outputs": [
        {
          "internalType": "uint256",
          "name": "id",
          "type": "uint256"
        },
        {
          "internalType": "string",
          "name": "title",
          "type": "string"
        },
        {
          "internalType": "string",
          "name": "description",
          "type": "string"
        },
        {
          "internalType": "uint256",
          "name": "startTime",
          "type": "uint256"
        },
        {
          "internalType": "uint256",
          "name": "endTime",
          "type": "uint256"
        },
        {
          "internalType": "bool",
          "name": "isActive",
          "type": "bool"
        },
        {
          "internalType": "address",
          "name": "creator",
          "type": "address"
        },
        {
          "internalType": "uint256",
          "name": "maxParticipants",
          "type": "uint256"
        },
        {
          "internalType": "uint256",
          "name": "currentParticipants",
          "type": "uint256"
        },
        {
          "internalType": "string",
          "name": "roomName",
          "type": "string"
        },
        {
          "internalType": "string",
          "name": "accessCode",
          "type": "string"
        },
        {
          "internalType": "string",
          "name": "status",
          "type": "string"
        }
      ],
      "stateMutability": "view",
      "type": "function"
    }
  ],
  "bytecode": "0x608060405234801561001057600080fd5b506152b4806100206000396000f3fe608060405234801561001057600080fd5b50600436106101005760003560e01c80639a0e7d6611610097578063dc296ae111610066578063dc296ae114610304578063e71e89de14610334578063f1e6bb1c14610355578063f71d1c271461038557610100565b80639a0e7d66146102535780639e31906314610272578063a88922b3146102a3578063b0d26168146102d457610100565b806354a1b431116100d357806354a1b431146101925780635df81330146101cc578063865df0ad146102075780638c1bdbae1461022357610100565b80630d5b9854146101055780632c0a3f89146101265780633c4f55001461014257806350cf306314610174575b600080fd5b61010d6103a6565b60405161011d94939291906136f0565b60405180910390f35b610140600480360381019061013b9190613791565b61098b565b005b61015c60048036038101906101579190613791565b610dac565b60405161016b93929190613870565b60405180910390f35b61017c610e6b565b6040516101899190613ab9565b60405180910390f35b6101ac60048036038101906101a79190613adb565b6110f9565b6040516101c39b9a99989796959493929190613b26565b60405180910390f35b6101e660048036038101906101e19190613adb565b611563565b6040516101fe9c9b9a99989796959493929190613bf4565b60405180910390f35b610221600480360381019061021c9190613adb565b611898565b005b61023d60048036038101906102389190613eec565b611aae565b60405161024a919061402e565b60405180910390f35b61025b612102565b6040516102699291906140cf565b60405180910390f35b61028c6004803603810190610287919061412b565b6122c0565b60405161029a92919061416b565b60405180910390f35b6102bd60048036038101906102b89190613adb565b6122fe565b6040516102cb929190614256565b60405180910390f35b6102ee60048036038101906102e99190613adb565b61254d565b6040516102fb919061402e565b60405180910390f35b61031e6004803603810190610319919061412b565b612565565b60405161032b919061428d565b60405180910390f35b61033c6125d0565b60405161034c94939291906142a8565b60405180910390f35b61036f600480360381019061036a9190613adb565b612b91565b60405161037c9190614309565b60405180910390f35b61038d612d3b565b60405161039d949392919061432b565b60405180910390f35b606080606080600060045490508067ffffffffffffffff8111156103cd576103cc613cdb565b5b6040519080825280602002602001820160405280156103fb5781602001602082028036833780820191505090505b5094508067ffffffffffffffff81111561041857610417613cdb565b5b6040519080825280602002602001820160405280156104465781602001602082028036833780820191505090505b5093508067ffffffffffffffff81111561046357610462613cdb565b5b6040519080825280602002602001820160405280156104915781602001602082028036833780820191505090505b5092508067ffffffffffffffff8111156104ae576104ad613cdb565b5b6040519080825280602002602001820160405280156104dc5781602001602082028036833780820191505090505b5091506000600190505b8181116109835760008060008381526020019081526020016000206040518061018001604052908160008201548152602001600182018054610527906143bb565b80601f0160208091040260200160405190810160405280929190818152602001828054610553906143bb565b80156105a05780601f10610575576101008083540402835291602001916105a0565b820191906000526020600020905b81548152906001019060200180831161058357829003601f168201915b505050505081526020016002820180546105b9906143bb565b80601f01602080910402602001604051908101604052809291908181526020018280546105e5906143bb565b80156106325780601f1061060757610100808354040283529160200191610632565b820191906000526020600020905b81548152906001019060200180831161061557829003601f168201915b5050505050815260200160038201548152602001600482015481526020016005820160009054906101000a900460ff161515151581526020016005820160019054906101000a900473ffffffffffffffffffffffffffffffffffffffff1673ffffffffffffffffffffffffffffffffffffffff1673ffffffffffffffffffffffffffffffffffffffff16815260200160068201548152602001600782015481526020016008820180546106e4906143bb565b80601f0160208091040260200160405190810160405280929190818152602001828054610710906143bb565b801561075d5780601f106107325761010080835404028352916020019161075d565b820191906000526020600020905b81548152906001019060200180831161074057829003601f168201915b50505050508152602001600982018054610776906143bb565b80601f01602080910402602001604051908101604052809291908181526020018280546107a2906143bb565b80156107ef5780601f106107c4576101008083540402835291602001916107ef565b820191906000526020600020905b8154815290600101906020018083116107d257829003601f168201915b50505050508152602001600a82018054610808906143bb565b80601f0160208091040260200160405190810160405280929190818152602001828054610834906143bb565b80156108815780601f1061085657610100808354040283529160200191610881565b820191906000526020600020905b81548152906001019060200180831161086457829003601f168201915b5050505050815250509050600081600001511461096f5760006001836108a7919061441b565b905081608001518882815181106108c1576108c061444f565b5b6020026020010181815250508160a001518782815181106108e5576108e461444f565b5b6020026020010190151590811515815250508160c0015186828151811061090f5761090e61444f565b5b602002602001019073ffffffffffffffffffffffffffffffffffffffff16908173ffffffffffffffffffffffffffffffffffffffff16815250508160e001518582815181106109615761096061444f565b5b602002602001018181525050505b50808061097b9061447e565b9150506104e6565b505090919293565b818060008083815260200190815260200160002060000154146109e3576040517f08c379a00000000000000000000000000000000000000000000000000000000081526004016109da90614512565b60405180910390fd5b8260008082815260200190815260200160002060050160009054906101000a900460ff16610a46576040517f08c379a0000000000000000000000000000000000000000000000000000000008152600401610a3d9061457e565b60405180910390fd5b60008082815260200190815260200160002060030154421015610a9e576040517f08c379a0000000000000000000000000000000000000000000000000000000008152600401610a95906145ea565b60405180910390fd5b60008082815260200190815260200160002060040154421115610af6576040517f08c379a0000000000000000000000000000000000000000000000000000000008152600401610aed90614656565b60405180910390fd5b836002600082815260200190815260200160002060003373ffffffffffffffffffffffffffffffffffffffff1673ffffffffffffffffffffffffffffffffffffffff16815260200190815260200160002060000160009054906101000a900460ff1615610b98576040517f08c379a0000000000000000000000000000000000000000000000000000000008152600401610b8f906146c2565b60405180910390fd5b60036000868152602001908152602001600020548410610bed576040517f08c379a0000000000000000000000000000000000000000000000000000000008152600401610be49061472e565b60405180910390fd5b600080868152602001908152602001600020600601546000808781526020019081526020016000206007015410610c59576040517f08c379a0000000000000000000000000000000000000000000000000000000008152600401610c509061479a565b60405180910390fd5b6040518060400160405280600115158152602001858152506002600087815260200190815260200160002060003373ffffffffffffffffffffffffffffffffffffffff1673ffffffffffffffffffffffffffffffffffffffff16815260200190815260200160002060008201518160000160006101000a81548160ff021916908315150217905550602082015181600101559050506001600086815260200190815260200160002060008581526020019081526020016000206002016000815480929190610d269061447e565b91905055506000808681526020019081526020016000206007016000815480929190610d519061447e565b91905055503373ffffffffffffffffffffffffffffffffffffffff16857f2acce567deca3aabf56327adbb4524bd5318936eaefa69e3a5208ffda0cfec0986604051610d9d919061402e565b60405180910390a35050505050565b600160205281600052604060002060205280600052604060002060009150915050806000015490806001018054610de2906143bb565b80601f0160208091040260200160405190810160405280929190818152602001828054610e0e906143bb565b8015610e5b5780601f10610e3057610100808354040283529160200191610e5b565b820191906000526020600020905b815481529060010190602001808311610e3e57829003601f168201915b5050505050908060020154905083565b60606000600454905060008167ffffffffffffffff811115610e9057610e8f613cdb565b5b604051908082528060200260200182016040528015610ec357816020015b6060815260200190600190039081610eae5790505b5090506000600190505b8281116110f057600080600083815260200190815260200160002060000154146110dd576000600360008381526020019081526020016000205490508067ffffffffffffffff811115610f2357610f22613cdb565b5b604051908082528060200260200182016040528015610f5c57816020015b610f49613454565b815260200190600190039081610f415790505b5083600184610f6b919061441b565b81518110610f7c57610f7b61444f565b5b602002602001018190525060005b818110156110da57600060016000858152602001908152602001600020600083815260200190815260200160002060405180606001604052908160008201548152602001600182018054610fdd906143bb565b80601f0160208091040260200160405190810160405280929190818152602001828054611009906143bb565b80156110565780601f1061102b57610100808354040283529160200191611056565b820191906000526020600020905b81548152906001019060200180831161103957829003601f168201915b505050505081526020016002820154815250509050604051806040016040528082602001518152602001826040015181525085600186611096919061441b565b815181106110a7576110a661444f565b5b602002602001015183815181106110c1576110c061444f565b5b6020026020010181905250508080600101915050610f8a565b50505b80806110e89061447e565b915050610ecd565b50809250505090565b60608060008060008060008060608060608b806000808381526020019081526020016000206000015414611162576040517f08c379a000000000000000000000000000000000000000000000000000000000815260040161115990614512565b60405180910390fd5b60008060008f8152602001908152602001600020604051806101800160405290816000820154815260200160018201805461119c906143bb565b80601f01602080910402602001604051908101604052809291908181526020018280546111c8906143bb565b80156112155780601f106111ea57610100808354040283529160200191611215565b820191906000526020600020905b8154815290600101906020018083116111f857829003601f168201915b5050505050815260200160028201805461122e906143bb565b80601f016020809104026020016040519081016040528092919081815260200182805461125a906143bb565b80156112a75780601f1061127c576101008083540402835291602001916112a7565b820191906000526020600020905b81548152906001019060200180831161128a57829003601f168201915b5050505050815260200160038201548152602001600482015481526020016005820160009054906101000a900460ff161515151581526020016005820160019054906101000a900473ffffffffffffffffffffffffffffffffffffffff1673ffffffffffffffffffffffffffffffffffffffff1673ffffffffffffffffffffffffffffffffffffffff1681526020016006820154815260200160078201548152602001600882018054611359906143bb565b80601f0160208091040260200160405190810160405280929190818152602001828054611385906143bb565b80156113d25780601f106113a7576101008083540402835291602001916113d2565b820191906000526020600020905b8154815290600101906020018083116113b557829003601f168201915b505050505081526020016009820180546113eb906143bb565b80601f0160208091040260200160405190810160405280929190818152602001828054611417906143bb565b80156114645780601f1061143957610100808354040283529160200191611464565b820191906000526020600020905b81548152906001019060200180831161144757829003601f168201915b50505050508152602001600a8201805461147d906143bb565b80601f01602080910402602001604051908101604052809291908181526020018280546114a9906143bb565b80156114f65780601f106114cb576101008083540402835291602001916114f6565b820191906000526020600020905b8154815290600101906020018083116114d957829003601f168201915b505050505081525050905080602001518160400151826060015183608001518460a001518560c001518660e001518761010001518861012001518961014001518a61016001519c509c509c509c509c509c509c509c509c509c509c50505091939597999b90929496989a50565b600060205280600052604060002060009150905080600001549080600101805461158c906143bb565b80601f01602080910402602001604051908101604052809291908181526020018280546115b8906143bb565b80156116055780601f106115da57610100808354040283529160200191611605565b820191906000526020600020905b8154815290600101906020018083116115e857829003601f168201915b50505050509080600201805461161a906143bb565b80601f0160208091040260200160405190810160405280929190818152602001828054611646906143bb565b80156116935780601f1061166857610100808354040283529160200191611693565b820191906000526020600020905b81548152906001019060200180831161167657829003601f168201915b5050505050908060030154908060040154908060050160009054906101000a900460ff16908060050160019054906101000a900473ffffffffffffffffffffffffffffffffffffffff16908060060154908060070154908060080180546116f9906143bb565b80601f0160208091040260200160405190810160405280929190818152602001828054611725906143bb565b80156117725780601f1061174757610100808354040283529160200191611772565b820191906000526020600020905b81548152906001019060200180831161175557829003601f168201915b505050505090806009018054611787906143bb565b80601f01602080910402602001604051908101604052809291908181526020018280546117b3906143bb565b80156118005780601f106117d557610100808354040283529160200191611800565b820191906000526020600020905b8154815290600101906020018083116117e357829003601f168201915b50505050509080600a018054611815906143bb565b80601f0160208091040260200160405190810160405280929190818152602001828054611841906143bb565b801561188e5780601f106118635761010080835404028352916020019161188e565b820191906000526020600020905b81548152906001019060200180831161187157829003601f168201915b505050505090508c565b808060008083815260200190815260200160002060000154146118f0576040517f08c379a00000000000000000000000000000000000000000000000000000000081526004016118e790614512565b60405180910390fd5b813373ffffffffffffffffffffffffffffffffffffffff1660008083815260200190815260200160002060050160019054906101000a900473ffffffffffffffffffffffffffffffffffffffff1673ffffffffffffffffffffffffffffffffffffffff1614611994576040517f08c379a000000000000000000000000000000000000000000000000000000000815260040161198b9061482c565b60405180910390fd5b60008084815260200190815260200160002060050160009054906101000a900460ff166119f6576040517f08c379a00000000000000000000000000000000000000000000000000000000081526004016119ed90614898565b60405180910390fd5b600080600085815260200190815260200160002060050160006101000a81548160ff0219169083151502179055506040518060400160405280600581526020017f656e646564000000000000000000000000000000000000000000000000000000815250600080858152602001908152602001600020600a019081611a7b9190614a64565b50827fe12e0241ed3b6bb5b8b9e5b0c487661a72158d47e347fa539ef01a1fafcb3a3d60405160405180910390a2505050565b600080895111611af3576040517f08c379a0000000000000000000000000000000000000000000000000000000008152600401611aea90614b82565b60405180910390fd5b6000885111611b37576040517f08c379a0000000000000000000000000000000000000000000000000000000008152600401611b2e90614bee565b60405180910390fd5b6000835111611b7b576040517f08c379a0000000000000000000000000000000000000000000000000000000008152600401611b7290614c5a565b60405180910390fd5b6000825111611bbf576040517f08c379a0000000000000000000000000000000000000000000000000000000008152600401611bb690614cc6565b60405180910390fd5b42861015611bcc876132f4565b611bd5426132f4565b604051602001611be6929190614de0565b60405160208183030381529060405290611c36576040517f08c379a0000000000000000000000000000000000000000000000000000000008152600401611c2d9190614e1a565b60405180910390fd5b50858511611c43876132f4565b611c4c876132f4565b604051602001611c5d929190614efa565b60405160208183030381529060405290611cad576040517f08c379a0000000000000000000000000000000000000000000000000000000008152600401611ca49190614e1a565b60405180910390fd5b50600287511015611cf3576040517f08c379a0000000000000000000000000000000000000000000000000000000008152600401611cea90614f80565b60405180910390fd5b60008411611d36576040517f08c379a0000000000000000000000000000000000000000000000000000000008152600401611d2d90615012565b60405180910390fd5b6103e8841115611d7b576040517f08c379a0000000000000000000000000000000000000000000000000000000008152600401611d72906150a4565b60405180910390fd5b60005b8751811015611e1d576000888281518110611d9c57611d9b61444f565b5b60200260200101515111611daf826132f4565b604051602001611dbf919061515c565b60405160208183030381529060405290611e0f576040517f08c379a0000000000000000000000000000000000000000000000000000000008152600401611e069190614e1a565b60405180910390fd5b508080600101915050611d7e565b5060046000815480929190611e319061447e565b9190505550600060045490506040518061018001604052808281526020018b81526020018a81526020018881526020018781526020016001151581526020013373ffffffffffffffffffffffffffffffffffffffff168152602001868152602001600081526020018581526020018481526020016040518060400160405280600381526020017f6e65770000000000000000000000000000000000000000000000000000000000815250815250600080838152602001908152602001600020600082015181600001556020820151816001019081611f0f9190614a64565b506040820151816002019081611f259190614a64565b50606082015181600301556080820151816004015560a08201518160050160006101000a81548160ff02191690831515021790555060c08201518160050160016101000a81548173ffffffffffffffffffffffffffffffffffffffff021916908373ffffffffffffffffffffffffffffffffffffffff16021790555060e082015181600601556101008201518160070155610120820151816008019081611fcc9190614a64565b50610140820151816009019081611fe39190614a64565b5061016082015181600a019081611ffa9190614a64565b5090505060005b885181101561209e5760405180606001604052808281526020018a838151811061202e5761202d61444f565b5b6020026020010151815260200160008152506001600084815260200190815260200160002060008381526020019081526020016000206000820151816000015560208201518160010190816120839190614a64565b50604082015181600201559050508080600101915050612001565b5087516003600083815260200190815260200160002081905550807f0b0eb434b18eb3f0d02f9b4b01d92bf397c2fde355b0b3fad98aa2a5ffd63c2c8b336040516120ea929190615189565b60405180910390a28091505098975050505050505050565b6000606060045491506000600160045461211c919061441b565b90506000600360008381526020019081526020016000205490508067ffffffffffffffff8111156121505761214f613cdb565b5b60405190808252806020026020018201604052801561218957816020015b612176613454565b81526020019060019003908161216e5790505b50925060005b818110156122b9576000600160008581526020019081526020016000206000838152602001908152602001600020604051806060016040529081600082015481526020016001820180546121e2906143bb565b80601f016020809104026020016040519081016040528092919081815260200182805461220e906143bb565b801561225b5780601f106122305761010080835404028352916020019161225b565b820191906000526020600020905b81548152906001019060200180831161223e57829003601f168201915b50505050508152602001600282015481525050905060405180604001604052808260200151815260200182604001518152508583815181106122a05761229f61444f565b5b602002602001018190525050808060010191505061218f565b5050509091565b6002602052816000526040600020602052806000526040600020600091509150508060000160009054906101000a900460ff16908060010154905082565b60608082806000808381526020019081526020016000206000015414612359576040517f08c379a000000000000000000000000000000000000000000000000000000000815260040161235090614512565b60405180910390fd5b6000600360008681526020019081526020016000205490508067ffffffffffffffff81111561238b5761238a613cdb565b5b6040519080825280602002602001820160405280156123be57816020015b60608152602001906001900390816123a95790505b5093508067ffffffffffffffff8111156123db576123da613cdb565b5b6040519080825280602002602001820160405280156124095781602001602082028036833780820191505090505b50925060005b8181101561254557600060016000888152602001908152602001600020600083815260200190815260200160002060405180606001604052908160008201548152602001600182018054612462906143bb565b80601f016020809104026020016040519081016040528092919081815260200182805461248e906143bb565b80156124db5780601f106124b0576101008083540402835291602001916124db565b820191906000526020600020905b8154815290600101906020018083116124be57829003601f168201915b50505050508152602001600282015481525050905080602001518683815181106125085761250761444f565b5b6020026020010181905250806040015185838151811061252b5761252a61444f565b5b60200260200101818152505050808060010191505061240f565b505050915091565b60036020528060005260406000206000915090505481565b60006002600084815260200190815260200160002060008373ffffffffffffffffffffffffffffffffffffffff1673ffffffffffffffffffffffffffffffffffffffff16815260200190815260200160002060000160009054906101000a900460ff16905092915050565b606080606080600060045490508067ffffffffffffffff8111156125f7576125f6613cdb565b5b6040519080825280602002602001820160405280156126255781602001602082028036833780820191505090505b5094508067ffffffffffffffff81111561264257612641613cdb565b5b60405190808252806020026020018201604052801561267557816020015b60608152602001906001900390816126605790505b5093508067ffffffffffffffff81111561269257612691613cdb565b5b6040519080825280602002602001820160405280156126c557816020015b60608152602001906001900390816126b05790505b5092508067ffffffffffffffff8111156126e2576126e1613cdb565b5b60405190808252806020026020018201604052801561271557816020015b60608152602001906001900390816127005790505b5091506000600190505b818111612b895760008060008381526020019081526020016000206040518061018001604052908160008201548152602001600182018054612760906143bb565b80601f016020809104026020016040519081016040528092919081815260200182805461278c906143bb565b80156127d95780601f106127ae576101008083540402835291602001916127d9565b820191906000526020600020905b8154815290600101906020018083116127bc57829003601f168201915b505050505081526020016002820180546127f2906143bb565b80601f016020809104026020016040519081016040528092919081815260200182805461281e906143bb565b801561286b5780601f106128405761010080835404028352916020019161286b565b820191906000526020600020905b81548152906001019060200180831161284e57829003601f168201915b5050505050815260200160038201548152602001600482015481526020016005820160009054906101000a900460ff161515151581526020016005820160019054906101000a900473ffffffffffffffffffffffffffffffffffffffff1673ffffffffffffffffffffffffffffffffffffffff1673ffffffffffffffffffffffffffffffffffffffff168152602001600682015481526020016007820154815260200160088201805461291d906143bb565b80601f0160208091040260200160405190810160405280929190818152602001828054612949906143bb565b80156129965780601f1061296b57610100808354040283529160200191612996565b820191906000526020600020905b81548152906001019060200180831161297957829003601f168201915b505050505081526020016009820180546129af906143bb565b80601f01602080910402602001604051908101604052809291908181526020018280546129db906143bb565b8015612a285780601f106129fd57610100808354040283529160200191612a28565b820191906000526020600020905b815481529060010190602001808311612a0b57829003601f168201915b50505050508152602001600a82018054612a41906143bb565b80601f0160208091040260200160405190810160405280929190818152602001828054612a6d906143bb565b8015612aba5780601f10612a8f57610100808354040283529160200191612aba565b820191906000526020600020905b815481529060010190602001808311612a9d57829003601f168201915b50505050508152505090506000816000015114612b75576000600183612ae0919061441b565b9050816101000151888281518110612afb57612afa61444f565b5b602002602001018181525050816101200151878281518110612b2057612b1f61444f565b5b6020026020010181905250816101400151868281518110612b4457612b4361444f565b5b6020026020010181905250816101600151858281518110612b6857612b6761444f565b5b6020026020010181905250505b508080612b819061447e565b91505061271f565b505090919293565b606060006003600084815260200190815260200160002054905060008167ffffffffffffffff811115612bc757612bc6613cdb565b5b604051908082528060200260200182016040528015612c0057816020015b612bed613454565b815260200190600190039081612be55790505b50905060005b82811015612d3057600060016000878152602001908152602001600020600083815260200190815260200160002060405180606001604052908160008201548152602001600182018054612c59906143bb565b80601f0160208091040260200160405190810160405280929190818152602001828054612c85906143bb565b8015612cd25780601f10612ca757610100808354040283529160200191612cd2565b820191906000526020600020905b815481529060010190602001808311612cb557829003601f168201915b5050505050815260200160028201548152505090506040518060400160405280826020015181526020018260400151815250838381518110612d1757612d1661444f565b5b6020026020010181905250508080600101915050612c06565b508092505050919050565b606080606080600060045490508067ffffffffffffffff811115612d6257612d61613cdb565b5b604051908082528060200260200182016040528015612d905781602001602082028036833780820191505090505b5094508067ffffffffffffffff811115612dad57612dac613cdb565b5b604051908082528060200260200182016040528015612de057816020015b6060815260200190600190039081612dcb5790505b5093508067ffffffffffffffff811115612dfd57612dfc613cdb565b5b604051908082528060200260200182016040528015612e3057816020015b6060815260200190600190039081612e1b5790505b5092508067ffffffffffffffff811115612e4d57612e4c613cdb565b5b604051908082528060200260200182016040528015612e7b5781602001602082028036833780820191505090505b5091506000600190505b8181116132ec5760008060008381526020019081526020016000206040518061018001604052908160008201548152602001600182018054612ec6906143bb565b80601f0160208091040260200160405190810160405280929190818152602001828054612ef2906143bb565b8015612f3f5780601f10612f1457610100808354040283529160200191612f3f565b820191906000526020600020905b815481529060010190602001808311612f2257829003601f168201915b50505050508152602001600282018054612f58906143bb565b80601f0160208091040260200160405190810160405280929190818152602001828054612f84906143bb565b8015612fd15780601f10612fa657610100808354040283529160200191612fd1565b820191906000526020600020905b815481529060010190602001808311612fb457829003601f168201915b5050505050815260200160038201548152602001600482015481526020016005820160009054906101000a900460ff161515151581526020016005820160019054906101000a900473ffffffffffffffffffffffffffffffffffffffff1673ffffffffffffffffffffffffffffffffffffffff1673ffffffffffffffffffffffffffffffffffffffff1681526020016006820154815260200160078201548152602001600882018054613083906143bb565b80601f01602080910402602001604051908101604052809291908181526020018280546130af906143bb565b80156130fc5780601f106130d1576101008083540402835291602001916130fc565b820191906000526020600020905b8154815290600101906020018083116130df57829003601f168201915b50505050508152602001600982018054613115906143bb565b80601f0160208091040260200160405190810160405280929190818152602001828054613141906143bb565b801561318e5780601f106131635761010080835404028352916020019161318e565b820191906000526020600020905b81548152906001019060200180831161317157829003601f168201915b50505050508152602001600a820180546131a7906143bb565b80601f01602080910402602001604051908101604052809291908181526020018280546131d3906143bb565b80156132205780601f106131f557610100808354040283529160200191613220565b820191906000526020600020905b81548152906001019060200180831161320357829003601f168201915b505050505081525050905060008160000151146132d8576000600183613246919061441b565b905081600001518882815181106132605761325f61444f565b5b60200260200101818152505081602001518782815181106132845761328361444f565b5b602002602001018190525081604001518682815181106132a7576132a661444f565b5b602002602001018190525081606001518582815181106132ca576132c961444f565b5b602002602001018181525050505b5080806132e49061447e565b915050612e85565b505090919293565b60606000820361333b576040518060400160405280600181526020017f3000000000000000000000000000000000000000000000000000000000000000815250905061344f565b600082905060005b6000821461336d5780806133569061447e565b915050600a8261336691906151e8565b9150613343565b60008167ffffffffffffffff81111561338957613388613cdb565b5b6040519080825280601f01601f1916602001820160405280156133bb5781602001600182028036833780820191505090505b5090505b60008514613448576001826133d4919061441b565b9150600a856133e39190615219565b60306133ef919061524a565b60f81b8183815181106134055761340461444f565b5b60200101907effffffffffffffffffffffffffffffffffffffffffffffffffffffffffffff1916908160001a905350600a8561344191906151e8565b94506133bf565b8093505050505b919050565b604051806040016040528060608152602001600081525090565b600081519050919050565b600082825260208201905092915050565b6000819050602082019050919050565b6000819050919050565b6134ad8161349a565b82525050565b60006134bf83836134a4565b60208301905092915050565b6000602082019050919050565b60006134e38261346e565b6134ed8185613479565b93506134f88361348a565b8060005b8381101561352957815161351088826134b3565b975061351b836134cb565b9250506001810190506134fc565b5085935050505092915050565b600081519050919050565b600082825260208201905092915050565b6000819050602082019050919050565b60008115159050919050565b61357781613562565b82525050565b6000613589838361356e565b60208301905092915050565b6000602082019050919050565b60006135ad82613536565b6135b78185613541565b93506135c283613552565b8060005b838110156135f35781516135da888261357d565b97506135e583613595565b9250506001810190506135c6565b5085935050505092915050565b600081519050919050565b600082825260208201905092915050565b6000819050602082019050919050565b600073ffffffffffffffffffffffffffffffffffffffff82169050919050565b60006136578261362c565b9050919050565b6136678161364c565b82525050565b6000613679838361365e565b60208301905092915050565b6000602082019050919050565b600061369d82613600565b6136a7818561360b565b93506136b28361361c565b8060005b838110156136e35781516136ca888261366d565b97506136d583613685565b9250506001810190506136b6565b5085935050505092915050565b6000608082019050818103600083015261370a81876134d8565b9050818103602083015261371e81866135a2565b905081810360408301526137328185613692565b9050818103606083015261374681846134d8565b905095945050505050565b6000604051905090565b600080fd5b600080fd5b61376e8161349a565b811461377957600080fd5b50565b60008135905061378b81613765565b92915050565b600080604083850312156137a8576137a761375b565b5b60006137b68582860161377c565b92505060206137c78582860161377c565b9150509250929050565b6137da8161349a565b82525050565b600081519050919050565b600082825260208201905092915050565b60005b8381101561381a5780820151818401526020810190506137ff565b60008484015250505050565b6000601f19601f8301169050919050565b6000613842826137e0565b61384c81856137eb565b935061385c8185602086016137fc565b61386581613826565b840191505092915050565b600060608201905061388560008301866137d1565b81810360208301526138978185613837565b90506138a660408301846137d1565b949350505050565b600081519050919050565b600082825260208201905092915050565b6000819050602082019050919050565b600081519050919050565b600082825260208201905092915050565b6000819050602082019050919050565b600082825260208201905092915050565b6000613922826137e0565b61392c8185613906565b935061393c8185602086016137fc565b61394581613826565b840191505092915050565b6000604083016000830151848203600086015261396d8282613917565b915050602083015161398260208601826134a4565b508091505092915050565b60006139998383613950565b905092915050565b6000602082019050919050565b60006139b9826138da565b6139c381856138e5565b9350836020820285016139d5856138f6565b8060005b85811015613a1157848403895281516139f2858261398d565b94506139fd836139a1565b925060208a019950506001810190506139d9565b50829750879550505050505092915050565b6000613a2f83836139ae565b905092915050565b6000602082019050919050565b6000613a4f826138ae565b613a5981856138b9565b935083602082028501613a6b856138ca565b8060005b85811015613aa75784840389528151613a888582613a23565b9450613a9383613a37565b925060208a01995050600181019050613a6f565b50829750879550505050505092915050565b60006020820190508181036000830152613ad38184613a44565b905092915050565b600060208284031215613af157613af061375b565b5b6000613aff8482850161377c565b91505092915050565b613b1181613562565b82525050565b613b208161364c565b82525050565b6000610160820190508181036000830152613b41818e613837565b90508181036020830152613b55818d613837565b9050613b64604083018c6137d1565b613b71606083018b6137d1565b613b7e608083018a613b08565b613b8b60a0830189613b17565b613b9860c08301886137d1565b613ba560e08301876137d1565b818103610100830152613bb88186613837565b9050818103610120830152613bcd8185613837565b9050818103610140830152613be28184613837565b90509c9b505050505050505050505050565b600061018082019050613c0a600083018f6137d1565b8181036020830152613c1c818e613837565b90508181036040830152613c30818d613837565b9050613c3f606083018c6137d1565b613c4c608083018b6137d1565b613c5960a083018a613b08565b613c6660c0830189613b17565b613c7360e08301886137d1565b613c816101008301876137d1565b818103610120830152613c948186613837565b9050818103610140830152613ca98185613837565b9050818103610160830152613cbe8184613837565b90509d9c50505050505050505050505050565b600080fd5b600080fd5b7f4e487b7100000000000000000000000000000000000000000000000000000000600052604160045260246000fd5b613d1382613826565b810181811067ffffffffffffffff82111715613d3257613d31613cdb565b5b80604052505050565b6000613d45613751565b9050613d518282613d0a565b919050565b600067ffffffffffffffff821115613d7157613d70613cdb565b5b613d7a82613826565b9050602081019050919050565b82818337600083830152505050565b6000613da9613da484613d56565b613d3b565b905082815260208101848484011115613dc557613dc4613cd6565b5b613dd0848285613d87565b509392505050565b600082601f830112613ded57613dec613cd1565b5b8135613dfd848260208601613d96565b91505092915050565b600067ffffffffffffffff821115613e2157613e20613cdb565b5b602082029050602081019050919050565b600080fd5b6000613e4a613e4584613e06565b613d3b565b90508083825260208201905060208402830185811115613e6d57613e6c613e32565b5b835b81811015613eb457803567ffffffffffffffff811115613e9257613e91613cd1565b5b808601613e9f8982613dd8565b85526020850194505050602081019050613e6f565b5050509392505050565b600082601f830112613ed357613ed2613cd1565b5b8135613ee3848260208601613e37565b91505092915050565b600080600080600080600080610100898b031215613f0d57613f0c61375b565b5b600089013567ffffffffffffffff811115613f2b57613f2a613760565b5b613f378b828c01613dd8565b985050602089013567ffffffffffffffff811115613f5857613f57613760565b5b613f648b828c01613dd8565b975050604089013567ffffffffffffffff811115613f8557613f84613760565b5b613f918b828c01613ebe565b9650506060613fa28b828c0161377c565b9550506080613fb38b828c0161377c565b94505060a0613fc48b828c0161377c565b93505060c089013567ffffffffffffffff811115613fe557613fe4613760565b5b613ff18b828c01613dd8565b92505060e089013567ffffffffffffffff81111561401257614011613760565b5b61401e8b828c01613dd8565b9150509295985092959890939650565b600060208201905061404360008301846137d1565b92915050565b600082825260208201905092915050565b6000614065826138da565b61406f8185614049565b935083602082028501614081856138f6565b8060005b858110156140bd578484038952815161409e858261398d565b94506140a9836139a1565b925060208a01995050600181019050614085565b50829750879550505050505092915050565b60006040820190506140e460008301856137d1565b81810360208301526140f6818461405a565b90509392505050565b6141088161364c565b811461411357600080fd5b50565b600081359050614125816140ff565b92915050565b600080604083850312156141425761414161375b565b5b60006141508582860161377c565b925050602061416185828601614116565b9150509250929050565b60006040820190506141806000830185613b08565b61418d60208301846137d1565b9392505050565b600081519050919050565b600082825260208201905092915050565b6000819050602082019050919050565b60006141cc8383613917565b905092915050565b6000602082019050919050565b60006141ec82614194565b6141f6818561419f565b935083602082028501614208856141b0565b8060005b85811015614244578484038952815161422585826141c0565b9450614230836141d4565b925060208a0199505060018101905061420c565b50829750879550505050505092915050565b6000604082019050818103600083015261427081856141e1565b9050818103602083015261428481846134d8565b90509392505050565b60006020820190506142a26000830184613b08565b92915050565b600060808201905081810360008301526142c281876134d8565b905081810360208301526142d681866141e1565b905081810360408301526142ea81856141e1565b905081810360608301526142fe81846141e1565b905095945050505050565b60006020820190508181036000830152614323818461405a565b905092915050565b6000608082019050818103600083015261434581876134d8565b9050818103602083015261435981866141e1565b9050818103604083015261436d81856141e1565b9050818103606083015261438181846134d8565b905095945050505050565b7f4e487b7100000000000000000000000000000000000000000000000000000000600052602260045260246000fd5b600060028204905060018216806143d357607f821691505b6020821081036143e6576143e561438c565b5b50919050565b7f4e487b7100000000000000000000000000000000000000000000000000000000600052601160045260246000fd5b60006144268261349a565b91506144318361349a565b9250828203905081811115614449576144486143ec565b5b92915050565b7f4e487b7100000000000000000000000000000000000000000000000000000000600052603260045260246000fd5b60006144898261349a565b91507fffffffffffffffffffffffffffffffffffffffffffffffffffffffffffffffff82036144bb576144ba6143ec565b5b600182019050919050565b7f566f746520646f6573206e6f7420657869737400000000000000000000000000600082015250565b60006144fc6013836137eb565b9150614507826144c6565b602082019050919050565b6000602082019050818103600083015261452b816144ef565b9050919050565b7f566f7465206973206e6f74206163746976650000000000000000000000000000600082015250565b60006145686012836137eb565b915061457382614532565b602082019050919050565b600060208201905081810360008301526145978161455b565b9050919050565b7f566f746520686173206e6f742073746172746564000000000000000000000000600082015250565b60006145d46014836137eb565b91506145df8261459e565b602082019050919050565b60006020820190508181036000830152614603816145c7565b9050919050565b7f566f74652068617320656e646564000000000000000000000000000000000000600082015250565b6000614640600e836137eb565b915061464b8261460a565b602082019050919050565b6000602082019050818103600083015261466f81614633565b9050919050565b7f416c726561647920766f74656400000000000000000000000000000000000000600082015250565b60006146ac600d836137eb565b91506146b782614676565b602082019050919050565b600060208201905081810360008301526146db8161469f565b9050919050565b7f496e76616c6964206f7074696f6e000000000000000000000000000000000000600082015250565b6000614718600e836137eb565b9150614723826146e2565b602082019050919050565b600060208201905081810360008301526147478161470b565b9050919050565b7f4d6178696d756d207061727469636970616e7473207265616368656400000000600082015250565b6000614784601c836137eb565b915061478f8261474e565b602082019050919050565b600060208201905081810360008301526147b381614777565b9050919050565b7f4f6e6c792063726561746f722063616e20706572666f726d207468697320616360008201527f74696f6e00000000000000000000000000000000000000000000000000000000602082015250565b60006148166024836137eb565b9150614821826147ba565b604082019050919050565b6000602082019050818103600083015261484581614809565b9050919050565b7f566f746520616c726561647920656e6465640000000000000000000000000000600082015250565b60006148826012836137eb565b915061488d8261484c565b602082019050919050565b600060208201905081810360008301526148b181614875565b9050919050565b60008190508160005260206000209050919050565b60006020601f8301049050919050565b600082821b905092915050565b60006008830261491a7fffffffffffffffffffffffffffffffffffffffffffffffffffffffffffffffff826148dd565b61492486836148dd565b95508019841693508086168417925050509392505050565b6000819050919050565b600061496161495c6149578461349a565b61493c565b61349a565b9050919050565b6000819050919050565b61497b83614946565b61498f61498782614968565b8484546148ea565b825550505050565b600090565b6149a4614997565b6149af818484614972565b505050565b5b818110156149d3576149c860008261499c565b6001810190506149b5565b5050565b601f821115614a18576149e9816148b8565b6149f2846148cd565b81016020851015614a01578190505b614a15614a0d856148cd565b8301826149b4565b50505b505050565b600082821c905092915050565b6000614a3b60001984600802614a1d565b1980831691505092915050565b6000614a548383614a2a565b9150826002028217905092915050565b614a6d826137e0565b67ffffffffffffffff811115614a8657614a85613cdb565b5b614a9082546143bb565b614a9b8282856149d7565b600060209050601f831160018114614ace5760008415614abc578287015190505b614ac68582614a48565b865550614b2e565b601f198416614adc866148b8565b60005b82811015614b0457848901518255600182019150602085019450602081019050614adf565b86831015614b215784890151614b1d601f891682614a2a565b8355505b6001600288020188555050505b505050505050565b7f5469746c652063616e6e6f7420626520656d7074790000000000000000000000600082015250565b6000614b6c6015836137eb565b9150614b7782614b36565b602082019050919050565b60006020820190508181036000830152614b9b81614b5f565b9050919050565b7f4465736372697074696f6e2063616e6e6f7420626520656d7074790000000000600082015250565b6000614bd8601b836137eb565b9150614be382614ba2565b602082019050919050565b60006020820190508181036000830152614c0781614bcb565b9050919050565b7f526f6f6d206e616d652063616e6e6f7420626520656d70747900000000000000600082015250565b6000614c446019836137eb565b9150614c4f82614c0e565b602082019050919050565b60006020820190508181036000830152614c7381614c37565b9050919050565b7f41636365737320636f64652063616e6e6f7420626520656d7074790000000000600082015250565b6000614cb0601b836137eb565b9150614cbb82614c7a565b602082019050919050565b60006020820190508181036000830152614cdf81614ca3565b9050919050565b600081905092915050565b7f53746172742074696d65206d75737420626520696e207468652066757475726560008201527f2e20476976656e3a200000000000000000000000000000000000000000000000602082015250565b6000614d4d602983614ce6565b9150614d5882614cf1565b602982019050919050565b6000614d6e826137e0565b614d788185614ce6565b9350614d888185602086016137fc565b80840191505092915050565b7f2c2043757272656e743a20000000000000000000000000000000000000000000600082015250565b6000614dca600b83614ce6565b9150614dd582614d94565b600b82019050919050565b6000614deb82614d40565b9150614df78285614d63565b9150614e0282614dbd565b9150614e0e8284614d63565b91508190509392505050565b60006020820190508181036000830152614e348184613837565b905092915050565b7f456e642074696d65206d7573742062652061667465722073746172742074696d60008201527f652e2053746172743a2000000000000000000000000000000000000000000000602082015250565b6000614e98602a83614ce6565b9150614ea382614e3c565b602a82019050919050565b7f2c20456e643a2000000000000000000000000000000000000000000000000000600082015250565b6000614ee4600783614ce6565b9150614eef82614eae565b600782019050919050565b6000614f0582614e8b565b9150614f118285614d63565b9150614f1c82614ed7565b9150614f288284614d63565b91508190509392505050565b7f4d7573742068617665206174206c656173742032206f7074696f6e7300000000600082015250565b6000614f6a601c836137eb565b9150614f7582614f34565b602082019050919050565b60006020820190508181036000830152614f9981614f5d565b9050919050565b7f4d6178207061727469636970616e7473206d757374206265206772656174657260008201527f207468616e203000000000000000000000000000000000000000000000000000602082015250565b6000614ffc6027836137eb565b915061500782614fa0565b604082019050919050565b6000602082019050818103600083015261502b81614fef565b9050919050565b7f4d6178207061727469636970616e74732063616e6e6f7420657863656564203160008201527f3030300000000000000000000000000000000000000000000000000000000000602082015250565b600061508e6023836137eb565b915061509982615032565b604082019050919050565b600060208201905081810360008301526150bd81615081565b9050919050565b7f4f7074696f6e206e616d6520617420696e646578200000000000000000000000600082015250565b60006150fa601583614ce6565b9150615105826150c4565b601582019050919050565b7f2063616e6e6f7420626520656d70747900000000000000000000000000000000600082015250565b6000615146601083614ce6565b915061515182615110565b601082019050919050565b6000615167826150ed565b91506151738284614d63565b915061517e82615139565b915081905092915050565b600060408201905081810360008301526151a38185613837565b90506151b26020830184613b17565b9392505050565b7f4e487b7100000000000000000000000000000000000000000000000000000000600052601260045260246000fd5b60006151f38261349a565b91506151fe8361349a565b92508261520e5761520d6151b9565b5b828204905092915050565b60006152248261349a565b915061522f8361349a565b92508261523f5761523e6151b9565b5b828206905092915050565b60006152558261349a565b91506152608361349a565b9250828201905080821115615278576152776143ec565b5b9291505056fea2646970667358221220a211b25d17d2b2b5b02909843f70225138ab6bd12770ba8e76f6e06041b98d3f64736f6c63430008180033",
  "linkReferences": {},
  "deployedLinkReferences": {}
}